:020000040800F2
:100000007006002045010008A91E0008AB1E00086C
:10001000B51E0008B91E0008BD1E00080000000043
:10002000000000000000000000000000C11E0008E9
:10003000C31E000800000000C51E0008C71E0008FF
:100040005F0100085F0100085F0100085F01000810
:100050005F0100085F010008412100085F010008FE
:100060005F0100085F0100085F0100085F010008F0
:100070005F0100085F0100085F0100085F010008E0
:100080005F0100085F0100085F0100085F010008D0
:100090005F0100085F0100085F0100085F010008C0
:1000A0005F0100085F0100085F0100085F010008B0
:1000B00051350008BD1F0008ED1E00085F01000853
:1000C0005F0100085F0100085F0100085F01000890
:1000D0005F010008CF1E0008572100085F010008DB
:1000E0005F0100085F0100085F0100085F01000870
:1000F0005F0100085F0100085F0100085F01000860
:100100005F0100085F0100085F0100085F0100084F
:10011000253500085F0100085F0100085F01000845
:100120005F0100085F0100085F0100085F0100082F
:10013000DFF80CD003F0F4FF00480047791E0008F8
:10014000700600200648804706480047FEE7FEE7A5
:10015000FEE7FEE7FEE7FEE7FEE7FEE7FEE7FEE777
:1001600047020008310100080CB500200190009002
:100170006C48006840F480306A49086000BF6948F4
:10018000006800F4003000900198401C0190009835
:1001900018B90198B0F5A06FF1D16248006800F479
:1001A000003010B10120009001E000200090009884
:1001B000012843D15C48006840F010005A490860AB
:1001C0000846006820F0030008600846006840F018
:1001D0000200086053484068524948600846406839
:1001E00048600846406840F48060486008464068BF
:1001F00020F47C1048600846406840F4E8104860ED
:100200000846006840F08070086000BF45480068FC
:1002100000F000700028F9D04248406820F0030048
:10022000404948600846406840F00200486000BF0E
:100230003C48406800F00C000828F9D10CBD10B50E
:10024000FFF792FF10BD10B53648006840F001007E
:1002500034490860084640683449084031494860DC
:1002600008460068324908402E4908600846006880
:1002700020F4802008600846406820F4FE004860B2
:100280004FF41F008860FFF7DAFF4FF00060294944
:10029000086010BD10B5002100200022214B5B68D2
:1002A00003F00C0121B1042906D0082928D107E068
:1002B000214B224C236027E01F4B204C236023E07E
:1002C000184B5B6803F47010164B5B6803F48032C4
:1002D000022303EB904022B9194B4343174C236090
:1002E0000DE0104B5B6803F4003323B1144B434320
:1002F000124C236003E0104B4343104C236003E097
:100300000D4B0E4C236000BF00BF064B5B68C3F370
:1003100003130C4CE15C094B1B68CB40074C23607A
:1003200010BD000000100240002002400000FFF855
:10033000FFFFF6FE08ED00E000127A00000000204A
:1003400000093D000400002031490143314A116099
:10035000704770B5002100230F22C47804B32D4CE0
:10036000246804F4E064C4F5E064210AC1F10403E4
:10037000CA40447804FA03F1847814402143090107
:10038000254C0678A155047804F01F050124AC40E3
:1003900005786D11AD0005F1E025C5F8004109E0D3
:1003A000047804F01F050124AC401C4D067876113A
:1003B00045F8264070BD1A4A0A400243154B1B1FE0
:1003C0001A60704739B1134A121D12680243114B6B
:1003D0001B1D1A6006E00F4A121D126882430D4B66
:1003E0001B1D1A607047042808D14FF0E0210969ED
:1003F00041F004014FF0E022116107E04FF0E021ED
:10040000096921F004014FF0E022116170470000FA
:100410000000FA050CED00E000E400E080E100E0FF
:1004200080FFFF1F002044490860091D0860091D66
:100430000860091D086041483F4914310860704751
:1004400000213D498279002A3AD00A4612680368A1
:100450009A430B461A600A1D126803689A430B1DE3
:100460001A60027911440A6803681A430A60324A22
:100470000832126803689A432F4B08331A601A1D1A
:10048000126803689A432C4B0C331A604279102A85
:100490000ED11A1F126803681A43274B08331A60DB
:1004A0001A1D126803681A43234B0C331A600DE0BF
:1004B0002149427911440A6803681A430A6005E039
:1004C000027911440A6803689A430A607047002160
:1004D000016001710C214171002181717047164941
:1004E000103109680143144A103211607047014607
:1004F0000020114A143212680A400AB1012000E0BB
:10050000002070470C4914310860704701460020F4
:100510000022094B1B6803EA0102074B14331B68D6
:100520000B4013B10AB1012000E0002070470249DE
:10053000143108607047000000040140FFFF0F0005
:1005400010B50446CC48844208D10121042000F0B3
:100550002DFB0021042000F029FB46E0C74884421F
:1005600008D10121082000F021FB0021082000F023
:100570001DFB3AE0C248844208D10121102000F05E
:1005800015FB0021102000F011FB2EE0BD48844235
:1005900008D10121202000F009FB0021202000F0DB
:1005A00005FB22E0B848844208D10121402000F038
:1005B000FDFA0021402000F0F9FA16E0B348844229
:1005C00008D10121802000F0F1FA0021802000F004
:1005D000EDFA0AE0AE48844207D10121801500F00F
:1005E000E5FA0021A01500F0E1FA10BD10B50121D7
:1005F000084600F0DBFA0021012000F0D7FA10BD18
:100600002DE9F041024600250026002000230024A9
:10061000002791F803C00CF00F0591F803C00CF00F
:10062000100CBCF1000F03D091F802C04CEA050594
:1006300091F800C0BCF1000F31D0146800202BE00D
:100640004FF0010C0CFA00F3B1F800C00CEA0306FD
:100650009E4220D183004FF00F0C0CFA03F7BC43ED
:1006600005FA03FC4CEA040491F803C0BCF1280F1E
:1006700006D14FF0010C0CFA00FCC2F814C00AE0DD
:1006800091F803C0BCF1480F05D14FF0010C0CFAF2
:1006900000FCC2F810C0401C0828D1D31460B1F887
:1006A00000C0BCF1FF0F34DD546800202EE000F1E3
:1006B000080C4FF0010808FA0CF3B1F800C00CEA7E
:1006C00003069E4221D183004FF00F0C0CFA03F772
:1006D000BC4305FA03FC4CEA040491F803C0BCF1E6
:1006E000280F05D100F1080C08FA0CF8C2F81480A4
:1006F00091F803C0BCF1480F07D100F1080C4FF08E
:10070000010808FA0CF8C2F81080401C0828CED363
:100710005460BDE8F0814FF6FF71018002218170C5
:100720000421C17070470246002093680B400BB152
:10073000012000E0002070470146886880B27047C1
:1007400002460020D3680B400BB1012000E00020DE
:1007500070470146C86880B27047016170474161C7
:1007600070470AB1016100E041617047C1607047A4
:100770004FF480320A4382618161826182698269B9
:10078000704702460020434B18684FF680731840AC
:1007900040EA021008433F4B186070473E49C86169
:1007A0007047F0B50A46002300240021002500F020
:1007B0000046B6F1004F02D1364EF16901E0354EE8
:1007C0007168C0F3034583B200F44016B6F5401FCC
:1007D00008D121F070612F4E766826F070662D4F9B
:1007E0007E6012E000F48016B6F5801F06D1032665
:1007F00006FA05F4A14341F0706106E0460D3601AA
:1008000003FA06F6B14341F0706122B1460D36019C
:1008100003FA06F6314300F00046B6F1004F02D16C
:100820001C4EF16101E01B4E7160F0BD30B500223D
:100830008B071C0F0F2303FA04F2164B08338C109E
:1008400053F824309343134C08348D1044F825306A
:1008500023468C1053F824308C07240F00FA04F43C
:1008600023430C4C08348D1044F8253030BD0A4920
:10087000DC3108607047000000080140000C0140B6
:10088000001001400014014000180140001C01400C
:10089000002001400000014000002042DF480068C5
:1008A00040F00100DD49086008464068DC49084026
:1008B000DA49486008460068DA490840D7490860C4
:1008C0000846006820F4802008600846406820F44C
:1008D000FE0048604FF41F0088607047CF490968E8
:1008E00021F48031CD4A11601146096821F480213C
:1008F0001160B0F5803F03D0B0F5802F0ED106E037
:10090000C649096841F48031C44A116007E0C3490F
:10091000096841F4A021C14A116000E000BF00BF96
:10092000704710B501460022002300204A11012A19
:1009300002D1BA4C236806E0022A02D1B74C236ADE
:1009400001E0B64C636A01F01F02012494401C4090
:100950000CB1012000E0002010BD38B5002000904F
:100960000024002500BF3120FFF7DBFF054600987B
:10097000401C00900098B0F5A06F01D0002DF2D07F
:100980003120FFF7CEFF08B1012400E0002420460B
:1009900038BD01460020A14A106820F0F80040EA66
:1009A000C10010607047A0490860704702460020EF
:1009B0009A4B586820F47C1042EA01031843974B85
:1009C0005860704798490866704701460020934A6E
:1009D000506820F003000843506070478F4840681B
:1009E00000F00C007047014600208C4A506820F04F
:1009F000F00008435060704701460020874A506865
:100A000020F4E06008435060704701460020834AAC
:100A1000506820F4605040EAC1005060704729B12E
:100A20007E4A527A02437D4B5A7204E07B4A527AE4
:100A300082437A4B5A7270477B49D83108607047BD
:100A400001460020754A506820F440400843506039
:100A500070470021714A20321170704A82F82010CC
:100A6000012802D004280AD104E001216B4A203277
:100A7000117005E00521694A2032117000E000BFC5
:100A800000BF70476949086070476449096A0143BB
:100A9000624A11627047654944390860704730B551
:100AA00000210022002400235C4D6D6805F00C013C
:100AB00021B1042905D0082923D105E05C4D05604A
:100AC00022E05B4D05601FE0544D6D6805F4701227
:100AD000524D6D6805F48034022505EB92421CB935
:100AE000544D554305600BE04C4D6D6805F40035E1
:100AF0001DB1504D5543056002E04D4D5543056015
:100B000002E04B4D056000BF00BF444D6D6805F02D
:100B1000F0010909484D6B5C0568DD4045603F4DBB
:100B20006D6805F4E061090A434D6B5C4568DD4082
:100B300085603A4D6D6805F46051C90A3E4D6B5CA5
:100B40004568DD40C560354D6D6805F44041890B51
:100B50003A4D6B5CC568B5FBF3F5056130BD29B155
:100B60002E4A526902432D4B5A6104E02B4A5269C6
:100B700082432A4B5A61704729B1284A926902433D
:100B8000264B9A6104E0254A92698243234B9A617D
:100B9000704729B1214AD2690243204BDA6104E04F
:100BA0001E4AD26982431D4BDA61704729B11B4A44
:100BB000D2680243194BDA6004E0184AD2688243D3
:100BC000164BDA60704729B1144A12690243134B7D
:100BD0001A6104E0114A12698243104B1A6170478E
:100BE00012494039086070470F49C86470470B4983
:100BF000C87170470948406A40F0807007494862F0
:100C0000704701460020054A92680A400AB1012057
:100C100000E00020704701498872704700100240D0
:100C20000000FFF8FFFFF6FE00004242800442424F
:100C300000127A0000093D0014000020240000206A
:100C400010B50446FE48844208D10121C014FFF7C4
:100C5000ADFF0021E014FFF7A9FFC4E0B4F1804F1D
:100C600008D101210846FFF7AEFF00210120FFF760
:100C7000AAFFB8E0F348844208D101210220FFF71F
:100C8000A2FF00210220FFF79EFFACE0EE48844265
:100C900008D101210420FFF796FF00210420FFF76F
:100CA00092FFA0E0E948844208D101210820FFF723
:100CB0008AFF00210820FFF786FF94E0E448844281
:100CC00008D101211020FFF77EFF00211020FFF73F
:100CD0007AFF88E0DF48844208D101212020FFF715
:100CE00072FF00212020FFF76EFF7CE0DA4884428B
:100CF00008D101214014FFF759FF00216014FFF7CC
:100D000055FF70E0D548844209D10121C804FFF79E
:100D10004DFF00214FF40020FFF748FF63E0D0486B
:100D2000844209D101210805FFF740FF00214FF45B
:100D30008010FFF73BFF56E0CA48844209D10121E9
:100D40004805FFF733FF00214FF40010FFF72EFF97
:100D500049E0C548844208D101214020FFF733FF14
:100D600000214020FFF72FFF3DE0C048844208D11A
:100D700001218020FFF727FF00218020FFF723FFBC
:100D800031E0BB48844208D101218015FFF71BFFE9
:100D90000021A015FFF717FF25E0B648844209D1CE
:100DA00001210804FFF702FF00214FF48030FFF714
:100DB000FDFE18E0B048844209D101214804FFF744
:100DC000F5FE00214FF40030FFF7F0FE0BE0AB48DA
:100DD000844208D101218804FFF7E8FE00214FF486
:100DE0008020FFF7E3FE10BD00220288944B98425A
:100DF0000ED0994B98420BD0B0F1804F08D0914B58
:100E0000984205D0904B984202D0904B984204D122
:100E10004FF68F731A404B881A438D4B984207D078
:100E20008C4B984204D04FF6FF431A40CB881A43AC
:100E300002808B8883850B880385814B98420BD079
:100E4000854B984208D08B4B984205D08A4B9842EC
:100E500002D08A4B984201D10B7A03860123838208
:100E6000704770B5002400220023058C4FF6FE76F3
:100E700035400584028C8388048B4FF68F752C4097
:100E8000B51E2C400D882C43751E2A400D892A431F
:100E90004D882A436A4DA8420BD06F4DA84208D016
:100EA000744DA84205D0744DA84202D0734DA8429B
:100EB00013D14FF6F7752A404D892A434FF6FB753B
:100EC0002A408D882A434FF6FF652B404FF6FF5589
:100ED0002B408D892B43CD892B4383800483CD8880
:100EE0008586028470BD70B5002400220023058C25
:100EF0004FF6EF7635400584028C8388048B48F6E4
:100F0000FF752C404FF6FF452C400D884FF6FF76BD
:100F100006EA05252C434FF6DF752A400D8906EABF
:100F200005152A434D8806EA05152A43444DA84273
:100F300002D0494DA8421DD14FF67F752A404D89F8
:100F40004FF6FF7606EA05152A434FF6BF752A408D
:100F50008D8806EA05152A434FF6FF352B404FF2E0
:100F6000FF752B408D8906EA85052B43CD8906EA5E
:100F700085052B4383800483CD880587028470BD5B
:100F800070B5002400220023058C4FF6FF66354023
:100F90000584028C8388848B4FF68F752C404FF626
:100FA000FC752C400D882C434FF6FF552A400D89C7
:100FB0004FF6FF7606EA05252A434D8806EA052501
:100FC0002A431F4DA84202D0234DA8421DD14FF203
:100FD000FF752A404D894FF6FF7606EA05252A431C
:100FE0004FF6FF352A408D8806EA05252A434EF63E
:100FF000FF752B404DF6FF752B408D8906EA0515D0
:101000002B43CD8906EA05152B4383808483CD8845
:101010008587028470BD70B5002200230024058CF2
:101020004EF6FF7635400584038C8488828B48F623
:10103000FF752A404FF6FF452A400D8820E000004A
:10104000002C01400004004000080040000C00405B
:10105000001000400014004000340140004C0140EA
:10106000005001400054014000180040001C0040A6
:101070000020004000400140004401400048014081
:101080004FF6FF7606EA05252A434DF6FF752B40FD
:101090000D8906EA05352B434D8806EA05352B43B5
:1010A000FA4DA84202D0FA4DA84208D14BF6FF757E
:1010B0002C408D894FF6FF7606EA85152C438480F7
:1010C0008283CD88A0F84050038470BD828B4FF29C
:1010D000FF331A408283828B4FF6FF7303EA0123AA
:1010E0001A4382837047F0B50C4615460022002152
:1010F0000026078C4EF6FF7C07EA0C070784828BDC
:10110000018C4FF6FF7707EA043640F6FF473A4076
:101110004FF6FF7707EA05273A434FF6FF7707EACE
:1011200003373A43D94FB8420ED0D94FB8420BD00B
:10113000B0F1804F08D0D74FB84205D0D64FB84253
:1011400002D0D64FB84206D14DF6FF77394046F46B
:101150008057394305E047F6FF57394044F480573C
:10116000394382830184F0BD828B4FF6F3731A40BA
:101170008283828B0A4382837047F0B50C46154602
:10118000002200210026078C4FF6FF6C07EA0C07AF
:101190000784828B018C4FF6FF7707EA04264FF60F
:1011A0000C773A404FF6FF7707EA03172F433A438D
:1011B000B64FB8420ED0B64FB8420BD0B0F1804F08
:1011C00008D0B44FB84205D0B34FB84202D0B34FA5
:1011D000B84206D14FF6FF57394046F4807739437D
:1011E00005E04FF2FF57394044F48077394382835A
:1011F0000184F0BD028B4FF2FF331A400283028B51
:101200004FF6FF7303EA01231A4302837047F0B5D8
:101210000C461546002200210026078C4FF6EF7C75
:1012200007EA0C070784028B018C4FF6FF7707EA69
:10123000041640F6FF473A404FF6FF7707EA0337B8
:101240003A434FF6FF7707EA05273A438F4FB842F4
:101250000ED08F4FB8420BD0B0F1804F08D08D4FD9
:10126000B84205D08C4FB84202D08C4FB84206D15C
:101270004FF6DF77394046F01007394305E04FF667
:101280005F77394044F01007394302830184F0BD91
:10129000028B4FF6F3731A400283028B0A430283D8
:1012A0007047F0B50C46154600220021068C4FF61B
:1012B000FE773E400684028B018C4FF60C7632405E
:1012C0007E1C06EA03162E433243704EB0420ED007
:1012D0006F4EB0420BD0B0F1804F08D06D4EB0428F
:1012E00005D06D4EB04202D06C4EB04206D14FF6E2
:1012F000FD76314044F00106314305E04FF6F576C6
:10130000314044F00106314302830184F0BD70B5E1
:1013100005460C465D4885420ED05D4885420BD09F
:10132000B5F1804F08D05B48854205D05A488542C8
:1013300002D05A48854200D100E000BF208850B951
:101340002389A28861882846FFF7ABFFE1882846F9
:10135000FFF79EFF25E0208804280AD12389A28870
:1013600061882846FFF753FFE1882846FFF742FFD0
:1013700017E0208808280AD12389A2886188284696
:10138000FFF7FBFEE1882846FFF7EEFE09E0238920
:10139000A28861882846FFF7A6FEE1882846FFF765
:1013A00095FE70BD2DE9F04105460C46002601274B
:1013B000608808B9022600E00026A088012801D133
:1013C000022700E001272088A0B92389A28861882C
:1013D0002846FFF766FFE1882846FFF759FF238973
:1013E0003A4631462846FFF712FFE1882846FFF7C4
:1013F00001FF13E02389A28861882846FFF707FFD1
:10140000E1882846FFF7F6FE23893A46314628460A
:10141000FFF747FFE1882846FFF73AFFBDE8F08174
:101420000A884B881A438B881A43CB881A430B8946
:101430001A434B891A438B891A43A0F844207047FA
:101440004FF6FF71818000210180C18041800172CF
:1014500070470021018041808180C18001814181EC
:101460008181C181704700210180418001218180FB
:101470000021C1800181704700210180418081806D
:10148000C18001814181818170470000002C0140B1
:10149000003401400004004000080040000C0040FF
:1014A00021B1028842F00102028004E002884FF676
:1014B000FE731A400280704731B1B0F8442042F404
:1014C0000042A0F8442005E0B0F84420C2F30E0228
:1014D000A0F8442070471AB183890B43838102E04E
:1014E00083898B43838170478182704741EA02037D
:1014F000A0F8483070471AB183890B43838102E01A
:1015000083898B438381704701894FF6F8721140BC
:10151000018170470A46002101894FF68F731940F7
:1015200011430181704730B504460D4629462046D7
:10153000FFF7F0FF208940F00700208130BD2DE942
:10154000F04104460D4616461F46602D06D13B4627
:10155000012231462046FFF75AFE05E03B460122B4
:1015600031462046FFF79DFE29462046FFF7D2FF71
:10157000208940F007002081BDE8F08130B50C469D
:1015800000210189C9B24FF6FF7505EA032515430D
:1015900025432943018130BD2DE9F04105460E4622
:1015A00017469846002443463A4631462846FFF7F8
:1015B000E5FF2C894FF6F870044044F007044FF61D
:1015C0008F70044044F070042C81BDE8F081F0B5C8
:1015D00004460D4616461F463B46324629462046DF
:1015E000FFF7CCFF208940F480402081F0BD0185C9
:1015F000828270470A46002101884FF68F73194096
:10160000114301807047F0B50C4615461E46002177
:10161000002200230189028B038C4FF6F8773940B2
:1016200021434FF6FC473A4040F201173A434FF648
:10163000DD773B404FF6FF7707EA06172F433B4322
:10164000018102830384F0BD0A460021018B4FF61D
:101650008F7319401143018370470A460021018BA3
:1016600048F6FF7319404FF6FF7303EA022319434C
:10167000018370470A460021818B4FF68F73194012
:101680001143818370470A460021818B48F6FF731E
:1016900019404FF6FF7303EA022319438183704711
:1016A00021B1028842F08002028004E002884FF6F5
:1016B0007F731A400280704721B1828842F0040291
:1016C000828004E082884FF6FB731A408280704764
:1016D00021B1828842F00802828004E082884FF6BD
:1016E000F7731A408280704721B1828842F001026C
:1016F000828004E082884FF6FE731A408280704731
:101700000A460021018B4FF6F773194011430183FC
:1017100070470A460021018B4FF2FF7319404FF6C4
:10172000FF7303EA02231943018370470A4600212D
:10173000818B4FF6F77319401143818370470A4636
:101740000021818B4FF2FF7319404FF6FF7303EABC
:1017500002231943818370470A460021018B4FF60B
:10176000FB7319401143018370470A460021018B26
:101770004FF6FF3319404FF6FF7303EA0223194374
:10178000018370470A460021818B4FF6FB73194095
:101790001143818370470A460021818B4FF6FF3346
:1017A00019404FF6FF7303EA022319438183704700
:1017B0000A460021018B4FF67F73194011430183C4
:1017C00070470A460021018BC1F30E014FF6FF73EB
:1017D00003EA02231943018370470A460021818BE3
:1017E0004FF67F7319401143818370470A460021E9
:1017F000818BC1F30E014FF6FF7303EA02231943F5
:10180000818370470A460021018C4FF6FD73194011
:101810001143018470470A460021018C4FF6F7738B
:1018200019401143018470470A460021018C4FF68C
:10183000DF7319404FF6FF7303EA02131943018463
:1018400070470A460021018C4FF67F7319404FF60E
:10185000FF7303EA02131943018470470A4600210B
:10186000018C4FF6FF5319404FF6FF7303EA022332
:101870001943018470470A460021018C4FF2FF731F
:1018800019404FF6FF7303EA02231943018470479E
:101890000A460021018C4DF6FF7319404FF6FF7385
:1018A00003EA023319430184704730B50023012451
:1018B0008C40A3B2048C9C430484048C02FA01F58E
:1018C000ADB22C43048430BD30B5002304248C40D9
:1018D000A3B2048C9C430484048C02FA01F5ADB2DB
:1018E0002C43048430BD70B5034600200024184604
:1018F000183001258D40ACB21D8CA5431D8409B163
:10190000082909D100EB6100056825F07005056024
:101910000568154305600EE00D1FC5F34E0528440C
:10192000056825F4E045056005684FF6FF7606EA90
:1019300002263543056070BD21B1028842F00202E3
:10194000028004E002884FF6FD731A40028070475F
:1019500021B1028842F00402028004E002884FF6BE
:10196000FB731A400280704721B1828842F08002E6
:10197000828004E082884FF67F731A40828070472D
:1019800002884FF6F7731A40028002880A430280E9
:10199000704782884FF68F731A40828082880A438C
:1019A0008280704702894FF6F8731A4002810289DB
:1019B0000A430281704702894FF67F731A40028101
:1019C00002890A430281704781847047818570478C
:1019D000818670470187704781877047A0F8401063
:1019E000704702884FF6FF431A40028002880A437C
:1019F000028070470146888E70470146088F704705
:101A00000146888F70470146B1F840007047014693
:101A1000888C70470146088D704702460020138A63
:101A20000B400BB1012000E000207047CA43028246
:101A3000704730B50246002000230024158A05EACD
:101A40000103958905EA010413B10CB1012000E0FE
:101A5000002030BDCA4302827047000010B5044622
:101A6000FB48844209D101218803FFF79FF8002138
:101A70004FF48040FFF79AF832E0F648844209D1EB
:101A800001214804FFF79FF800214FF40030FFF7D1
:101A90009AF825E0F048844209D101218804FFF733
:101AA00092F800214FF48020FFF78DF818E0EB4802
:101AB000844209D10121C804FFF785F800214FF4C1
:101AC0000020FFF780F80BE0E548844208D10121AF
:101AD0000805FFF778F800214FF48010FFF773F83E
:101AE00010BD2DE9F04786B005460E460024A246FB
:101AF00000BFA1460027B08900B100BF2F462C8A45
:101B00004CF6FF700440F08804432C82AC894EF6FA
:101B1000F3100440B08831890843718908430443B5
:101B2000AC81AC8A4FF6FF400440B0890443AC82DC
:101B300001A8FEF7B4FFC648874202D1DDF810A025
:101B400001E0DDF80CA0A88900F4004040B10AEBE8
:101B5000CA0000EB0A1031684900B0FBF1F807E059
:101B60000AEBCA0000EB0A1031688900B0FBF1F8FB
:101B70006420B8FBF0F004012009642101FB108906
:101B8000A88900F4004040B1322000EBC900B0FB4E
:101B9000F1F000F00700044308E0322000EB0910E8
:101BA0006421B0FBF1F000F00F0004432C8106B07B
:101BB000BDE8F0874FF41651016000218180C1809B
:101BC00001810C21418100218181704710B50246BD
:101BD0000020108A4FF2FF0318400B884C882343E3
:101BE0008C882343CC8823431843108210BD0021E6
:101BF000018041808180C180704721B1828942F497
:101C00000052828104E082894DF6FF731A4082817E
:101C10007047F0B50346002400260025002040F65A
:101C20006A17B94200D100BF1846C1F3421401F04F
:101C30001F06012707FA06F5012C01D10C3004E03C
:101C4000022C01D1103000E014301AB107682F4384
:101C5000076002E00768AF430760F0BD1AB1838AEE
:101C60000B43838202E0838A8B4383827047028A1C
:101C70004FF6F0731A400282028A0A4302827047CA
:101C800082894FF2FF731A40828182890A438281DE
:101C9000704721B1828942F00202828104E0828988
:101CA0004FF6FD731A4082817047028A4FF6DF7348
:101CB0001A400282028A0A430282704721B1028AD4
:101CC00042F48042028204E0028A4BF6FF731A401B
:101CD00002827047C1F308028280704701468888FB
:101CE000C0F308007047818941F00101818170478C
:101CF000028BD2B20283028B42EA01220283704736
:101D0000028B02F47F420283028B0A4302837047F4
:101D100021B1828A42F02002828204E0828A4FF658
:101D2000DF731A408282704721B1828A42F010022A
:101D3000828204E0828A4FF6EF731A4082827047F3
:101D400021B1828A42F00802828204E0828A4FF640
:101D5000F7731A408282704721B1828942F40042AF
:101D6000828103E08289C2F30E028281704721B131
:101D7000828A42F40062828204E0828A4FF2FF7318
:101D80001A4082827047828A4FF6FB731A40828221
:101D9000828A0A438282704721B1828A42F002021B
:101DA000828204E0828A4FF6FD731A408282704775
:101DB00002460020B1F5007F00D100BF13880B4020
:101DC0000BB1012000E00020704701F40072B2F571
:101DD000007F00D100BFCA430280704770B5024641
:101DE000002400230025002040F66A16B14200D1ED
:101DF00000BFC1F3421501F01F03012606FA03F3E9
:101E0000012D02D19689334006E0022D02D1168AB7
:101E1000334001E0968A33400C12012606FA04F49E
:101E20001688344013B10CB1012000E0002070BDD1
:101E300010B50022002340F66A14A14200D100BF71
:101E40000A1201249440A3B2DC43048010BD0000B8
:101E5000003801400044004000480040004C004071
:101E60000050004010B54FF4E13001F036FD00F0B5
:101E7000E3F901F0F1FC10BD00BF00BF01F07EF8F6
:101E800000F094FA00F006FC4FF4164000F042FA1D
:101E900000F08FFD00F033FF00F0E6FB01F0C1F829
:101EA000FFF7E0FF00BFFEE77047CCA002F04AF961
:101EB00000BFFEE700BFFEE700BFFEE700BFFEE792
:101EC00070477047704710B500F012FA10BD10B59A
:101ED00040F22551C648FFF781FF30B1C448FFF7F3
:101EE000FDFEC4B2C3A000F094FA10BD10B50121EC
:101EF000C848FFF79EFD38B1C7484088C6494880AA
:101F00000121C448FFF7A6FD0821C248FFF791FD53
:101F100038B3C248407878B90021BE48FFF754FD75
:101F20000020BE49888048800221BA48FFF796FC0D
:101F30000120BA4948700FE0B648FFF761FDB74984
:101F400048800021B348FFF789FC0020B34948705E
:101F50000120087000BF00BF0821AE48FFF77AFDDE
:101F60002BE01021AB48FFF764FD30B3AB4840785D
:101F700078B90021A748FFF727FD0020A7498880EE
:101F800048800221A348FFF783FC0120A349487041
:101F90000FE0A048FFF737FDA049488000219D4889
:101FA000FFF776FC00209D4948700120087000BFB3
:101FB00000BF10219748FFF74DFD10BD10B501215E
:101FC0009748FFF736FD38B19348408892494880DA
:101FD00001219348FFF73EFD02219148FFF729FDBB
:101FE00038B38D48407878B900218D48FFF7ECFC74
:101FF000002089498880488002218948FFF702FC37
:102000000120854948700FE08548FFF7F3FC8249BD
:10201000488000218248FFF7F5FB00207E49487088
:102020000120087000BF00BF02217D48FFF712FDAC
:1020300085E004217A48FFF7FCFC38B37648407805
:1020400078B900217648FFF7BFFC002072498880EC
:10205000488002217248FFF7E7FB01206E49487073
:102060000FE06F48FFF7C9FC6B49488000216C48BE
:10207000FFF7DAFB0020684948700120087000BFB4
:1020800000BF04216648FFF7E5FC58E008216448DA
:10209000FFF7CFFC38B36048407878B9002160483A
:1020A000FFF792FC00205C498880488002215C4850
:1020B000FFF7D4FB0120584948700FE05848FFF75C
:1020C0009FFC5549488000215548FFF7C7FB002079
:1020D000514948700120087000BF00BF08215048D6
:1020E000FFF7B8FC2BE010214D48FFF7A2FC30B3FE
:1020F0004948407878B900214948FFF765FC00203D
:1021000045498880488002214548FFF7C1FB0120EE
:10211000414948700FE04248FFF775FC3E4948804E
:1021200000213F48FFF7B4FB00203B4948700120E5
:10213000087000BF00BF10213948FFF78BFC10BDAD
:1021400010B50120FEF7E2F920B1012035490870F1
:10215000FEF7EDF910BD10B540F225513248FFF7FA
:102160003DFE002839D03048FFF7B8FDC4B2242C1A
:1021700002D100202D4908802C4801880088401C8D
:102180002A4A10802A484454007824281ED128481E
:1021900000794D281AD126484079432816D10A2CB7
:1021A00014D15021234801F058FC204802882049CE
:1021B000204801F039FC01201E4981F85000002020
:1021C0001A490880C8211A4801F047FC17480088BE
:1021D000C82802DBC8201549088010BD0D0A2068F8
:1021E0006172646661756C74206572720D0A00001C
:1021F00000380140BEC8C3FC2E2E2E2E2E2E2E2EB1
:102200002E2E2E2E2E2E2E2E2E2E2E2E2E2E2E0D0F
:102210000A000000000800403A00002034000020BE
:102220000004004028000020004400406C00002012
:10223000010100208800002030B500BF314800684F
:102240004FF47A72B0FBF2F1B1F1807F01D301203B
:102250001DE021F07F40401E4FF0E02250615017FA
:102260000F22002807DA13071D0E274B00F00F047A
:10227000241F1D5503E013071C0E244B1C5400BFE4
:1022800000204FF0E022906107201061002000281C
:10229000D4D14FF0E020006920F001004FF0E021A0
:1022A000086130BD00EB80018800194908604FF0DB
:1022B000E021096941F001014FF0E022116100BF06
:1022C000134909680029FBD170474FF47A714143E3
:1022D0000F4A11604FF0E021096941F001014FF010
:1022E000E022116100BF0A4909680029FBD170474B
:1022F0000748006820B106480068401E044908608D
:10230000704700000000002018ED00E000E400E04D
:102310002C00002010B586B00446012144F20400D0
:10232000FEF72AFC4FF40070ADF8140018208DF869
:10233000170003208DF8160005A93F48FEF760F945
:102340004FF48060ADF8140004208DF8170005A943
:102350003948FEF755F901940020ADF80800ADF8B2
:102360000A00ADF80C00ADF810000C20ADF80E001E
:1023700025208DF8000003208DF801008DF8020063
:1023800001208DF803006846FDF7E3FF01A92B4803
:10239000FFF7A7FB012240F225512848FFF739FC3F
:1023A00001212648FFF729FC06B010BD08B54FF4FF
:1023B000E060FDF7C9FF25208DF8000000208DF8B2
:1023C000010001208DF802008DF803006846FDF73A
:1023D000C0FF08BD00BF704770B504460D46E1B2AE
:1023E0001648FFF777FC00BF80211448FFF7E0FC98
:1023F0000028F9D0204670BD10B5044600BF20214A
:102400000E48FFF7D5FC0028F9D00C48FFF766FC12
:1024100010BD10B504460BE000BF40210748FFF790
:10242000C7FC0028F9D014F8011B0448FFF752FC40
:1024300020780028F0D110BD00080140003801408C
:1024400008B51E208DF8000000208DF80100022044
:102450008DF8020001208DF803006846FDF779FF32
:1024600008BD08B51D208DF8000000208DF8010082
:1024700003208DF8020001208DF803006846FDF767
:1024800068FF08BD08B501210820FEF775FB042090
:102490008DF803008001ADF8000069467948FEF729
:1024A000AFF84FF40070ADF8000069467548FEF7CC
:1024B000A7F808BD08B501210820FEF75DFB012142
:1024C0000420FEF759FB04208DF803004020ADF8EE
:1024D000000069466C48FEF793F88020ADF80000D4
:1024E00069466948FEF78CF80120ADF8000069469E
:1024F0006448FEF785F80220ADF80000694661489F
:10250000FEF77EF808BD00B587B001210420FEF774
:1025100040FB4FF6FF70ADF814004720ADF81000F7
:102520000020ADF81600ADF812008DF8180004A9CF
:102530005648FEF759FC0020ADF806000120ADF822
:1025400008000020ADF80A00ADF80C000820ADF836
:10255000040001A94D48FEF7DAFE0C20ADF8040096
:1025600001A94A48FEF7D3FE09214848FFF75EFA61
:1025700011214648FFF75AFA012209214348FEF784
:10258000AAFF012211214148FEF7A5FF01213F4882
:10259000FEF786FF07B000BD00B587B0012102201D
:1025A000FEF7F7FA4FF6FF70ADF814004720ADF8CC
:1025B00010000020ADF81600ADF812008DF81800DC
:1025C00004A93348FEF710FC0020ADF806000120F6
:1025D000ADF808000020ADF80A00ADF80C00ADF829
:1025E000040001A92A48FEF792FE0420ADF8040079
:1025F00001A92748FEF78BFE0820ADF8040001A9C9
:102600002348FEF784FE0C20ADF8040001A9204801
:10261000FEF77DFE03211E48FFF708FA05211C483E
:10262000FFF704FA09211A48FFF700FA11211848A8
:10263000FFF7FCF9012205211548FEF74CFF0122A6
:1026400009211348FEF747FF012203211048FEF736
:1026500042FF012211210E48FEF73DFF01210C48E7
:10266000FEF71EFF07B000BD10B5FFF70BFFFFF729
:10267000E7FEFFF748FFFFF71DFFFFF7F2FEFFF74A
:102680008BFF10BD000C0140000801400008004015
:102690000004004008B501211020FEF76DFA10205B
:1026A0008DF8030003208DF802000120ADF8000032
:1026B00069467848FDF7A4FF0220ADF8000069469E
:1026C0007448FDF79DFF0420ADF80000694671488D
:1026D000FDF796FF0820ADF8000069466D48FDF74C
:1026E0008FFF1020ADF8000069466A48FDF788FFAB
:1026F0002020ADF8000069466648FDF781FF08BD5F
:1027000037B51446BDF80200451C4FF4AA70684363
:102710004008642148436049B0FBF1F05F4941F84B
:10272000240000BF084650F8242021465CA001F098
:1027300009FD3EBD70B505460C46A1B22846FEF720
:102740000CF80A2000F0DEF8A1B22846FEF707F8E0
:1027500070BD70B50546002400BF0BE04F4850F82F
:10276000240045F8240055F82420214652A001F009
:10277000E9FC641C052CF1DB70BD01465348008860
:10278000084400B2514A10801046B0F90000FA28FF
:1027900001DDFA2010804D48B0F900007047014675
:1027A0004A480088401A00B2484A10801046B0F9E2
:1027B00000001E2801DA1E2010804448B0F90000F5
:1027C00070474248B0F9000070477CB505460024C8
:1027D0003F480078012810D100203D490870084684
:1027E000016800918088ADF804003A4890F9002013
:1027F000DDE90001FFF784FF13E037480078012886
:102800000FD1002034490870084601680091808883
:10281000ADF804002F4890F90020DDE90001FFF732
:102820006FFF2C4890F90000062822D2DFE800F064
:1028300003080D12171C01211648FFF77BFF18E053
:1028400002211448FFF776FF13E004211148FFF737
:1028500071FF0EE008210F48FFF76CFF09E010211F
:102860000C48FFF767FF04E020210A48FFF762FFEA
:1028700000BF00BF174890F90000401C052190FBE5
:10288000F1F201FB120040B21249087000BF00BF14
:102890007CBD00000010014040420F007400002089
:1028A0000D0A2564203A2064697374616E636520A3
:1028B00025640D0A000000000D0A2564203A20203E
:1028C0002020202564636D0D0A00000042000020D6
:1028D00034000020450000203A0000201448006821
:1028E0001449B0FBF1F0144908700846007800EB79
:1028F0004001C1EBC0104FF6FF7101EAC0000F4963
:1029000008807047002101E000BF491C00EB8002F5
:10291000B1EB420FF8D37047002101E000BF491C22
:1029200040F277124243B1EB021FF7DB7047000021
:102930000000002000127A0046000020480000201D
:10294000002904DA4A4211B22D22027001E020224D
:1029500002704FF47A7291FBF2F23032D3B2421C21
:10296000104613704FF47A7291FBF2F302FB1311CD
:10297000642291FBF2F23032D3B2421C1046137043
:10298000642291FBF2F302FB13110A2291FBF2F293
:102990003032D3B2421C104613700A2291FBF2F37C
:1029A00002FB131101F13002D3B2421C1046137026
:1029B000704708B501210820FEF7DEF84020ADF889
:1029C000000003208DF8020014208DF803006946F2
:1029D000FE48FDF715FE8020ADF8000003208DF8BD
:1029E000020014208DF803006946F848FDF708FE40
:1029F00008BD1E2001E0411EC8B20028FBD170476F
:102A000041F2883000E0401E0028FCD1704700B53C
:102A10008020EE491031086040200860FFF7E9FF90
:102A2000EA480830006808B9012000E0002000F002
:102A3000800008B1002000BD8020E4491431086006
:102A4000FFF7D7FFE1480830006800F0800008B1C8
:102A50000020F0E78020DD4914310860FFF7C9FF4E
:102A60000120E8E700B54020D84914310860FFF79D
:102A7000C0FF8020D54914310860FFF7BAFF40201D
:102A8000D24910310860FFF7B4FF8020CF491031E0
:102A90000860FFF7AEFF00BD00B54020CB49143100
:102AA0000860FFF7A6FF8020C84914310860FFF7CF
:102AB000A0FF4020C54910310860FFF79AFF402071
:102AC000C24914310860FFF794FF00BD00B54020F3
:102AD000BE4914310860FFF78CFF8020BB491031DC
:102AE0000860FFF786FF4020B84910310860FFF703
:102AF00080FF4020B54914310860FFF77AFF00BD20
:102B000000B54020B14914310860FFF772FF802002
:102B1000AE4910310860FFF76CFF4020AB4910311F
:102B20000860FFF766FFA9480830006800F08000E1
:102B300038B14020A54914310860FFF75AFF002042
:102B400000BD4020A14914310860FFF752FF012069
:102B5000F6E700B5024608231BE040209B491431EC
:102B60000860FFF746FF02F0800020B180209749FF
:102B70001031086003E08020944914310860500649
:102B8000020EFFF736FF4020904910310860FFF732
:102B900030FF1800A3F10101CBB2DED140208B49F8
:102BA0001431086000BD00B5082300228020874949
:102BB0001031086015E05006020E402083491431A0
:102BC0000860FFF716FF4020804910310860FFF7CA
:102BD00010FF7E480830006800F0800008B142F025
:102BE00001021800A3F10101CBB2E4D140207749E2
:102BF00014310860104600BD70B506460C461546F7
:102C0000FFF705FF08B9002070BD3046FFF7A1FFB0
:102C1000FFF776FF18B9FFF725FF0020F4E72046FD
:102C2000FFF797FFFFF76CFF2846FFF792FFFFF7CC
:102C300067FFFFF717FF0120E6E770B504460D4672
:102C4000FFF7E5FE08B9002070BD2046FFF781FFC1
:102C5000FFF756FF30B9FFF705FF01205C49087008
:102C60000020F1E72846FFF774FFFFF749FFFFF761
:102C7000CEFE611CC8B2FFF76CFFFFF741FFFFF704
:102C800092FF0646FFF722FFFFF7ECFE3046DBE738
:102C900070B505460E46FFF7BAFE08B9002070BDB4
:102CA0002846FFF756FFFFF72BFF30B9FFF7DAFE94
:102CB0000120474908700020F1E73046FFF749FF3F
:102CC000FFF71EFFFFF7A3FE691CC8B2FFF741FF25
:102CD000FFF716FF00240CE0FFF765FF3D4908559C
:102CE000052C02D1FFF7F2FE01E0FFF7D5FE601CD4
:102CF000C4B2062CF0DBFFF7B5FE0120CFE700B52C
:102D0000142200213C20FFF777FF002202213C2003
:102D1000FFF772FF272220213020FFF76DFF00BD53
:102D200001B502E00098401E009000980028F9D1FB
:102D300008BD01B509E0002000E0401C4CF2503114
:102D40008842FAD30099491E009100990029F2D1D6
:102D500008BD06E042F6E06100BF0A00A1F10101F2
:102D6000FBD10200A0F10100F4D170472DE9FF472B
:102D700003213C20FFF78CFF16484078154909785D
:102D800040EA012000B2144908801248C078114975
:102D9000897840EA012000B2104908800D48407946
:102DA0000C49097940EA012000B20D4908800A481F
:102DB000B0F9000001F00BF806460F460748B0F9DD
:102DC000000001F004F832463B460BE0000C0140E5
:102DD00066000020510000205A0000205C00002006
:102DE0005E000020CDE9000101F0B4FF04464A4A2C
:102DF0004A4B00F00BFF80460022494B00F05FFE7B
:102E0000CDE9020101F020F8464908600846006853
:102E100000F0EEFF044622460B4643A001F092F973
:102E200044494048006801F02BF805D342493D4829
:102E3000006801F02FF801D24FF0000A3D493948EF
:102E4000006801F027F807D83C493648006801F0CF
:102E500017F801D84FF0010A38493248006801F0EC
:102E600019F807D236492F48006801F009F801D255
:102E70004FF0020A32492B48006801F00BF807D8DE
:102E800030492848006800F0FBFF01D24FF0030AE8
:102E90002C492448006800F0FDFF07D22A49214848
:102EA000006800F0EDFF01D24FF0040A26491D48EA
:102EB000006800F0EFFF07D224491A48006800F0CC
:102EC000DFFF01D24FF0050A20491648006800F0E4
:102ED000E1FF01D2012400E000241D4911480068EF
:102EE00000F0CEFF01D2012000E0002004400CB130
:102EF0004FF0060A16490B48006800F0CBFF07D2D6
:102F00000D490848006800F0BBFF01D24FF0070AE6
:102F1000504604B0BDE8F087775AF01ADCA54C4063
:102F20000080664068000020616E676C653D256624
:102F30000D0A00000000F0410000AF43000078429D
:102F40000000D242000020430000484300009643A6
:102F50000000A54308B54FF4C060FDF7F5F9062061
:102F60008DF8000000208DF801008DF8020001208E
:102F70008DF803006846FDF7ECF908BD0EB5012198
:102F80000520FDF7F9FDFFF7E5FF0120ADF808008A
:102F900028208DF80B0002A90A48FDF731FB00211B
:102FA0000846FDF743FC0120009000208DF8040046
:102FB00008208DF8050001208DF806006846FDF711
:102FC0003FFA0EBD0008014010B5C821A04800F02E
:102FD00044FD00209F49088010BD10B500209E4987
:102FE00081F8500081F8510081F8780050219A480A
:102FF00000F033FD984852300021016041600181AA
:1030000081720B3001604160018181725D38A0F8EE
:1030100068106A300160416081606A38A0F87610FB
:1030200010BD00B587B001210420FDF7A5FD0121E9
:103030004804FDF7AEFD0420ADF8180018208DF807
:103040001B0003208DF81A0006A98448FDF7D8FA62
:103050000820ADF8180004208DF81B0006A97F4851
:10306000FDF7CEFA4FF4165002900020ADF80C0098
:10307000ADF80E00ADF81000ADF814000C20ADF85E
:10308000120026208DF8040003208DF805008DF82D
:10309000060001208DF8070001A8FDF75AF902A9E2
:1030A0006F48FEF71EFD012240F225516C48FEF7E5
:1030B000B0FD01216A48FEF7A0FDFFF785FF07B0CC
:1030C00000BD044603E0214666A001F03BF8FAE7A4
:1030D000F8B50026604890F8500000286CD0002019
:1030E0005D4981F8500062A001F02CF85A4801F0C7
:1030F00029F800BF5EE046B962A1574800F0C4FC61
:10310000040055D10120FFF7DCFF641C5DA12046BF
:1031100000F0BAFC050048D0072E2ED2DFE806F0FA
:103120002D040B11181F26002A1B21464A48523035
:1031300000F07AFC22E02A1B2146684600F074FC6D
:103140001CE02A1B214644485D3000F06DFC15E070
:103150002A1B21464048683000F066FC0EE02A1B1E
:1031600021463D486A3000F05FFC07E02A1B2146FB
:103170003948763000F058FC00E000BF00BF2C4614
:103180000120354981F851009DF80000412803D104
:10319000012081F8780007E09DF80000562803D14F
:1031A00000202D4981F8780002E00220FFF789FF16
:1031B000701CC6B2062E9EDDF8BD10B5264890F8EC
:1031C0005100002842D00020234981F851002EA050
:1031D00000F0B8FF2048523000F0B4FF30A000F0FB
:1031E000B1FF1D4890F8780000282CD000201A4923
:1031F00081F878002BA000F0A5FF17485D3000F0A3
:10320000A1FF27A000F09EFF2CA000F09BFF12481A
:10321000683000F097FF22A000F094FF2CA000F08F
:1032200091FF0D486A3000F08DFF1DA000F08AFF6D
:103230002DA000F087FF0848763000F083FF18A02B
:1032400000F080FF02E02DA000F07CFF10BD000028
:10325000010100206C0000208800002000080140CF
:10326000004400404552524F5225640D0A000000B0
:103270002A2A2A2A2A2A2A2A2A2A2A2A2A2A0D0AEB
:10328000000000002C000000536176655F4461740B
:10329000612E55544354696D65203D2000000000A7
:1032A0000D0A0000536176655F446174612E6C61A4
:1032B000746974756465203D200000005361766573
:1032C0005F446174612E4E5F53203D20000000007A
:1032D000536176655F446174612E6C6F6E676974CB
:1032E000756465203D200000536176655F4461741C
:1032F000612E455F57203D200000000047505320BD
:1033000044415441206973206E6F74207573656663
:10331000756C6C210D0A0000002004E00021EF4ACA
:103320001154411C88B26428F8DB0021EC4A11706A
:1033300070472DE9F04105460027FFF7EDFF3CE01F
:10334000E8A000F022FB6420FEF7ACFF00242CE094
:10335000E248005D2B2826D1E049601C085C432828
:1033600021D1A01C085C52281DD1E01C085C452816
:1033700019D1201D085C472815D1601D085C3A282A
:1033800011D1E01D085C31280DD104F10900085C61
:10339000312804D004F10900085C352803D1012745
:1033A0000120BDE8F081601CC4B2642CD0DB701C2D
:1033B000C6B2AE4201DD0020F3E7002FC0D00020EE
:1033C000EFE738B51B208DF8000000208DF80100D4
:1033D00032230522C6A1C7A000F0E2FA04462CB9A8
:1033E000684600F0BFFA4FF0FF3038BD32230222AA
:1033F000C1A1C3A000F0D4FA044614B96FF00100D3
:10340000F3E70320FFF795FF044614B96FF00200BD
:10341000EBE732230222B6A1BCA000F0C1FA0446B9
:1034200014B96FF03200E0E70120DEE7F8B5054699
:103430000E461A208DF8000000208DF8010064234C
:103440000322B4A1B6A000F0ABFA0446012C1AD1B5
:1034500032230322B6A1B7A000F0A2FA044614B9A1
:103460006FF00D00F8BD304600F07CFAFA2301221F
:10347000B3A1684600F0B7FA044614B96FF008002B
:10348000F0E70120EEE74FF4AF73032298A1AEA05E
:1034900000F086FA044614B96FF00A00E2E76423EC
:1034A000032293A1ABA000F07BFA044614B96FF09D
:1034B0003100D7E72D21AB4800F0CFFAAAA1A948E7
:1034C00000F0F4FA2946A74800F0D2FA6423032258
:1034D00090A1A44800F064FA044614B96FF00C00FF
:1034E000C0E73220FEF7DEFE7C48FEF792FF322373
:1034F00003228FA18FA000F053FA044614B96FF095
:103500000D00AFE7304600F02DFAFA2301228CA11E
:10351000684600F068FA044614B96FF00800A1E7A5
:1035200001209FE710B500249448FEF7D7FBC4B2F2
:103530006A486B490978445469480078401C6849D6
:10354000087008460078642801DD0020087010BD6E
:1035500010B501218807FEF76CFA68B101218807D0
:10356000FEF778FA8648007818B100208449087080
:1035700002E001208249087010BD10B504462146C2
:10358000564800F081FA08B1012010BD0020FCE788
:1035900070B57CA0FEF73DFF002504E03220FEF769
:1035A00081FE681CC5B20A2DF8DB1421814800F0A9
:1035B00054FA3220FEF776FEFFF703FF0446012C93
:1035C00004D17DA17EA0FFF731FF0446012C13D169
:1035D00081A1784800F0C6FD7648FEF71AFF322038
:1035E000FEF760FE81A0FEF714FF3C48FEF711FFD6
:1035F0007DA0FEF70EFF0DE0224680A16D4800F091
:10360000B1FD6C48FEF705FF9623032238A17FA089
:1036100000F0C6F970BD2DE9F04F8BB083468946A6
:103620007DA0FEF7F6FE4FF0000A06E03220FEF71E
:1036300039FE0AF1010000F0FF0ABAF10A0FF5DBCA
:1036400014215C4800F009FA202103A800F005FAD3
:103650003220FEF727FEFFF7B4FE0446012C15D1F9
:10366000484600F0C5FB05460E46584600F0C0FB34
:1036700007463A460B4674A103A8CDE9005600F070
:1036800071FD03A94EA0FFF7D1FE0446012C13D112
:1036900051A1484800F066FD4648FEF7BAFE3220C8
:1036A000FEF700FE51A0FEF7B4FE0C48FEF7B1FE97
:1036B0004DA0FEF7AEFE0DE0224650A13D4800F0C1
:1036C00051FD3C48FEF7A5FE9623032208A14FA01A
:1036D00000F066F90BB0BDE8F08F0000C9010020D2
:1036E0007000002041542B435245473F000000002A
:1036F0004F4B000041540000524541445900000026
:1037000041542B4350494E3F000000004154453086
:1037100000000000434F4E4E454354204F4B0000E5
:1037200041542B4349505354415455530000000019
:103730003E00000041542B43495053454E44000085
:1037400053454E44204F4B0041542B434741545462
:103750003D31000041542B43474143543D312C310E
:10376000000000004102002041542B4349505354B3
:103770004152543D22544350222C0000004C004042
:103780007100002047505253B4ABCAE468656C70B6
:10379000B9A6C4DCC6F4B6AF2E2E2E2E2E2E2E2E9B
:1037A0002E2E2E2E2E2E2E2E2E2E2E2E2E2E2E0D5A
:1037B0000A0000002D02002068656C700000000007
:1037C0002234372E3130362E37342E3637222C31F4
:1037D0003030303100000000B3C9B9A6B7A2CBCD5C
:1037E000B5BD7365727665720D0A0000CAD5B5BDA8
:1037F000BBD8B8B4A3BA0D0A00000000B4EDCEF3F4
:10380000B4FAC2EB203A2025640D0A0041542B4340
:103810004950434C4F53450047505253B4ABCAE450
:10382000D7F8B1EAB9A6C4DCC6F4B6AF2E2E2E2E58
:103830002E2E2E2E2E2E2E2E2E2E2E2E2E2E2E2EA8
:103840002E2E2E0D0A0000006C6F3A25662C6C613E
:103850003A25660D0A0000001FB501210846FDF754
:1038600098F942F20F70ADF8080041F61F40ADF82C
:1038700004000020ADF80A00ADF8060001A94FF0E1
:103880008040FDF7B1FA1C208DF8000001208DF872
:1038900001008DF802008DF803006846FCF759FD21
:1038A000012211469007FDF716FE01218807FDF75A
:1038B000F7FD1FBD08B54FF4A060FCF745FD3420AF
:1038C0008DF8000001208DF801008DF802008DF8C0
:1038D00003006846FCF73DFD08BD10B586B0044600
:1038E00001211020FDF748F90121C804FDF751F925
:1038F0004FF48060ADF8140018208DF817000320F5
:103900008DF8160005A94548FCF77AFE4FF40060D3
:10391000ADF8140004208DF8170005A93F48FCF706
:103920006FFE4FF4E13001900020ADF80800ADF8D3
:103930000A00ADF80C00ADF810000C20ADF80E0038
:1039400001A93748FEF7CDF8FFF7B4FF012240F296
:1039500025513348FEF75DF901213148FEF74DF955
:1039600006B010BD10B504460BE000BF40212C4846
:10397000FEF71EFA0028F9D014F8011B2848FEF7BC
:10398000A9F920780028F0D110BD10B50446FFF742
:10399000C3FC2046FFF7E6FF22A0FFF7E3FF10BDC0
:1039A0002DE9F04180460C4615461E4600270EE0E4
:1039B0004046FFF7EAFF3046FEF774FC2046FFF76B
:1039C000DCFD10B10120BDE8F081781CC7B2AF4228
:1039D000EEDB0020F7E710B50446FFF79DFC20461C
:1039E000FFF7C0FF10BD2DE9F04180460C4615469B
:1039F0001E4600270EE04046FFF7EDFF3046FEF77B
:103A000051FC2046FFF7B9FD10B10120BDE8F0815F
:103A1000781CC7B2AF42EEDB0020F7E70010014090
:103A2000004C00400D0A000040EA01039B0703D050
:103A300009E008C9121F08C0042AFAD203E011F8ED
:103A4000013B00F8013B521EF9D27047D2B201E0AF
:103A500000F8012B491EFBD270470022F6E710B593
:103A600013460A4604461946FFF7F0FF204610BDEC
:103A7000421E12F8013F002BFBD111F8013B02F866
:103A8000013B002BF9D1704730B505462A460B465D
:103A900012F8010B13F8014B08B1A042F8D01CB189
:103AA000002802D06D1CF1E7284630BD034611F80E
:103AB000012B00F8012B002AF9D1184670472DE997
:103AC000FE4F804681EA0300C00F0C46009021F0B3
:103AD000004123F00045B8EB0200A94105D2404661
:103AE000214690461C460B46024623F000401043F8
:103AF00047D0270DC7F30A00C3F30A510290401ABA
:103B0000019040286BDAC3F3130040F4801B009847
:103B1000924620B10023D2EB030A63EB0B0B019812
:103B20005946C0F14002504600F005FA06460D46DF
:103B300050465946019A00F01DFA10EB0800614109
:103B4000002487EA115284EAE7731A4340D0009AAE
:103B500062B3019A012A4FEA075215DC001B61EBA0
:103B600002014FF0004202EA0752CDE90042001C78
:103B700041F5801132462B4600F054FA03B0BDE8FF
:103B8000F08F40462146F9E7001B61EB0201001C63
:103B900041F5801300185B412018A2F5001747EB90
:103BA000030140EAD570B6196D4111E06D084FEA86
:103BB000360645EAC0754FEA0752001B61EB020169
:103BC000001C41F5801149084FEA300000195141AD
:103BD00032462B4603B0BDE8F04F00F014BA00980F
:103BE000012240000023D0EB020263EBE073009857
:103BF00021464FEAE074B8EB000061EB0401E9E70D
:103C000083F000435BE781F0004158E72DE9FE4F68
:103C100081EA030404F0004421F0004100944FF0D5
:103C2000000B23F0004350EA01045ED052EA030483
:103C30005BD0C3F30A54C1F30A552C44A4F2F33405
:103C40000194A0FB0254C1F3130141F48011C3F3AA
:103C5000130343F4801301FB024400FB034E840A68
:103C6000970A44EA815447EA8357A4FB0768029500
:103C70008D0A05FB07854FEA932C04FB0C5427059E
:103C8000029D4FEA065847EA1637B5EB08056EEB7A
:103C9000070C870E920E47EA811742EA8312A7FBB0
:103CA0000201B6EB0B0164EB00042B0D43EA0C336D
:103CB0005E1844EB1C50DA465146E7FB0201C5F39F
:103CC00013044FEA0B3343EA14534FEA0432019CC6
:103CD00043EA0603A4F10C040294009CCDE900B46D
:103CE00000F0A0F903B0BDE8F08F00200146F9E72D
:103CF0002DE9F04D81EA030404F0004B21F000456A
:103D000014464FF0000A23F0004150EA050220D08B
:103D100054EA01021DD0C5F30A570246C5F3130346
:103D2000C1F31300C1F30A5640F4801543F4801325
:103D3000A7EB0608101BD64608F2FD3873EB05000A
:103D400002D308F1010801E092185B41B8F1000FBD
:103D500003DA00200146BDE8F08D00204FF4801109
:103D6000064684460EE0171B73EB050705D3121BAE
:103D700063EB050306434CEA010C49084FEA3000A7
:103D800092185B4150EA0107EDD152EA030012D0CC
:103D900082EA040083EA0501084305D0101BAB4109
:103DA00006D20122002306E000224FF0004302E089
:103DB0006FF0010253101AEB06004CEB085110EBA8
:103DC0000A0041EB0B01BDE8F04D00F01CB90EB547
:103DD000C10F80EAE0700844CA07002140F2334373
:103DE0008DE80E000A460B4600F01CF903B000BD3A
:103DF00000F0004230F000400AD0C10D01F56071C2
:103E0000C0F3160042EA0151C2084007114370474F
:103E1000002001467047000030B5041E71F1000417
:103E200004DB4FF00044404264EB0101141E73F1C7
:103E3000000405DB1C464FF00043524263EB0403D1
:103E4000994208BF904230BD01F0004330B421F0E8
:103E5000004150EA010206D00A0DA2F56072C1F3DA
:103E60001301002A02DC30BC00207047440F44EAF2
:103E7000C104C100E01830BC00EBC25000F08CB8A7
:103E8000002801DBC0F10040002901DBC1F1004145
:103E900081427047002801DBC0F10040002901DBAE
:103EA000C1F100418842704730B50B460146002001
:103EB0002022012409E021FA02F59D4205D303FAEC
:103EC00002F5491B04FA02F52844151EA2F101026D
:103ED000F1DC30BD2DE9F05F0546002092469B469F
:103EE00088460646814640241BE028464146474610
:103EF000224600F02FF853465A46C01A914110D37B
:103F000011461846224600F016F82D1A67EB0108F4
:103F10004F4622460120002100F00DF817EB000962
:103F20004E41201EA4F10104DFDC484631462A46FA
:103F30004346BDE8F09F202A04DB203A00FA02F154
:103F4000002070479140C2F1200320FA03F3194387
:103F500090407047202A04DB203A21FA02F0002129
:103F6000704721FA02F3D040C2F120029140084389
:103F700019467047202A06DBCB17203A41FA02F097
:103F800043EAE07306E041FA02F3D040C2F12002B6
:103F900091400843194670470029A8BF7047401C4C
:103FA000490008BF20F00100704710B4B0FA80FC4F
:103FB00000FA0CF050EA010404BF10BC704749B18C
:103FC000CCF1200421FA04F411FA0CF118BF0121FC
:103FD00021430843A3EB0C01CB1D4FEA00614FEADC
:103FE000102042BF002010BC704700EBC3501044AB
:103FF0000029A4BF10BC7047401C490008BF20F036
:10400000010010BC704710B5141E73F1000408DAEB
:10401000401C41F1000192185B411A4301D120F08C
:10402000010010BD2DE9F04D92469B4611B1B1FA49
:1040300081F202E0B0FA80F220329046FFF77BFF77
:1040400004460F4640EA0A0041EA0B0153465A462D
:10405000084313D0114653EA010019D0C8F14002B9
:104060005046FFF777FF05460E46504659464246F2
:10407000FFF761FF084305D0012004E020463946E0
:10408000BDE8F08D0020054346EAE0762C43374337
:104090000A986305E40AA0EB08000022FD0A44EA3E
:1040A00047540A3002D500200146E9E701051019FE
:1040B0006941DDE9084500196941BDE8F04DA2E715
:1040C00070B521F0004303430CD0C1F30A5500241E
:1040D000D5EB040564EB0403D617AD1AB34102DB3C
:1040E0000020014670BD201841EB025170BDC1F3A4
:1040F0000A52C1F3130140F2FF3341F480119A4296
:1041000002DA00200146704740F233439A42A2F29D
:10411000334202DC5242FFF71DBFFFF70CBF000025
:10412000064C074D06E0E06840F0010394E8070004
:1041300098471034AC42F6D3FBF7FEFF784F0008E7
:10414000984F00080FB4054B10B503A9044A029814
:1041500000F054F910BC5DF814FB0000D9230008EE
:10416000300000200FB4084B10B504A902AA039830
:1041700000F044F9044602A9002000F0D6FC2046D5
:1041800010BC5DF814FB00002B4B0008490050EAFE
:10419000C12018BF04204A0D18BF40F0010040F2B2
:1041A000FF72B2EB515F08BF40F00200012808BF68
:1041B000052070472DE9F0414F1E00EBC701044672
:1041C000D1E9000115461E4637F006020DD02A46F9
:1041D0003346FFF71BFD7F1E04EBC703D3E9002323
:1041E000FFF76DFC37F00602F1D1022F25D0042F26
:1041F00013D0062F18BFBDE8F0812A463346FFF7DB
:1042000005FDD4E90A23FFF75AFC2A463346FFF797
:10421000FDFCD4E90823FFF752FC2A463346FFF79A
:10422000F5FCD4E90623FFF74AFC2A463346FFF79C
:10423000EDFCD4E90423FFF742FC2A463346FFF79E
:10424000E5FCD4E90223FFF73AFC2A463346FFF7A0
:10425000DDFCD4E90023BDE8F041FFF730BC0122CA
:10426000FFF72EBFFFF72BBC024A00201107FFF714
:1042700027BF000001FDFFFF02E008C8121F08C1B0
:10428000002AFAD170477047002001E001C1121FD7
:10429000002AFBD1704700002DE9FF5FDDE9022015
:1042A000010DDDF838B0024318D044F61050A1F2E9
:1042B000FF3141430D140F98012820D0A5EB0B00CE
:1042C000401C5FEA000A4FF00004474EDFF81C91E3
:1042D000A046504616D5CAF1000728E00F980124E1
:1042E00043A2012808D0002100980F9BC0E90021BB
:1042F000C0E90243BDE8FF9F6FEA0B01F4E7CBF191
:104300000000DEE7074612E0F80707D022463346F2
:1043100040464946FFF77AFC8046894622463346A6
:1043200010461946FFF772FC04460E467F10002F18
:10433000EAD1DDE90201BAF1000F42464B4602DA4A
:10434000FFF764FC01E0FFF7D3FC04460E460022B1
:10435000284BFFF761FD03D84FF0FF30014607E01F
:104360000022254B20463146FFF7A9FBFFF7BFFE91
:10437000102409E0002C0ADB0A220023FFF7AAFD23
:10438000019B30321A55641E50EA0102F2D1641CBE
:10439000019AC4F1110314440F9A012A03D0012297
:1043A00008430DD10AE0084304D000204FF0110B60
:1043B0000F9080E7A3EB0B056D1E0DE05B4504DD60
:1043C0004FF0000205F1010504E003DA4FF00002AE
:1043D000A5F10105002AECD000980F99C0E902313F
:1043E000C0E9004586E70000000024400000F03FDF
:1043F000300000000000F0430000E03F2DE9FF4FD7
:1044000095B09B468946064600250FE2252877D1C0
:1044100000242746F84A0121059400E0044316F8D9
:10442000013F203B01FA03F01042F7D130782A28EF
:1044300011D06FF02F033078A0F13002092A16D87E
:10444000059A44F0020402EB820203EB420210449C
:10445000761C0590EFE759F8042B0592002A03DA41
:10446000504244F40054059044F00204761C307825
:104470002E2816D116F8010F44F004042A280DD076
:104480006FF02F023078A0F13003092B09D807EB29
:10449000870302EB4303C718761CF3E759F8047B44
:1044A000761C30786C280FD006DC4C2817D0682892
:1044B0000DD06A2814D104E0742810D07A280FD1C6
:1044C0000DE044F400140AE044F4801401E044F4E4
:1044D00040147278824202D104F58014761C761C56
:1044E000307866280BD013DC582877D009DC0028F8
:1044F00075D04528F6D04628F4D047281AD19DE13A
:1045000018E0632835D0642879D0652812D195E168
:10451000702873D008DC6728F1D069286FD06E2826
:104520000DD06F2806D1B5E073282CD0752875D032
:10453000782874D05A46179990476D1C75E1C4F3DA
:104540000250022809D003280DD0D9F80010042801
:104550000DD00D6009F1040967E1D9F80010EA17E0
:10456000C1E90052F6E7D9F800100D80F2E70D70AE
:10457000F0E719F8041B8DF8001000208DF80100F9
:10458000EA46012003E059F804AB4FF0FF30610721
:104590004FF0000102D40DE008F101018846B94254
:1045A0000FDA8045F8DB1AF808100029F4D108E08A
:1045B00008F1010188468142FADB1AF80810002947
:1045C000F6D105985B46A0EB080721463846179AB6
:1045D00000F094FA284400EB080507E04DE029E1DB
:1045E0000DE01AF8010B5A4617999047B8F10108E7
:1045F000F7D25B4621463846179A13E142E00A2279
:104600000092C4F302524FF0000A022A08D059F86F
:1046100004CB032A4FEAEC710AD00DE029E02AE02E
:1046200009F1070121F00702F2E802C1914609E011
:104630000FFA8CFC4FEAEC71042A03D14FFA8CFC80
:104640004FEAEC71002907DA0A460021DCF1000C80
:1046500061EB02012D2202E0220504D52B228DF808
:104660000420012203E0E20701D02022F7E7904670
:1046700059E00A2102E010220DE010214FF0000A5B
:1046800000910BE010224FF0000A44F004040827C8
:10469000009203E008224FF0000A0092C4F3025295
:1046A000022A05D059F804CB0021032A08D009E0DA
:1046B00009F1070121F00702F2E802C1914605E085
:1046C0001FFA8CFC042A01D10CF0FF0C4FF00008FB
:1046D000220728D5702806D0009B83F0100353EAE8
:1046E0000A0305D00EE040228DF80420012208E0E4
:1046F0005CEA010206D030228DF804208DF8050016
:1047000002229046009B83F0080353EA0A030AD171
:104710005CEA010201D1620705D530228DF8042040
:104720004FF001087F1E582804D034A003900EA833
:1047300002900DE036A0F9E753466046009AFFF775
:10474000C9FB84460398825C0298401E0290027066
:104750005CEA0100F0D1029806A9081A00F1200ACB
:10476000600702D524F4803400E00127574502DDBC
:10477000A7EB0A0000E0002000EB0A01009005987A
:104780004144401A0590E00306D45B462146179A3F
:10479000059800F0B3F90544002706E001A85A4641
:1047A000C05D179990476D1C7F1C4745F6DBE00301
:1047B0000CD55B462146179A059800F09FF90544F1
:1047C00004E030205A46179990476D1C0099481E06
:1047D00000900029F5DC08E0029802995A4600781A
:1047E000491C0291179990476D1CBAF10001AAF17A
:1047F000010AF1DC65E100000928010030313233A3
:10480000343536373839616263646566000000000C
:1048100030313233343536373839414243444546F6
:104820000000000000F058F90544761C307800289C
:104830007FF4ECAD19B02846BDE8F08F620700D4D4
:10484000062709F1070222F0070CFCE80223E146E3
:1048500003F000485FEA080C02D00FF2702C0DE064
:104860005FEA045C02D50FF2682C07E05FEAC47CC3
:1048700002D00FF2602C01E0AFF2700C4FF0FF3865
:1048800023F00043CDF850C065280CD006DC452845
:1048900009D046281DD047283DD13DE0662818D0D4
:1048A00067287ED138E00021112F01DB112000E0C4
:1048B000781CCDE9000106A90EA8FFF7EDFCDDE9A3
:1048C0000F010E9A03910021009207F1010A049151
:1048D0004DE04FF000400097CDE9011006A90EA869
:1048E000FFF7DAFCDDE90F0203920E9B119900221B
:1048F000DDF80CA00093049211B9791C00EB010AB9
:10490000B7EB0A0004D4C0F1FF3007F1010A0490AC
:10491000AAEB0700019044E0012F00DA01270021F3
:10492000112F01DD112000E03846CDE9000106A974
:104930000EA8FFF7B1FCDDE90F010E9A03910021EB
:1049400004910092BA4621070CD40399514500DA2C
:104950008A46BAF1010F05DD009AAAF10101515C06
:10496000302908D0B84202DA10F1040F06DA01212A
:10497000CDE9011015E0AAF10101E9E7002805DC05
:10498000049901440491AAEB000102E0411C514545
:1049900000DD8A460499401A401C01904FF0004007
:1049A0000290200704D40198504501DBCDF8048023
:1049B00000208DF84F0002980DF14F07B0F1004F25
:1049C00025D02B200E9002984FF0020800280CDA18
:1049D000404202902D200E9007E00A210298FFF736
:1049E00063FA3031029007F8011DB8F10001A8F117
:1049F0000108F2DC02980028EFD1791E0E980870A9
:104A0000307800F0200040F0450007F8020D12A8B1
:104A1000C01B00F107081498007800B1012000EBDA
:104A20000A01019801EBE07105984144401A401ECB
:104A30000590E00306D45B462146179A059800F0DE
:104A40005DF805441498007818B15A4617999047B4
:104A50006D1CE00324D55B462146179A059800F0AB
:104A60004DF805441CE00498002807DBDDE903014C
:104A7000884203DD0098405C179901E017993020C7
:104A80005A469047049805F10105401C049001988E
:104A9000401E019004D12E205A46179990476D1C54
:104AA000BAF10001AAF1010ADDDC05E017F8010BFB
:104AB0005A46179990476D1CB8F10001A8F10108FA
:104AC000F4DC5B462146179A0598ABE62D00000002
:104AD0002B000000200000002DE9F04104460025D5
:104AE0001E461746880404D405E039462020B04706
:104AF0006D1C641EF9D52846BDE8F0812DE9F04112
:104B0000044600251E469046C80301D5302700E024
:104B10002027880404D505E041463846B0476D1C7F
:104B2000641EF9D52846BDE8F0810A68531C0B6065
:104B3000107070472DE9F84F04460D4621F00040F3
:104B400000917349814211DC7249884201DC06D12F
:104B50002CB120462946BDE8F84FFFF780BB6E48D0
:104B6000002DCCBF6D496E49BDE8F88F6D4981427B
:104B700011DD6D498142D8BF4FF0FF366DDD204613
:104B80002946FFF703FB042808BFFFF76DFB20460B
:104B90002946BDE8F88F6549654F25F000458142FB
:104BA00033DD6449814219DD002632464FF08043EF
:104BB00020462946FEF783FF80468A46012220468A
:104BC0002946FFF77DFA00223B46FFF719F84246D7
:104BD0005346FFF78DF804460D463EE001260022BD
:104BE000BA463B4620462946FEF769FF80460F46F7
:104BF0000022534620462946FFF702F842463B462C
:104C0000FFF776F804460D4627E04B4981421BDD4D
:104C1000DFF828A102260022534620462946FEF747
:104C2000F5FF00223B46FEF74AFF80460F46002272
:104C3000534620462946FEF7E3FF42463B46FFF730
:104C400057F804460D4608E0032622462B4600206E
:104C50003B49FFF74DF804460D4622462B461046C9
:104C60001946FEF7D3FF8B46824602460B46FEF7F7
:104C7000CDFF07460246334888460B460621784456
:104C8000FFF798FA52465B46FEF7C0FF82462E4871
:104C90008B463A46434605217844FFF78BFA3A465D
:104CA0004346FEF7B3FF02460B46002E50465946D8
:104CB0000CDAFEF704FF22462B46FEF7A7FF01B0F1
:104CC00022462B46BDE8F04FFEF79DBFFEF7F7FEEC
:104CD00022462B46FEF79AFF1C4A7A4402EBC60393
:104CE000D3E90023FEF78CFF22462B46FEF788FF10
:104CF000174A7A4402EBC603D3E90023FEF783FF89
:104D0000009A002AB8BF81F00041BDE8F88F00008A
:104D1000000010440000F07F182D4454FB21F93F9F
:104D2000FB21F9BF0000DC3F0000203E0000F33F04
:104D30000000F03F0000E63F008003400000F83F25
:104D40000000F0BFBE0200007C0200001A0200005A
:104D5000E20100002DE9F04D9446CCF1000423F06F
:104D600000464CEA0404524F46EAD4749A468846F8
:104D700021F00042BC4206D8454240EA050442EA1E
:104D8000D474BC4204D9BDE8F04D6246FFF76ABA5C
:104D9000AAF14055A5F17F6555EA0C040BD0022419
:104DA00004EAAA74434DDFF810E144EAD87452EAE9
:104DB000000B04D00CE0BDE8F04DFFF7BBBE002CAB
:104DC00014BF012CBDE8F08D022C30D0032C32D062
:104DD00056EA0C0B0AD0BE4220D1BA4209D126F0C5
:104DE000804622F080423346114617E000291ADB44
:104DF00025E0DFF8C8B0FB44002C04BFDBE900016C
:104E0000BDE8F08D012C02BFDBE9000181F000411B
:104E1000BDE8F08D022C0AD0032C0CD0BA4212D17E
:104E2000B8F1000F0BDA23482549BDE8F08D28467C
:104E30002449BDE8F08D28467146BDE8F08D1D4837
:104E40002149BDE8F08D921B12153C2AC4BF1948B8
:104E50001D490EDCBAF1000FBEBF12F13C0F00205D
:104E6000014606DB6246FEF743FF21F00041FFF7F3
:104E700061FE002C08BFBDE8F08D012C04BF81F05D
:104E80000041BDE8F08D114A114B022C07D0FEF70E
:104E9000B7FE2A46BDE8F04D0A4BFEF7B1BEFEF75D
:104EA000AFFE2A46BDE8F04D064BFEF7ACBE000053
:104EB0000000F07F182D4454FB2109C0760100004A
:104EC000FB21F9BFFB210940FB21F93F075C1433AB
:104ED00026A6A13C000000004FBB610567ACDD3F8A
:104EE000182D4454FB21E93F9BF681D20B73EF3F11
:104EF000182D4454FB21F93FE2652F227F2B7A3C89
:104F0000075C143326A6813CBDCBF07A8807703C41
:104F1000075C143326A6913CC4EB98999999C9BFB4
:104F2000711623FEC671BCBF6D9A74AFF2B0B3BFE9
:104F30009AFDDE522DDEADBF2F6C6A2C44B4A2BFA9
:104F40000D5555555555D53FFF8300922449C23F15
:104F50006E204CC5CD45B73F513DD0A0660DB13F49
:104F6000EB0D76244B7BA93F11DA22E33AAD903F5B
:104F70000000000000000000984F00080000002022
:104F800074000000784200080C50000874000020F3
:104F9000FC0500008842000800A24A04000000004E
:104FA00000000000010203040607080900000000D9
:104FB00001020304010203040607080902040608AB
:104FC00000000000000000000000000000000000E1
:104FD000000000000000000000009600000000003B
:104FE00000000000000000000000000000000000C1
:104FF00000000000000000000000000000000000B1
:0C500000000000000000000000010000A3
:0400000508000131BD
:00000001FF
