:020000040800F2
:10000000481900204501000851210008532100082B
:100010005D21000861210008652100080000000042
:10002000000000000000000000000000692100083E
:100030006B210008000000006D2100086F210008FE
:100040005F0100085F0100085F0100085F01000810
:100050005F0100085F010008AD2300085F01000890
:100060005F0100085F0100085F0100085F010008F0
:100070005F0100085F0100085F0100085F010008E0
:10008000792100085F0100085F0100085F01000896
:100090005F0100085F0100085F0100085F010008C0
:1000A0005F0100085F0100085F0100085F010008B0
:1000B0005F01000841220008812100085F0100085B
:1000C0005F0100085F0100085F0100085F01000890
:1000D0005F010008772100085F0100086130000817
:1000E0005F0100085F0100085F0100085F01000870
:1000F0005F0100085F0100085F0100085F01000860
:100100005F0100085F0100085F0100085F0100084F
:100110005F0100085F0100085F0100085F0100083F
:100120005F0100085F0100085F0100085F0100082F
:10013000DFF80CD005F0ECFF00480047B9200008BC
:10014000481900200648804706480047FEE7FEE7BA
:10015000FEE7FEE7FEE7FEE7FEE7FEE7FEE7FEE777
:1001600047020008310100080CB500200190009002
:100170006C48006840F480306A49086000BF6948F4
:10018000006800F4003000900198401C0190009835
:1001900018B90198B0F5A06FF1D16248006800F479
:1001A000003010B10120009001E000200090009884
:1001B000012843D15C48006840F010005A490860AB
:1001C0000846006820F0030008600846006840F018
:1001D0000200086053484068524948600846406839
:1001E00048600846406840F48060486008464068BF
:1001F00020F47C1048600846406840F4E8104860ED
:100200000846006840F08070086000BF45480068FC
:1002100000F000700028F9D04248406820F0030048
:10022000404948600846406840F00200486000BF0E
:100230003C48406800F00C000828F9D10CBD10B50E
:10024000FFF792FF10BD10B53648006840F001007E
:1002500034490860084640683449084031494860DC
:1002600008460068324908402E4908600846006880
:1002700020F4802008600846406820F4FE004860B2
:100280004FF41F008860FFF7DAFF4FF00060294944
:10029000086010BD10B5002100200022214B5B68D2
:1002A00003F00C0121B1042906D0082928D107E068
:1002B000214B224C236027E01F4B204C236023E07E
:1002C000184B5B6803F47010164B5B6803F48032C4
:1002D000022303EB904022B9194B4343174C236090
:1002E0000DE0104B5B6803F4003323B1144B434320
:1002F000124C236003E0104B4343104C236003E097
:100300000D4B0E4C236000BF00BF064B5B68C3F370
:1003100003130C4CE15C094B1B68CB40074C23607A
:1003200010BD000000100240002002400000FFF855
:10033000FFFFF6FE08ED00E000127A00000000204A
:1003400000093D000400002031490143314A116099
:10035000704770B5002100230F22C47804B32D4CE0
:10036000246804F4E064C4F5E064210AC1F10403E4
:10037000CA40447804FA03F1847814402143090107
:10038000254C0678A155047804F01F050124AC40E3
:1003900005786D11AD0005F1E025C5F8004109E0D3
:1003A000047804F01F050124AC401C4D067876113A
:1003B00045F8264070BD1A4A0A400243154B1B1FE0
:1003C0001A60704739B1134A121D12680243114B6B
:1003D0001B1D1A6006E00F4A121D126882430D4B66
:1003E0001B1D1A607047042808D14FF0E0210969ED
:1003F00041F004014FF0E022116107E04FF0E021ED
:10040000096921F004014FF0E022116170470000FA
:100410000000FA050CED00E000E400E080E100E0FF
:1004200080FFFF1F01684FF6FE721140016000213E
:10043000016041608160C1608D49884208D18C496A
:100440000839496841F00F01894A083A51608AE049
:1004500087491431884208D185490839496841F0F3
:10046000F001834A083A51607DE081492831884291
:1004700008D17F490839496841F470617C4A083ADB
:10048000516070E07A493C31884208D17849083996
:10049000496841F47041764A083A516063E0744912
:1004A0005031884208D172490839496841F47021B5
:1004B0006F4A083A516056E06D496431884208D16C
:1004C0006B490839496841F47001694A083A51603A
:1004D00049E067497831884208D165490839496857
:1004E00041F07061624A083A51603CE061498842DB
:1004F00006D1011F096841F00F01021F116032E0AF
:100500005C491431884208D15A49091F096841F0F1
:10051000F001584A121F116025E0564928318842DF
:1005200008D15449091F096841F47061514A121FEA
:10053000116018E04F493C31884208D14D49091FEC
:10054000096841F470414B4A121F11600BE04949A0
:100550005031884207D14749091F096841F4702189
:10056000444A121F1160704710B50022026847F616
:10057000F0739A430C6A8B6823430C6923434C69DC
:1005800023438C692343CC6923434C6A23438C6AFD
:1005900023431A430260CB6843600B6883604B6857
:1005A000C36010BD0021016041608160C1600161D4
:1005B00041618161C161016241628162704721B123
:1005C000026842F00102026004E002684FF6FE7326
:1005D0001A40026070471AB103680B43036002E0DF
:1005E00003688B4303607047416070470146486869
:1005F00080B2704701460020002201F080531BB1F9
:100600001C4B083B1A6802E0194B083B1A6802EAC7
:1006100001030BB1012000E00020704700F0805181
:1006200019B11449091F086002E0114908394860EE
:10063000704701460020002201F080531BB10D4B92
:10064000083B1A6802E00A4B083B1A6802EA0103F9
:100650000BB1012000E00020704700F0805119B17B
:100660000449091F086002E00149083948607047E1
:100670000800024008040240002044490860091DA7
:100680000860091D0860091D086041483F49143190
:100690000860704700213D498279002A3AD00A4615
:1006A000126803689A430B461A600A1D12680368B1
:1006B0009A430B1D1A60027911440A6803681A43B1
:1006C0000A60324A0832126803689A432F4B083393
:1006D0001A601A1D126803689A432C4B0C331A6077
:1006E0004279102A0ED11A1F126803681A43274B49
:1006F00008331A601A1D126803681A43234B0C331F
:100700001A600DE02149427911440A6803681A43CE
:100710000A6005E0027911440A6803689A430A6096
:1007200070470021016001710C214171002181712C
:1007300070471649103109680143144A103211609C
:10074000704701460020114A143212680A400AB16B
:10075000012000E0002070470C4914310860704708
:10076000014600200022094B1B6803EA0102074BE7
:1007700014331B680B4013B10AB1012000E00020C4
:1007800070470249143108607047000000040140BE
:10079000FFFF0F0010B50446CC48844208D1012168
:1007A000042000F02DFB0021042000F029FB46E08E
:1007B000C748844208D10121082000F021FB002114
:1007C000082000F01DFB3AE0C248844208D1012114
:1007D000102000F015FB0021102000F011FB2EE08E
:1007E000BD48844208D10121202000F009FB0021EE
:1007F000202000F005FB22E0B848844208D1012106
:10080000402000F0FDFA0021402000F0F9FA16E047
:10081000B348844208D10121802000F0F1FA002180
:10082000802000F0EDFA0AE0AE48844207D10121B1
:10083000801500F0E5FA0021A01500F0E1FA10BDE6
:1008400010B50121084600F0DBFA0021012000F07C
:10085000D7FA10BD2DE9F041024600250026002000
:1008600000230024002791F803C00CF00F0591F835
:1008700003C00CF0100CBCF1000F03D091F802C0C3
:100880004CEA050591F800C0BCF1000F31D01468A6
:1008900000202BE04FF0010C0CFA00F3B1F800C07F
:1008A0000CEA03069E4220D183004FF00F0C0CFA95
:1008B00003F7BC4305FA03FC4CEA040491F803C0B7
:1008C000BCF1280F06D14FF0010C0CFA00FCC2F865
:1008D00014C00AE091F803C0BCF1480F05D14FF0F5
:1008E000010C0CFA00FCC2F810C0401C0828D1D33F
:1008F0001460B1F800C0BCF1FF0F34DD5468002073
:100900002EE000F1080C4FF0010808FA0CF3B1F8E2
:1009100000C00CEA03069E4221D183004FF00F0C69
:100920000CFA03F7BC4305FA03FC4CEA040491F803
:1009300003C0BCF1280F05D100F1080C08FA0CF82F
:10094000C2F8148091F803C0BCF1480F07D100F140
:10095000080C4FF0010808FA0CF8C2F81080401C8F
:100960000828CED35460BDE8F0814FF6FF710180B6
:10097000022181700421C1707047024600209368F3
:100980000B400BB1012000E0002070470146886851
:1009900080B2704702460020D3680B400BB10120A3
:1009A00000E0002070470146C86880B270470161CE
:1009B0007047416170470AB1016100E041617047D1
:1009C000C16070474FF480320A4382618161826165
:1009D00082698269704702460020434B18684FF6CF
:1009E0008073184040EA021008433F4B186070477C
:1009F0003E49C8617047F0B50A4600230024002133
:100A0000002500F00046B6F1004F02D1364EF169E4
:100A100001E0354E7168C0F3034583B200F440161F
:100A2000B6F5401F08D121F070612F4E766826F090
:100A300070662D4F7E6012E000F48016B6F5801FC0
:100A400006D1032606FA05F4A14341F0706106E0E1
:100A5000460D360103FA06F6B14341F0706122B14A
:100A6000460D360103FA06F6314300F00046B6F1B2
:100A7000004F02D11C4EF16101E01B4E7160F0BDD0
:100A800030B500228B071C0F0F2303FA04F2164B1C
:100A900008338C1053F824309343134C08348D10D2
:100AA00044F8253023468C1053F824308C07240F4B
:100AB00000FA04F423430C4C08348D1044F825301C
:100AC00030BD0A49DC310860704700000008014071
:100AD000000C0140001001400014014000180140CA
:100AE000001C0140002001400000014000002042A5
:100AF000DF48006840F00100DD49086008464068B2
:100B0000DC490840DA49486008460068DA4908408C
:100B1000D74908600846006820F48020086008462D
:100B2000406820F4FE0048604FF41F008860704762
:100B3000CF49096821F48031CD4A11601146096816
:100B400021F480211160B0F5803F03D0B0F5802FF3
:100B50000ED106E0C649096841F48031C44A1160EB
:100B600007E0C349096841F4A021C14A116000E0CF
:100B700000BF00BF704710B50146002200230020CF
:100B80004A11012A02D1BA4C236806E0022A02D196
:100B9000B74C236A01E0B64C636A01F01F020124DE
:100BA00094401C400CB1012000E0002010BD38B57D
:100BB000002000900024002500BF3120FFF7DBFF5C
:100BC00005460098401C00900098B0F5A06F01D039
:100BD000002DF2D03120FFF7CEFF08B1012400E054
:100BE0000024204638BD01460020A14A106820F0AC
:100BF000F80040EAC10010607047A04908607047E3
:100C0000024600209A4B586820F47C1042EA010307
:100C10001843974B586070479849086670470146DB
:100C20000020934A506820F003000843506070474A
:100C30008F48406800F00C007047014600208C4A45
:100C4000506820F0F00008435060704701460020D3
:100C5000874A506820F4E0600843506070470146BE
:100C60000020834A506820F4605040EAC100506080
:100C7000704729B17E4A527A02437D4B5A7204E092
:100C80007B4A527A82437A4B5A7270477B49D831F9
:100C90000860704701460020754A506820F44040C3
:100CA0000843506070470021714A20321170704A29
:100CB00082F82010012802D004280AD104E0012182
:100CC0006B4A2032117005E00521694A203211700B
:100CD00000E000BF00BF7047694908607047644981
:100CE000096A0143624A11627047654944390860E4
:100CF000704730B500210022002400235C4D6D6850
:100D000005F00C0121B1042905D0082923D105E003
:100D10005C4D056022E05B4D05601FE0544D6D6841
:100D200005F47012524D6D6805F48034022505EB10
:100D300092421CB9544D554305600BE04C4D6D6813
:100D400005F400351DB1504D5543056002E04D4D91
:100D50005543056002E04B4D056000BF00BF444DA8
:100D60006D6805F0F0010909484D6B5C0568DD40D0
:100D700045603F4D6D6805F4E061090A434D6B5CC9
:100D80004568DD4085603A4D6D6805F46051C90ADB
:100D90003E4D6B5C4568DD40C560354D6D6805F4C2
:100DA0004041890B3A4D6B5CC568B5FBF3F50561B5
:100DB00030BD29B12E4A526902432D4B5A6104E0DD
:100DC0002B4A526982432A4B5A61704729B1284AFB
:100DD00092690243264B9A6104E0254A9269824354
:100DE000234B9A61704729B1214AD2690243204BB3
:100DF000DA6104E01E4AD26982431D4BDA61704712
:100E000029B11B4AD2680243194BDA6004E0184A40
:100E1000D2688243164BDA60704729B1144A1269CE
:100E20000243134B1A6104E0114A12698243104BCA
:100E30001A61704712494039086070470F49C86409
:100E400070470B49C87170470948406A40F080708C
:100E500007494862704701460020054A92680A40E7
:100E60000AB1012000E000207047014988727047F4
:100E7000001002400000FFF8FFFFF6FE00004242B3
:100E80008004424200127A0000093D001400002054
:100E90002400002010B50446FE48844208D10121F8
:100EA000C014FFF7ADFF0021E014FFF7A9FFC4E075
:100EB000B4F1804F08D101210846FFF7AEFF0021B1
:100EC0000120FFF7AAFFB8E0F348844208D10121CE
:100ED0000220FFF7A2FF00210220FFF79EFFACE0F7
:100EE000EE48844208D101210420FFF796FF00213B
:100EF0000420FFF792FFA0E0E948844208D10121D5
:100F00000820FFF78AFF00210820FFF786FF94E002
:100F1000E448844208D101211020FFF77EFF002120
:100F20001020FFF77AFF88E0DF48844208D10121D2
:100F30002020FFF772FF00212020FFF76EFF7CE0EA
:100F4000DA48844208D101214014FFF759FF0021FB
:100F50006014FFF755FF70E0D548844209D10121A4
:100F6000C804FFF74DFF00214FF40020FFF748FFB2
:100F700063E0D048844209D101210805FFF740FF12
:100F800000214FF48010FFF73BFF56E0CA4884422F
:100F900009D101214805FFF733FF00214FF400106C
:100FA000FFF72EFF49E0C548844208D101214020C7
:100FB000FFF733FF00214020FFF72FFF3DE0C0483F
:100FC000844208D101218020FFF727FF00218020E3
:100FD000FFF723FF31E0BB48844208D1012180158F
:100FE000FFF71BFF0021A015FFF717FF25E0B6480C
:100FF000844209D101210804FFF702FF00214FF4C8
:101000008030FFF7FDFE18E0B048844209D101218D
:101010004804FFF7F5FE00214FF40030FFF7F0FE23
:101020000BE0AB48844208D101218804FFF7E8FEB9
:1010300000214FF48020FFF7E3FE10BD002202885C
:10104000944B98420ED0994B98420BD0B0F1804F00
:1010500008D0914B984205D0904B984202D0904BCB
:10106000984204D14FF68F731A404B881A438D4B28
:10107000984207D08C4B984204D04FF6FF431A4059
:10108000CB881A4302808B8883850B880385814B2C
:1010900098420BD0854B984208D08B4B984205D094
:1010A0008A4B984202D08A4B984201D10B7A038630
:1010B00001238382704770B5002400220023058C31
:1010C0004FF6FE7635400584028C8388048B4FF6FC
:1010D0008F752C40B51E2C400D882C43751E2A4060
:1010E0000D892A434D882A436A4DA8420BD06F4D83
:1010F000A84208D0744DA84205D0744DA84202D031
:10110000734DA84213D14FF6F7752A404D892A43F3
:101110004FF6FB752A408D882A434FF6FF652B401A
:101120004FF6FF552B408D892B43CD892B43838070
:101130000483CD888586028470BD70B500240022AA
:101140000023058C4FF6EF7635400584028C8388AA
:10115000048B48F6FF752C404FF6FF452C400D8858
:101160004FF6FF7606EA05252C434FF6DF752A4039
:101170000D8906EA05152A434D8806EA05152A4316
:10118000444DA84202D0494DA8421DD14FF67F756B
:101190002A404D894FF6FF7606EA05152A434FF699
:1011A000BF752A408D8806EA05152A434FF6FF359C
:1011B0002B404FF2FF752B408D8906EA85052B43A6
:1011C000CD8906EA85052B4383800483CD88058776
:1011D000028470BD70B5002400220023058C4FF6F8
:1011E000FF6635400584028C8388848B4FF68F75AB
:1011F0002C404FF6FC752C400D882C434FF6FF55C4
:101200002A400D894FF6FF7606EA05252A434D88C8
:1012100006EA05252A431F4DA84202D0234DA842C5
:101220001DD14FF2FF752A404D894FF6FF7606EA31
:1012300005252A434FF6FF352A408D8806EA052505
:101240002A434EF6FF752B404DF6FF752B408D89D6
:1012500006EA05152B43CD8906EA05152B43838045
:101260008483CD888587028470BD70B500220023F9
:101270000024058C4EF6FF7635400584038C848867
:10128000828B48F6FF752A404FF6FF452A400D88AD
:1012900020E00000002C0140000400400008004055
:1012A000000C0040001000400014004000340140D9
:1012B000004C014000500140005401400018004023
:1012C000001C00400020004000400140004401405C
:1012D000004801404FF6FF7606EA05252A434DF601
:1012E000FF752B400D8906EA05352B434D8806EA2C
:1012F00005352B43FA4DA84202D0FA4DA84208D139
:101300004BF6FF752C408D894FF6FF7606EA851562
:101310002C4384808283CD88A0F84050038470BD24
:10132000828B4FF2FF331A408283828B4FF6FF731A
:1013300003EA01231A4382837047F0B50C46154631
:10134000002200210026078C4EF6FF7C07EA0C07DE
:101350000784828B018C4FF6FF7707EA043640F64C
:10136000FF473A404FF6FF7707EA05273A434FF623
:10137000FF7707EA03373A43D94FB8420ED0D94F27
:10138000B8420BD0B0F1804F08D0D74FB84205D04B
:10139000D64FB84202D0D64FB84206D14DF6FF77AD
:1013A000394046F48057394305E047F6FF57394046
:1013B00044F48057394382830184F0BD828B4FF619
:1013C000F3731A408283828B0A4382837047F0B59D
:1013D0000C461546002200210026078C4FF6FF6CB4
:1013E00007EA0C070784828B018C4FF6FF7707EA28
:1013F00004264FF60C773A404FF6FF7707EA0317BB
:101400002F433A43B64FB8420ED0B64FB8420BD036
:10141000B0F1804F08D0B44FB84205D0B34FB842B6
:1014200002D0B34FB84206D14FF6FF57394046F4C9
:101430008077394305E04FF2FF57394044F4807715
:10144000394382830184F0BD028B4FF2FF331A408F
:101450000283028B4FF6FF7303EA01231A430283D0
:101460007047F0B50C461546002200210026078C77
:101470004FF6EF7C07EA0C070784028B018C4FF6CE
:10148000FF7707EA041640F6FF473A404FF6FF772A
:1014900007EA03373A434FF6FF7707EA05273A434F
:1014A0008F4FB8420ED08F4FB8420BD0B0F1804F63
:1014B00008D08D4FB84205D08C4FB84202D08C4F27
:1014C000B84206D14FF6DF77394046F0100739436E
:1014D00005E04FF65F77394044F010073943028347
:1014E0000184F0BD028B4FF6F3731A400283028B26
:1014F0000A4302837047F0B50C46154600220021CE
:10150000068C4FF6FE773E400684028B018C4FF628
:101510000C7632407E1C06EA03162E433243704E90
:10152000B0420ED06F4EB0420BD0B0F1804F08D019
:101530006D4EB04205D06D4EB04202D06C4EB042FE
:1015400006D14FF6FD76314044F00106314305E007
:101550004FF6F576314044F00106314302830184B1
:10156000F0BD70B505460C465D4885420ED05D481D
:1015700085420BD0B5F1804F08D05B48854205D03D
:101580005A48854202D05A48854200D100E000BF47
:10159000208850B92389A28861882846FFF7ABFFCD
:1015A000E1882846FFF79EFF25E0208804280AD11D
:1015B0002389A28861882846FFF753FFE1882846DF
:1015C000FFF742FF17E0208808280AD12389A28864
:1015D00061882846FFF7FBFEE1882846FFF7EEFE0C
:1015E00009E02389A28861882846FFF7A6FEE188E2
:1015F0002846FFF795FE70BD2DE9F04105460C46E3
:1016000000260127608808B9022600E00026A0888D
:10161000012801D1022700E001272088A0B92389F1
:10162000A28861882846FFF766FFE1882846FFF711
:1016300059FF23893A4631462846FFF712FFE188D1
:101640002846FFF701FF13E02389A2886188284616
:10165000FFF707FFE1882846FFF7F6FE23893A46A1
:1016600031462846FFF747FFE1882846FFF73AFF53
:10167000BDE8F0810A884B881A438B881A43CB88CF
:101680001A430B891A434B891A438B891A43A0F8D2
:10169000442070474FF6FF71818000210180C18096
:1016A0004180017270470021018041808180C180AA
:1016B000018141818181C181704700210180418088
:1016C000012181800021C1800181704700210180BA
:1016D00041808180C180018141818181704700000A
:1016E000002C01400034014000040040000800408C
:1016F000000C004021B1028842F00102028004E0A7
:1017000002884FF6FE731A400280704731B1B0F87C
:10171000442042F40042A0F8442005E0B0F8442000
:10172000C2F30E02A0F8442070471AB183890B431C
:10173000838102E083898B43838170478182704774
:1017400041EA0203A0F8483070471AB183890B437D
:10175000838102E083898B438381704701894FF63F
:10176000F8721140018170470A46002101894FF645
:101770008F73194011430181704730B504460D46FF
:1017800029462046FFF7F0FF208940F0070020811E
:1017900030BD2DE9F04104460D4616461F46602D2A
:1017A00006D13B46012231462046FFF75AFE05E0AE
:1017B0003B46012231462046FFF79DFE2946204642
:1017C000FFF7D2FF208940F007002081BDE8F081BB
:1017D00030B50C4600210189C9B24FF6FF7505EA04
:1017E0000325154325432943018130BD2DE9F041EF
:1017F00005460E4617469846002443463A4631466B
:101800002846FFF7E5FF2C894FF6F870044044F0B6
:1018100007044FF68F70044044F070042C81BDE83B
:10182000F081F0B504460D4616461F463B4632464B
:1018300029462046FFF7CCFF208940F480402081D4
:10184000F0BD0185828270470A46002101884FF66B
:101850008F731940114301807047F0B50C4615464F
:101860001E460021002200230189028B038C4FF6C3
:10187000F877394021434FF6FC473A4040F20117D0
:101880003A434FF6DD773B404FF6FF7707EA0617FE
:101890002F433B43018102830384F0BD0A460021AC
:1018A000018B4FF68F7319401143018370470A462D
:1018B0000021018B48F6FF7319404FF6FF7303EACE
:1018C00002231943018370470A460021818B4FF69A
:1018D0008F7319401143818370470A460021818B21
:1018E00048F6FF7319404FF6FF7303EA02231943CA
:1018F0008183704721B1028842F08002028004E0B7
:1019000002884FF67F731A400280704721B18288A7
:1019100042F00402828004E082884FF6FB731A4092
:101920008280704721B1828842F00802828004E000
:1019300082884FF6F7731A408280704721B18288FF
:1019400042F00102828004E082884FF6FE731A4062
:10195000828070470A460021018B4FF6F7731940C9
:101960001143018370470A460021018B4FF2FF7338
:1019700019404FF6FF7303EA0223194301837047AE
:101980000A460021818B4FF6F7731940114381837A
:1019900070470A460021818B4FF2FF7319404FF6C2
:1019A000FF7303EA02231943818370470A4600212B
:1019B000018B4FF6FB7319401143018370470A46B0
:1019C0000021018B4FF6FF3319404FF6FF7303EAF6
:1019D00002231943018370470A460021818B4FF689
:1019E000FB7319401143818370470A460021818BA4
:1019F0004FF6FF3319404FF6FF7303EA02231943F2
:101A0000818370470A460021018B4FF67F7319408E
:101A10001143018370470A460021018BC1F30E0177
:101A20004FF6FF7303EA02231943018370470A4606
:101A30000021818B4FF67F731940114381837047DA
:101A40000A460021818BC1F30E014FF6FF7303EAB2
:101A500002231943818370470A460021018C4FF607
:101A6000FD7319401143018470470A460021018C1F
:101A70004FF6F77319401143018470470A4600215D
:101A8000018C4FF6DF7319404FF6FF7303EA021320
:101A90001943018470470A460021018C4FF67F7379
:101AA00019404FF6FF7303EA02131943018470478C
:101AB0000A460021018C4FF6FF5319404FF6FF7381
:101AC00003EA02231943018470470A460021018C6E
:101AD0004FF2FF7319404FF6FF7303EA02231943D5
:101AE000018470470A460021018C4DF6FF731940AE
:101AF0004FF6FF7303EA023319430184704730B590
:101B0000002301248C40A3B2048C9C430484048CE5
:101B100002FA01F5ADB22C43048430BD30B5002388
:101B200004248C40A3B2048C9C430484048C02FAE9
:101B300001F5ADB22C43048430BD70B503460020DE
:101B400000241846183001258D40ACB21D8CA543E9
:101B50001D8409B1082909D100EB6100056825F051
:101B6000700505600568154305600EE00D1FC5F39F
:101B70004E052844056825F4E045056005684FF6E4
:101B8000FF7606EA02263543056070BD21B1028862
:101B900042F00202028004E002884FF6FD731A4010
:101BA0000280704721B1028842F00402028004E002
:101BB00002884FF6FB731A400280704721B1828879
:101BC00042F08002828004E082884FF67F731A40E0
:101BD0008280704702884FF6F7731A4002800288AD
:101BE0000A430280704782884FF68F731A408280C2
:101BF00082880A438280704702894FF6F8731A4040
:101C0000028102890A430281704702894FF67F737D
:101C10001A40028102890A43028170478184704719
:101C2000818570478186704701877047818770473B
:101C3000A0F84010704702884FF6FF431A40028018
:101C400002880A43028070470146888E7047014629
:101C5000088F70470146888F70470146B1F84000F1
:101C600070470146888C70470146088D70470246D0
:101C70000020138A0B400BB1012000E000207047C8
:101C8000CA430282704730B5024600200023002478
:101C9000158A05EA0103958905EA010413B10CB11F
:101CA000012000E0002030BDCA43028270470000DE
:101CB00010B50446FB48844209D101218803FFF78F
:101CC0009FF800214FF48040FFF79AF832E0F64881
:101CD000844209D101214804FFF79FF800214FF405
:101CE0000030FFF79AF825E0F048844209D101213D
:101CF0008804FFF792F800214FF48020FFF78DF859
:101D000018E0EB48844209D10121C804FFF785F8A7
:101D100000214FF40020FFF780F80BE0E5488442F3
:101D200008D101210805FFF778F800214FF4801051
:101D3000FFF773F810BD2DE9F04786B005460E4653
:101D40000024A24600BFA1460027B08900B100BF11
:101D50002F462C8A4CF6FF700440F08804432C82F6
:101D6000AC894EF6F3100440B0883189084371897C
:101D700008430443AC81AC8A4FF6FF400440B0896D
:101D80000443AC8201A8FEF7B4FFC648874202D1E3
:101D9000DDF810A001E0DDF80CA0A88900F40040F7
:101DA00040B10AEBCA0000EB0A1031684900B0FBF1
:101DB000F1F807E00AEBCA0000EB0A10316889006D
:101DC000B0FBF1F86420B8FBF0F0040120096421B5
:101DD00001FB1089A88900F4004040B1322000EBDB
:101DE000C900B0FBF1F000F00700044308E0322026
:101DF00000EB09106421B0FBF1F000F00F00044388
:101E00002C8106B0BDE8F0874FF416510160002127
:101E10008180C18001810C21418100218181704735
:101E200010B502460020108A4FF2FF0318400B88BD
:101E30004C8823438C882343CC8823431843108247
:101E400010BD0021018041808180C180704721B197
:101E5000828942F40052828104E082894DF6FF7348
:101E60001A4082817047F0B5034600240026002501
:101E7000002040F66A17B94200D100BF1846C1F3EE
:101E8000421401F01F06012707FA06F5012C01D1C3
:101E90000C3004E0022C01D1103000E014301AB1F3
:101EA00007682F43076002E00768AF430760F0BD93
:101EB0001AB1838A0B43838202E0838A8B43838235
:101EC0007047028A4FF6F0731A400282028A0A4370
:101ED0000282704782894FF2FF731A4082818289A1
:101EE0000A438281704721B1828942F002028281D5
:101EF00004E082894FF6FD731A4082817047028A9E
:101F00004FF6DF731A400282028A0A430282704748
:101F100021B1028A42F48042028204E0028A4BF636
:101F2000FF731A4002827047C1F308028280704733
:101F300001468888C0F308007047818941F001019B
:101F400081817047028BD2B20283028B42EA012266
:101F500002837047028B02F47F420283028B0A43A2
:101F60000283704721B1828A42F02002828204E01B
:101F7000828A4FF6DF731A408282704721B1828ACB
:101F800042F01002828204E0828A4FF6EF731A4018
:101F90008282704721B1828A42F00802828204E084
:101FA000828A4FF6F7731A408282704721B1828984
:101FB00042F40042828103E08289C2F30E028281F0
:101FC000704721B1828A42F40062828204E0828AF0
:101FD0004FF2FF731A4082827047828A4FF6FB737A
:101FE0001A408282828A0A438282704721B1828AA1
:101FF00042F00202828204E0828A4FF6FD731A40A8
:102000008282704702460020B1F5007F00D100BFF8
:1020100013880B400BB1012000E00020704701F451
:102020000072B2F5007F00D100BFCA430280704742
:1020300070B50246002400230025002040F66A16F1
:10204000B14200D100BFC1F3421501F01F030126C8
:1020500006FA03F3012D02D19689334006E0022DE2
:1020600002D1168A334001E0968A33400C120126D1
:1020700006FA04F41688344013B10CB1012000E0D4
:10208000002070BD10B50022002340F66A14A14262
:1020900000D100BF0A1201249440A3B2DC430480A3
:1020A00010BD0000003801400044004000480040DE
:1020B000004C004000500040ADF5487D00BF00BF1F
:1020C00002F0DEFF03F05EFB00F034FA02F07AFE6D
:1020D0004FF4165000F0F0F903F06FF803F013FA24
:1020E00000F084F902F058FE4FF4165000F094FE10
:1020F00000F089FC0EA110A001F0C5FA12A004F0B6
:10210000EFF914E05FA81C2267A95D9056A803F0C0
:102110006CFB4FF4AC7272A9684603F066FB6EA8C4
:102120000FC800F0B5FA4FF4167002F0E1FFE9E7CE
:10213000313030303100000034372E3130362E3718
:10214000342E36370000000048656C6C6F0D0A00B5
:1021500070479CA004F0C4F900BFFEE700BFFEE793
:1021600000BFFEE700BFFEE770477047704710B53D
:1021700000F08FF910BD704710B500F0F8FB10BDEE
:1021800010B501219448FFF77EFD18B10121924856
:10219000FFF78AFD08219048FFF775FD28B38F48A7
:1021A000407878B900218C48FFF738FD00208B4932
:1021B0008880488002218848FFF77AFC01208749FF
:1021C00048700DE08448FFF745FD844948800021B0
:1021D0008148FFF76DFC002080494870012008709D
:1021E00008217D48FFF760FD29E010217A48FFF7BC
:1021F0004AFD20B37948407878B900217648FFF746
:102200000DFD002075498880488002217248FFF743
:1022100069FC0120714948700DE06F48FFF71DFD12
:102220006E49488000216C48FFF75CFC00206B4938
:1022300048700120087010216748FFF735FD10BD78
:1022400010B501216648FFF71EFD18B10121644851
:10225000FFF72AFD02216248FFF715FD28B3614808
:10226000407878B900215E48FFF7D8FC00205D492E
:102270008880488002215A48FFF7EEFB0120594927
:1022800048700DE05648FFF7DFFC564948800021B2
:102290005348FFF7E1FB00205249487001200870C5
:1022A00002214F48FFF700FD7FE004214C48FFF773
:1022B000EAFC28B34B48407878B900214848FFF73A
:1022C000ADFC002047498880488002214448FFF740
:1022D000D5FB0120434948700DE04148FFF7B7FCAA
:1022E0004049488000213E48FFF7C8FB00203D4997
:1022F00048700120087004213948FFF7D5FC54E0EC
:1023000008213748FFF7BFFC28B33648407878B932
:1023100000213348FFF782FC002032498880488042
:1023200002212F48FFF7C4FB01202E4948700DE021
:102330002B48FFF78FFC2B49488000212848FFF7E6
:10234000B7FB002027494870012008700821244865
:10235000FFF7AAFC29E010212148FFF794FC20B3E5
:102360002048407878B900211D48FFF757FC00202D
:102370001C498880488002211948FFF7B3FB0120DF
:10238000184948700DE01648FFF767FC154948806A
:1023900000211348FFF7A6FB0020124948700120D6
:1023A000087010210E48FFF77FFC10BD10B501200A
:1023B000FEF7D6F920B101200B490870FEF7E1F9CC
:1023C00010BD00000D0A20686172646661756C744E
:1023D000206572720D0A00000008004058000020BD
:1023E000000400405E0000202800002030B52D4889
:1023F00000682D4AB0FBF2F1B1F1807F01D30120DA
:102400001DE021F07F40401E4FF0E0225061501748
:102410000F22002807DA13071D0E244B00F00F04CB
:10242000241F1D5503E013071C0E214B1C5400BF35
:1024300000204FF0E022906107201061002008B1D9
:1024400000BFFEE74FF0E020006920F001004FF0F0
:10245000E021086130BD01B51649009808604FF0D1
:10246000E020006940F001004FF0E021086100BF6A
:10247000104800680028FBD108BD01B503E04FF407
:102480007A70FFF7E8FF0098411E00910028F6D10E
:1024900008BD0848006820B106480068401E05498C
:1024A000086070470000002040420F0018ED00E077
:1024B00000E400E02C00002010B586B004460121A5
:1024C00044F21000FEF782FC4FF40070ADF81400E7
:1024D00018208DF8170003208DF8160005A92F4845
:1024E000FEF7B8F94FF48060ADF8140004208DF8C1
:1024F000170005A92948FEF7ADF901940020ADF8B1
:102500000800ADF80A00ADF80C00ADF810000C2082
:10251000ADF80E0001A92248FFF70DFC012240F2A0
:1025200025511F48FFF79FFC01211D48FFF78FFC35
:1025300006B010BD08B54FF4E060FDF705FF25209B
:102540008DF8000000208DF8010001208DF80200B8
:102550008DF803006846FDF7FCFE08BD00BF70471C
:1025600070B504460D46E1B20D48FFF7DDFC00BF33
:1025700080210B48FFF746FD0028F9D0204670BDAA
:1025800010B5044600BF20210548FFF73BFD002899
:10259000F9D00348FFF7CCFC10BD00000008014053
:1025A00000380140F0B5EBB00446002501F0CAFA4E
:1025B0008C49016001F0C6FA8B49416010A801F016
:1025C00017FB0BA801F068FF00BF884800780028BF
:1025D000FBD010AB4FF4807285490BA802F0D8F8FD
:1025E00000208249087000BF824800780028FBD094
:1025F00010AB4FF4807280490BA802F0C9F800209C
:102600007C4908700125002D37D00123082204A938
:1026100011A800F019FADDE908210798CDE9012198
:102620000090DDE90503421C049800F26C7173A070
:1026300003F056FFDDE92201CDE90001DDE9206369
:10264000324677A003F04CFF10A8426F7BA02C9974
:1026500003F046FFDDE92463324683A003F040FF28
:10266000DDE92663324687A003F03AFFDDE92863FF
:1026700032468BA003F034FF00250BA801F048FF81
:102680004FF4B47210A9204603F0AFF86BB0F0BD60
:102690000FB42DE9F04FDBB06846FFF783FF4FF42E
:1026A000B472694664A803F0A0F801230822BEA909
:1026B00065A800F0C9F90022804B769D28467799DD
:1026C00003F041FA074603F0D4FA044600227B4B9C
:1026D000749F3846759903F036FA054603F0C9FA37
:1026E0008146204603F0A7FA82468B46642104FB0C
:1026F00001F003F0A0FA0746769D2A46779B03F087
:10270000ADF900226E4B5791569003F01CFA5246D9
:102710005B465991589003F0FDF8779176904846C2
:1027200003F089FA59915890642109FB01F003F0F4
:1027300082FA0746749D2A46759B03F08FF98246FC
:1027400000225F4B03F0FFF957915690599B589A1E
:1027500003F0E0F87591749075997498CDE90001D3
:10276000769D2A4657A1779BC59803F0DDFEC29A55
:10277000C199C398CDE900120290BF98421CBE983F
:1027800000F26C7153A0C09B03F0AAFE7799769873
:10279000CDE90001749D2A4655A0759B03F0A0FE6B
:1027A000C59800F0A0FD012810D156A003F098FEB6
:1027B00000F0AEFB4FF4FA60FFF75FFE00F0A6FBFF
:1027C0000546294653A003F08BFE06E055A003F012
:1027D00087FE58A159A000F056FF5BB0BDE8F00F8E
:1027E0005DF814FB132A0008152A000835000020A4
:1027F0009C000020340000209C01002044454255EC
:10280000475F475053CAB1BCE4A3BA25642D256481
:102810002D25642025643A25643A25640D0A0000BC
:1028200044454255475F475053CEB3B6C8A3BA2577
:10283000662CBEADB6C825660D0A0000444542555B
:10284000475F475053D5FDD4DACAB9D3C3B5C4CE18
:10285000C0D0C7A3BA25642CBFC9BCFBCEC0D0C7AB
:10286000A3BA25640D0A000044454255475F47500E
:1028700053BAA3B0CEB8DFB6C8A3BA256620C3D773
:102880000D0A000044454255475F475053CBD9B627
:10289000C8A3BA2566206B6D2F680D0A00000000E2
:1028A00044454255475F475053BABDCFF2A3BA25BE
:1028B0006620B6C80D0A0D0A00000000000059404D
:1028C00000004E406C6F3A25662C6C613A25660D0F
:1028D0000A000000CAB1BCE4A3BA25642D25642D0A
:1028E00025642025643A25643A25640D0A00000019
:1028F000CEB3B6C8A3BA25662CBEADB6C825660D44
:102900000A0D0A00B7A2CBCDB3C9B9A6A3A10D0A7F
:1029100000000000B5D8C0EDCEBBD6C3CEAA25734B
:102920000D0A0000B7A2CBCDCAA7B0DCA3A10D0A47
:102930000D0A0000313030303100000034372E31C4
:1029400030362E37342E36370000000008B5102000
:102950008DF8000000208DF8010002208DF80200A3
:1029600001208DF803006846FDF7F3FC08BD10B5A3
:102970004FF48000FDF75DFE30B101208B490870F7
:102980008005FDF74BFE0AE04FF40010FDF751FE05
:1029900028B10120864908704005FDF73FFE10BDB3
:1029A00000B58BB001210846FEF703FA814800907C
:1029B00081480190002002904FF4007003900020A5
:1029C0000490802005900020069007902020089019
:1029D000C001099000200A9069467848FDF7C4FDBF
:1029E000FFF7B4FF012206217448FDF7F4FD012131
:1029F0007248FDF7E4FD012240216E48001FFFF7F9
:102A000057FA0BB000BD10B500F0DAF8FFF7C8FFB9
:102A100010BD70477047024602F5FA6101F00300ED
:102A200080B94FF4C87091FBF0F300FB131028B18C
:102A3000642091FBF0F300FB131008B101207047F4
:102A40000020FCE70020FAE72DE9FF4F81B0804627
:102A50008946164616B905B0BDE8F08F0C2E00DD8C
:102A6000F9E7D8F800A0D8F80440D8F80850D8F80A
:102A70000C70D8F810B0D8F8140000900498002812
:102A800044D0B819182801D2374480E0B819A0F111
:102A90001807012C09D0032C07D0052C05D0072CD2
:102AA00003D0082C01D00A2C06D11F2D01D26D1C99
:102AB0006DE00125641C6AE0042C05D0062C03D0CF
:102AC000092C01D00B2C06D11E2D01D26D1C5EE00D
:102AD0000125641C5BE0022C0DD11D2D06D01C2DA0
:102AE00007D10AF0FF00FFF796FF10B90125641C1B
:102AF0004DE06D1C4BE00C2C49D11F2D01D26D1CFB
:102B000045E0012501240AF1010A40E0B74201D362
:102B1000BF1B3CE007F11800871B022C09D0042CD6
:102B200007D0062C05D0082C03D0092C01D00B2C83
:102B300006D1012D01D96D1E29E01F25641E26E056
:102B4000052C05D0072C03D00A2C01D00C2C06D163
:102B5000012D01D96D1E1AE01E25641E17E0032CFD
:102B60000BD1012D07D10AF0FF00FFF754FF10B978
:102B70001C25641E0BE06D1E09E0012C07D1012D00
:102B800001D96D1E03E01F250C24AAF1010AC9F822
:102B900000A0C9F80440C9F80850C9F80C70C9F879
:102BA00010B00098C9F8140000BF54E735000020A9
:102BB00034000020044400409C0000206C000240CF
:102BC00000B585B001210420FEF700F90121480479
:102BD000FEF709F90420ADF8100018208DF8130055
:102BE00003208DF8120004A97D48FDF733FE08206C
:102BF000ADF8100004208DF8130004A97848FDF703
:102C000029FE4FF4165000900020ADF80400ADF8F6
:102C10000600ADF80800ADF80C000C20ADF80A0075
:102C200069467048FFF787F801216E48FFF70FF9F2
:102C300005B000BDF0B503460D46164600272946EF
:102C40000A2E03D0002008702846F0BD33B930208A
:102C500001F8010B002008702846F6E7002B03DA84
:102C60002D2001F8010B5B4242F210720DE093FB44
:102C7000F2F404B937B104F1300001F8010B04FBA0
:102C8000123301270A2092FBF0F2002AEFDC002029
:102C900008702846D9E710B553480078FF2811DAA4
:102CA00040F225514F48FFF7C3F958B14D48FFF79F
:102CB0003FF94E494C4A127888544B480078401CE2
:102CC0004949087010BD01464748007808704748D8
:102CD000704700204449087070470FB470B586B043
:102CE00006460CA8019073E00B9800785C281CD174
:102CF0000B98401C0B9000786E2809D072280FD1D9
:102D00000D213046FFF710F90B98401C0B900BE09B
:102D10000A213046FFF708F90B98401C0B9003E09E
:102D20000B98401C0B9000BF4BE00B9800782528B7
:102D300040D10B98401C0B900078642818D0732861
:102D400033D1019810C801900BE021783046FFF78D
:102D5000EBF800BF80213046FFF754F90028F9D086
:102D6000641C20780028F0D10B98401C0B9020E0C8
:102D7000019820C801900A2202A92846FFF75AFFAD
:102D800002AC0BE021783046FFF7CEF800BF80217F
:102D90003046FFF737F90028F9D0641C2078002866
:102DA000F0D10B98401C0B9003E00B98401C0B904B
:102DB00000BF06E00B9810F8011B0B903046FFF7A0
:102DC000B3F800BF80213046FFF71CF90028F9D086
:102DD0000B980078002887D106B070BC5DF814FB12
:102DE0000008014000440040360000209C02002002
:102DF00008B54FF48060FDF7A7FA27208DF8000092
:102E000000208DF8010001208DF802008DF80300EC
:102E10006846FDF79EFA08BD10B586B0044601214C
:102E20000820FDF7D3FF01218804FDF7DCFF4FF4F4
:102E30008060ADF8140018208DF8170003208DF87D
:102E4000160005A99248FDF705FD4FF40060ADF8A6
:102E5000140004208DF8170005A98D48FDF7FAFC31
:102E600001940020ADF80800ADF80A00ADF80C00A0
:102E7000ADF810000C20ADF80E0001A98548FEF752
:102E80005AFFFFF7B5FF012240F225518148FEF7B6
:102E9000EAFF01217F48FEF7DAFF06B010BDF0B56A
:102EA00003460D461646002729460A2E03D0002069
:102EB00008702846F0BD33B9302001F8010B00201E
:102EC00008702846F6E7002B03DA2D2001F8010BE5
:102ED0005B4242F210720DE093FBF2F404B937B199
:102EE00004F1300001F8010B04FB123301270A2022
:102EF00092FBF0F2002AEFDC002008702846D9E7A8
:102F00000146654800780870644870476348704718
:102F10000021614A1170002003E000215F4A115432
:102F2000401CB0F5C87FF8DB70470FB4F0B585B032
:102F300007460CA800908AE00B9800785C281CD10A
:102F40000B98401C0B9000786E2809D072280FD186
:102F50000D213846FEF7E8FF0B98401C0B900BE064
:102F60000A213846FEF7E0FF0B98401C0B9003E067
:102F70000B98401C0B9000BF62E00B98007825284E
:102F800057D10B98401C0B900078632804D064281C
:102F90002DD0732848D113E0009810F8041BCEB24E
:102FA000009031463846FEF7BFFF00BF802138460B
:102FB000FFF728F80028F9D00B98401C0B9037E059
:102FC000009810C800900BE021783846FEF7ACFF5F
:102FD00000BF80213846FFF715F80028F9D0641C9F
:102FE00020780028F0D10B98401C0B9020E000982E
:102FF00020C800900A2201A92846FFF750FF01AC23
:103000000BE021783846FEF78FFF00BF802138465D
:10301000FEF7F8FF0028F9D0641C20780028F0D1D2
:103020000B98401C0B9003E00B98401C0B9000BFCA
:1030300006E00B9810F8011B0B903846FEF774FF62
:1030400000BF80213846FEF7DDFF0028F9D00B983D
:10305000007800287FF470AF05B0F0BC5DF814FB79
:1030600010B50D480078B0F5C87F10DA40F2255150
:103070000848FEF7DDFF50B10648FEF759FF044649
:1030800005490878411C044B197004490C5410BDC3
:10309000000C014000480040370000209B03002046
:1030A00070B50446FFF732FF05462146284602F078
:1030B000C0FB18B1FFF72CFF012070BDFFF728FF00
:1030C0000020FAE770B505460C461646FFF720FFCC
:1030D0002A46FCA1FC48FFF728FF0CB9012070BD6F
:1030E0003046FFF7CAF92046FFF7DAFFF7E738B5B1
:1030F000044600BF6846FFF703FF05462CB1A04712
:10310000012802D10025284638BD9DF8000000287E
:10311000F0D01420FFF7B1F92846F5E770B5054661
:103120004FF47A72E9A1EAA0FFF7CCFF012801D0A1
:10313000002070BDFFF7EAFE04460EB90020F8E754
:1031400005E0701EC6B20EB90020F2E7641C2078BC
:103150002C28F6D1A41C03E014F8010B05F8010B90
:1031600020782228F8D1002028700120E1E770B5EE
:10317000C6B00546FFF7CCFED8A1D348FFF7D5FE71
:103180006420FFF77AF9FFF7C1FE0646314668462C
:1031900002F07FFBFFF7BCFE002409E004F10A0007
:1031A0001DF800002855285D40A90855601CC4B2D0
:1031B000142CF3DB00208DF8140146B070BD30B53F
:1031C000C1B00446FFF7A4FEC7A1BF48FFF7ADFE9C
:1031D0006420FFF752F9FFF799FE0546294601A83A
:1031E00002F057FBFFF794FE9DF813003038207073
:1031F0009DF814002C2804D19DF81300303820705D
:1032000011E09DF815002C280BD19DF814003038E2
:103210009DF81310303901EB810100EB4100207063
:1032200001E06320207041B030BD10B5B0A1A648C8
:10323000FFF77BFE6420FFF720F9B1A1A248FFF75A
:1032400074FE6420FFF719F9B4A19F48FFF76DFEE3
:103250006420FFF712F9FFF75BFE10BD70B504465E
:103260000D46FFF755FE2B462246AFA19648FFF7C5
:103270005CFE4FF47A70FFF700F9B3A0FFF710FF80
:10328000012803D1FFF744FE012070BDFFF740FE87
:103290000020FAE730B5C1B0FFF73AFEADA18A4889
:1032A000FFF743FE4FF4FA70FFF7E7F8FFF72EFE43
:1032B0000546294601A802F0ECFAFFF729FEA9A16C
:1032C00001A802F0B6FA04461CB91A217E48FEF79E
:1032D0002BFEA6A101A802F0ACFA10B1012041B06A
:1032E00030BD0020FBE770B504463225FFF710FE25
:1032F000A3A17548FFF719FE4FF49670FFF7BDF8CC
:10330000A2A0FFF7CDFE012817D12A4621466E481C
:10331000FFF70BFE6420FFF7B0F81A216A48FEF7AA
:1033200003FE4FF49E60FFF7A8F84FF49E60FFF78E
:10333000A4F897A0FFF7B4FE70BD1A216248FEF70B
:10334000F3FD0020F8E72DE9F04704460E4600277C
:10335000B846FFF7DDFD8AA15B48FFF7E6FD642074
:10336000FFF78BF86420FFF788F888A0FFF798FE36
:1033700001287CD1002547E020781A2802D0207847
:103380001B281ED12078811C4F48FEF7CDFD00BFC1
:1033900080214D48FEF736FE0028F9D02078811CA8
:1033A0004948FEF7C1FD00BF80214748FEF72AFECD
:1033B0000028F9D000214448FEF7B6FD08F10108C5
:1033C00019E020781C2802D020781D280FD1217800
:1033D0003D48FEF7A9FD00BF80213B48FEF712FEE5
:1033E0000028F9D000213848FEF79EFD03E021783F
:1033F0003548FEF799FD00BF80213348FEF702FEF5
:103400000028F9D0641C6D1CB542B5D36420FFF7C9
:1034100034F81A212C48FEF787FD6420FFF72DF8B9
:10342000FFF776FD1DE0FFF771FD814627A102F051
:1034300000FA30B9FFF76AFD814657A102F0F9F9A9
:1034400000B10FE0B7F57A7F05DA7F1C0A20FFF79D
:1034500014F806E00BE052A003F042F80020BDE8AB
:10346000F087E0E700BF4AA0FFF71AFEF7E71A214E
:103470001548FEF759FD0020F1E710B5FFF748FDAC
:103480004CA11148FFF751FD4FF49670FEF7F5FF80
:1034900010BD30B5C1B001ACFFF73AFD49A10A48F3
:1034A000FFF743FD6420FEF7E8FFFFF72FFD054619
:1034B000294601A802F0EDF9FFF72AFD0B3420465A
:1034C00041B030BD25730000004800404F4B000064
:1034D00041542B434E554D0D0000000041542B43E9
:1034E0004349440D0000000041542B4353510D004B
:1034F00041542B4347434C4153533D2242220D003C
:1035000041542B434744434F4E543D312C224950A4
:10351000222C22434D4E4554220D000041542B4392
:10352000474154543D310D0041542B4349505354AD
:103530004152543D22544350222C222573222C22E6
:103540002573220D00000000434F4E4E454354208A
:103550004F4B000041542B43495053544154555351
:103560000D00000053544154450000005354415491
:10357000453A20434F4E4E454354204F4B000000E8
:1035800041542B43495053454E440D003E0000002A
:1035900053454E44204F4B004552524F52000000BD
:1035A000BBF1C8A1B7B5BBD8D0C5CFA2CAA7B0DC04
:1035B0000D0A000041542B434950434C4F53453DA5
:1035C000310D000041542B43494653520D00000079
:1035D00070B5C4B00546FFF79BFCBEA1BF48FFF71E
:1035E000A4FC6420FEF749FFFFF790FC0646314635
:1035F000684602F04EF9FFF78BFC002409E004F165
:1036000009001DF800002855285D40A90855601CD8
:10361000C4B20F2CF3DB00208DF80F0144B070BD55
:1036200030B5C1B000242DE0FFF772FCACA1AB486F
:10363000FFF77BFC4FF4FA60FEF71FFFFFF766FC15
:103640000546294601A802F024F99DF81A00312800
:1036500005D1A6A002F044FF012041B030BD9DF885
:103660001A00352804D1A6A002F03AFF0120F4E7A1
:103670009DF81A10A7A002F033FF0A2C01DD0020EC
:10368000EBE7641CD0E72DE9F04105460E46002427
:1036900000270CE0641C0A2C05D3A2A002F020FF36
:1036A0000020BDE8F0812146A4A002F019FF4FF4EC
:1036B0007A72AFF2E811ABA0FFF704FD0128E9D15F
:1036C000A9A002F00DFFFFF7ABFF08B9FFF7ADFDB2
:1036D000FFF7E0FD80B931462846FFF7BFFD01281E
:1036E00004D1A6A002F0FCFE0120DAE73946ADA025
:1036F00002F0F6FE0020D4E7B5A002F0F1FE0120B2
:10370000CFE72DE9F041CEB080460C46142149A800
:1037100002F084F8142144A802F080F8C82112A80D
:1037200002F07CF82422AFA109A802F05EF800257F
:10373000404602F0BDFA064632460B46B2A149A801
:1037400002F0F2FE204602F0B3FA064632460B467D
:10375000ADA144A802F0E8FEAC4AAFF21C2112A8C9
:1037600002F0E2FEFFF7D4FBA9A15C48FFF7DDFB06
:103770004FF4FA70FEF781FEFFF7CAFBACA1574881
:10378000FFF7D3FB4FF4FA70FEF777FEFFF7C0FBAD
:10379000AEA15248FFF7C9FB4FF4FA70FEF76DFE79
:1037A000FFF7B6FBB3A14D48FFF7BFFB4FF4FA702C
:1037B000FEF763FEFFF7ACFBB2A14848FFF7B5FB8D
:1037C0004FF4FA70FEF759FEFFF7A2FBB1A1434890
:1037D000FFF7ABFB4FF4FA70FEF74FFEB1A13F4885
:1037E000FFF7A3FB4FF4FA70FEF747FEB1A13B4889
:1037F000FFF79BFB4FF4FA70FEF73FFEFFF788FBE5
:10380000B0A13648FFF791FB4FF4FA70FEF735FE92
:10381000FFF77EFB12A93148FFF787FB4FF4FA70E0
:10382000FEF72BFEFFF774FBACA12C48FFF77DFBE6
:103830004FF4FA70FEF721FE1FE0FFF767FB064624
:10384000314601A802F025F8A9A101A801F0F1FF75
:1038500000B113E03C2D08DA4FF47A70FEF70DFE4C
:103860006D1CA5A002F03CFE07E0AFF2CC2002F0F8
:1038700037FE00204EB0BDE8F081DEE700BF4FF418
:10388000FA60FEF7FAFDFFF743FBA0A11348FFF72C
:103890004CFB4FF4FA60FEF7F0FDFFF737FB0646EE
:1038A00031469FA002F01CFEFFF732FB9DA10B48A2
:1038B000FFF73BFB4FF4FA70FEF7DFFDFFF728FB45
:1038C0009CA10648FFF731FB4FF4FA70FEF7D5FDD7
:1038D0000120CFE741542B47534E0D0000480040D4
:1038E00041542B43475245473F0D0000D2D1D7A248
:1038F000B2E1B1BEB5D8CDF8C2E70D0A00000000B4
:10390000D2D1D7A2B2E1C2FED3CECDF8C2E70D0A22
:1039100000000000CEB4D7A2B2E1204552523A25B1
:10392000630D0A00C4A3BFE9CFECD3A6B2E2CAD4A8
:10393000B4EDCEF3A3A10D0A00000000C4A3BFE9BB
:10394000CFECD3A6B2E2CAD4B4EDCEF3A3A1D5FD99
:10395000D4DAD6D8D0C2C1ACBDD3D6D028256429FC
:103960000D0A000041540D0047505253C4A3BFE953
:10397000CFECD3A6D5FDB3A30D0A0000544350BD30
:10398000A8C1A2C1ACBDD3B3C9B9A6A3A147505227
:1039900053CDF8C2E7B9A4D7F7D5FDB3A30D0A0DEF
:1039A0000A000000544350BDA8C1A2C1ACBDD3CA97
:1039B000A7B0DCA3A147505253CDF8C2E7B9A4D7B2
:1039C000F7D2ECB3A3282564290D0A0D0A000000E4
:1039D00047505253CDF8C2E7B9A4D7F7D5FDB3A3EA
:1039E0000D0A0000537A76553045724B6C684C6E68
:1039F0007864475A57574246726966317137415168
:103A0000335262680000000025660000E874000878
:103A100041542B53415042523D332C312C22434FC1
:103A20004E54595045222C2247505253220D00002B
:103A300041542B53415042523D332C312C224150A2
:103A40004E222C22434D4E4554220D0041542B53FF
:103A5000415042523D332C312C2250484F4E454E5E
:103A6000554D222C22313233343536373839303007
:103A7000220D000041542B53415042523D342C3111
:103A80000D00000041542B53415042523D352C3122
:103A90000D00000041542B53415042523D312C3116
:103AA0000D00000041542B53415042523D322C3105
:103AB0000D00000041542B48545450494E49540DB8
:103AC0000000000041542B48545450504152413D95
:103AD00022434944222C2231220D000041542B481C
:103AE000545450414354494F4E3D300D00000000A6
:103AF000302C323030000000D5FDD4DAB5C8B4FD2A
:103B0000B7B5BBD8D0C5CFA20D0A000041542B4891
:103B1000545450524541443D312C313030300D0029
:103B200025730A0041542B485454505445524D0DAE
:103B30000000000041542B53415042523D302C3183
:103B40000D000000294870470FB430B5ADF2044DA8
:103B5000FFF7F8FF0568ADB10DF21440CDF8000491
:103B600040F2FF316846DDF80034DDF8102402F041
:103B7000EFFC04460020CDF80004002C02DD2146B5
:103B80006846A8470DF2044D30BC5DF814FB70B5D3
:103B900006460C46FFF7D6FF05681DB114B1214655
:103BA0003046A84770BD0FB430B5ADF2044DFFF7F5
:103BB000C9FF4568ADB10DF21440CDF8000440F2E4
:103BC000FF316846DDF80034DDF8102402F0C0FC57
:103BD00004460020CDF80004002C02DD2146684692
:103BE000A8470DF2044D30BC5DF814FB38000020EE
:103BF00010B504464FF4B471204601F00FFE201DAD
:103C000000F0AAFF002020620120606210BD0000C9
:103C1000FEB506460D4614460027062D06D0082D93
:103C200016D0092D15D00A2D28D113E004F1140067
:103C3000011F0B1FFEA2CDE900102946304600F0FF
:103C40007AFE032801D1012000E0002007461AE097
:103C500000BF00BF04F11800011F0A1F131FCDE9A8
:103C600000210290F5A22946304600F064FE0428A7
:103C700001D1012000E00020074604E0F3A0FFF797
:103C800092FF002700BF00BF0FB10020FEBD4FF024
:103C9000FF30FBE770B505460C46052C01DA002025
:103CA00070BDF34805220168284601F0E5FD08B91A
:103CB0000120F5E7EE4805224168284601F0DCFDC9
:103CC00008B90220ECE7EA4805228168284601F09D
:103CD000D3FD08B90420E3E7E5480522C16828467A
:103CE00001F0CAFD08B90820DAE7E14805220169B8
:103CF000284601F0C1FD08B91020D1E70020CFE728
:103D00002DE9F04704460F46154604EB0708002648
:103D1000B146701E286029E02078242802D10EB117
:103D2000002425E020782A281AD1601D404516D8A5
:103D3000E0780D2813D120790A2810D11022022111
:103D4000601C00F091FD2860601DA8EB00003E1A89
:103D50002868484503D04FF0FF302860002407E072
:103D600016B1207880EA0909641C761C4445D3D337
:103D700000BF2868002801DA04B100263046BDE8FB
:103D8000F087F0B5CDB005460E461446802120469A
:103D900001F044FD31462846FFF7F9FE04F17800B2
:103DA00004F1700104F1680204F16003CDE9093205
:103DB000CDE90B1020382039203A203BCDE90532DF
:103DC000CDE907101C38011F183A183BCDE9013224
:103DD000CDE903101C380DABA6A231460090284651
:103DE00000F0A9FD0E2805D0AFA0FFF7DCFE0020F3
:103DF0004DB0F0BD0DA801F02EFD07462246394614
:103E00000DA8FFF705FF20B1ACA0FFF7CCFE002006
:103E1000EEE70120ECE770B590B005460E4614467B
:103E20005021204601F0FAFC31462846FFF7AFFE4C
:103E300004F1480104F1400204F13803181FCDE9F0
:103E40000D320F910C90011F0A1F131F1038CDE97E
:103E500009320B910890011F0A1F131F1038CDE97A
:103E6000053207910490011F0838021F231DCDE978
:103E70000032CDE90201234696A23146284600F0E1
:103E80005AFD112805D0A2A0FFF78DFE002010B02A
:103E900070BD0120FBE72DE9F04192B0074688464E
:103EA00014465C21204601F0B9FC41463846FFF734
:103EB0006EFE04F158010A1F131F04F14800CDE9FA
:103EC0000F3211910E90011F0A1F131F1438CDE9F4
:103ED0000B320D910A90011F0A1F131F1438CDE9F0
:103EE000073209910690011F0A1F0C381C3BCDE9CF
:103EF0000230CDE904210C38211D2346894ACDE941
:103F000000104146384600F016FD06466068401E27
:103F10008500281DA168814202DAA068401B00E0EC
:103F200004200546032000EB8505AE4201DB132E7D
:103F300006DD7DA0FFF737FE002012B0BDE8F0815E
:103F40000120FAE72DE9F041CEB006460F461446AF
:103F50006021204601F062FC39463046FFF717FE2B
:103F600004F15900411E04F15002CDE90942CDE9A6
:103F70000B10201D011D083A04F14003CDE9053264
:103F8000CDE9071034302831203A203BCDE9013209
:103F9000CDE903101C380EAB68A2394600903046BC
:103FA00000F0C9FC05460D2D08D00E2D06D070A0DE
:103FB000FFF7F9FD00204EB0BDE8F0810EA801F03A
:103FC0004AFC8046224641460EA8FFF721FE20B15A
:103FD0006CA0FFF7E8FD0020EDE720685A2802DA20
:103FE0002068643020606068401E60600120E2E765
:103FF00070B588B005460E4614464021204601F0B3
:104000000DFC31462846FFF7C2FD04F1380004F1EB
:10401000300104F1280204F12003CDE90332CDE997
:10402000051020382039203A2346CDE90021B5E09B
:10403000253264253264253264000000253264256F
:1040400032642532642E25640000000050617273D2
:1040500065206F662074696D65206572726F7220CD
:1040600028666F726D6174206572726F722921000B
:10407000440000202447504747412C25732C2566D7
:104080002C25432C25662C25432C25642C25642CBB
:1040900025662C25662C25432C25662C25432C25AE
:1040A000662C25642A000000475047474120706174
:1040B000727365206572726F722100004750474726
:1040C000412074696D65207061727365206572723C
:1040D0006F7221002447504753412C25432C2564FF
:1040E0002C25642C25642C25642C25642C25642C1B
:1040F00025642C25642C25642C25642C25642C2512
:10410000642C25642C25662C25662C25662A000047
:104110004750475341207061727365206572726F1A
:1041200072210000487500084750475356207061BF
:10413000727365206572726F7221000024475052BD
:104140004D432C25732C25432C25662C25432C25EB
:10415000662C25432C25662C25662C2532642532B9
:10416000642532642C25662C25432C25432A000027
:104170004750524D43207061727365206572726FB3
:10418000722100004750524D432074696D652070C4
:1041900061727365206572726F7221000290A6A22F
:1041A0003146284600F0C7FB082805D0AAA0FFF733
:1041B000FAFC002008B070BD207A54280AD1207E75
:1041C0004D2807D194F828004E2803D194F83800E0
:1041D0004B2804D0A5A0FFF7E6FC0020EAE7012069
:1041E000E8E7C3680B6103694B6143698B618369CD
:1041F000CB61C26B0A62D0E91223C1E90C23D0E97A
:104200001423C1E9142390F828204E2A02D1D0E9C2
:10421000082303E0D0E9082383F00043C1E9102319
:1042200090F83820452A02D1D0E90C2303E0D0E9E8
:104230000C2383F00043C1E912230A6842F0010213
:104240000A607047F0B5002445684D62D0E90E560B
:10425000C1E90A56D0E91056C1E90C56D0E9125608
:10426000C1E90E56002220E000231AE000F1080503
:1042700055F82250A5B100F1080555F8226003EB6E
:10428000830701F1780555F82750AE4208D1012681
:1042900003EB830701F1780505EB87056E60641C6D
:1042A0005B1C4D6F9D42E1DC521C0C2ADCDB0C6771
:1042B0000D6845F002050D60F0BDF0B5D0E9006570
:1042C000B54204DC0C264568B6EB850F00DAF0BD7C
:1042D0004568012D01DA0125456086684E6745680D
:1042E0006D1EAC00251D8668AE4202DA85682D1B66
:1042F00000E004252C4600223AE045686D1E02EBE2
:10430000850302EB820600F10C0555F8266003EBED
:10431000830701F1780545F8276002EB820600F17A
:104320000C0505EB860503EB8307AE6801F1780504
:1043300005EB8705AE6002EB820600F10C0505EB8C
:10434000860503EB8307EE6801F1780505EB870529
:10435000EE6002EB820600F10C0505EB860503EB2F
:1043600083072E6901F1780505EB87052E61521C44
:10437000A242C2DB0D6845F004050D6000BFA6E750
:104380002DE9F04105460C46287F412809D1206AD5
:1043900008B902202062606A012809D10220606207
:1043A00006E0287F562803D10020206201206062A9
:1043B0001C222946201D01F018FA95F828004E28E5
:1043C00002D1D5E9080103E0D5E9080181F00041F7
:1043D000C4E9100195F83800452802D1D5E90C014F
:1043E00003E0D5E90C0181F00041C4E91201284A3B
:1043F000284BD5E91061304601F033FBC4E91601C2
:10440000D5E91201C4E91801206840F008002060D5
:10441000BDE8F081D0E90023C1E91823D0E90423E5
:10442000C1E91A23D0E90C23C1E916230A6842F036
:1044300010020A60704700002447505654472C254C
:10444000662C25432C25662C25432C25662C2543DC
:104450002C25662C25432A0047505654472070616E
:10446000727365206572726F722100004750565456
:1044700047207061727365206572726F72202866C2
:104480006F726D6174206572726F72292100000075
:104490006F1283C0CAA1FD3F70B504460026FFF726
:1044A00051FB8568FF2D01DC4FF4807514212046F7
:1044B00001F0B4F9284602F03FFFA06018B9DEA071
:1044C000FFF771FB01E0E5600126304670BD70B575
:1044D000054600262C6874B1606810B1606802F06F
:1044E00003FF2668A0682860286808B90020686073
:1044F000204602F0F9FE304670BD10B5044602E0D9
:104500002046FFF7E4FF20680028F9D1012010BD04
:1045100010B50446A06802F0E7FE2046FFF7EDFF65
:104520001421204601F07AF910BD2DE9F04104462E
:104530000E46002725685DB1686830602F68A8685E
:104540002060206808B900206060284602F0CCFE98
:104550003846BDE8F081014600200861012070471F
:104560002DE9F84F05468A46904600260024286922
:104570004044E968884202DB2846FFF7ECFF2A69DD
:10458000A96888184246514601F02FF9286940442D
:10459000286100BF2A69911BAA6890196A46FFF733
:1045A000AFFB074657B946B12B699B1B1A462B61D7
:1045B000AB689919184601F018F9C2E00098002874
:1045C00073DB2A69921B511EAA683244501CFFF704
:1045D00061FB81460C2002F0AFFE040000D1B4E084
:1045E00000206060B9F1040F44D006DCB9F1010F7E
:1045F0000AD0B9F1020F74D121E0B9F1080F55D0FA
:10460000B9F1100FF7D16DE0802002F095FE6060E7
:1046100000B99AE0012020606268A96888193946CB
:10462000FFF7AFFB50B9606820B1606802F05CFE34
:1046300000206060204602F057FE002472E0502007
:1046400002F07AFE606000B97FE0022020606268BC
:10465000A96888193946FFF7DEFB50B9606820B1B8
:10466000606802F041FE00206060204602F03CFEDF
:10467000002457E05C2002F05FFE606000B964E057
:10468000042020606268A96888193946FFF703FC96
:1046900050B9606820B1606802F026FE00206060BA
:1046A000204602F021FE00243CE047E0602002F0BA
:1046B00043FE606000B948E0082020606268A96895
:1046C00088193946FFF73EFC50B9606820B1606830
:1046D00002F00AFE00206060204602F005FE002481
:1046E00020E01AE0402002F027FE606000B92CE0D4
:1046F000102020606268A96888193946FFF778FCA5
:1047000050B9606820B1606802F0EEFD0020606082
:10471000204602F0E9FD002404E0204602F0E4FD1A
:10472000002400BF00BF4CB1686808B168688460AD
:104730006C60286800B92C600020A0603E44002412
:1047400028E700BF3046BDE8F88F14B1204602F0DC
:10475000CBFD39A0FFF727FA4FF0FF30F3E72DE943
:10476000F041054688461446002700BFE868A0428D
:1047700001DAEE6800E02646324641462846FFF759
:10478000EFFE0744A41B002CF0D13846BDE8F081B1
:104790002DE9F8430746884691461D46002600202D
:1047A00000904A4641463846FFF7D9FF2AE0761C7A
:1047B000042C14D004DC012C07D0022C1ED109E0FB
:1047C000082C11D0102C19D113E029460098FFF7BE
:1047D00008FD13E029460098FFF734FD0EE0294656
:1047E0000098FFF76AFD09E029460098FFF7C8FD29
:1047F00004E029460098FFF70DFE00BF00BF0098B7
:1048000002F072FD69463846FFF78FFE0400CED1F4
:104810003046BDE8F883014600200A6802B11068FE
:10482000704710B502460B460020116811B14C6864
:104830001C60086810BD0000496E73756666696388
:1048400069656E74206D656D6F72792100000000DE
:1048500010B502460B460020002102E0545C604087
:10486000491C9942FADB10BDF0B5C1B005460C46B3
:1048700016460027FF2C0DDC22462946684600F02C
:10488000B4FF00200DF80400324640A9684601F04C
:1048900009F80746384641B0F0BDF0B5C1B007464B
:1048A0000C4600210D460E46FF2C0DDC22463946F3
:1048B000684600F09AFF00200DF8040040A9684601
:1048C00002F070FD05460E462846314641B0F0BD67
:1048D0000FB42DE9F84306460D460027002D04DCF1
:1048E0000020BDE8F8035DF814FB0BA800902946F2
:1048F0003046009B0A9A01F02BFE0446002C0BDD8B
:10490000611E701CFFF7A4FF8046291B3019434627
:104910008FA201F0F5FD07463C44002C01DBAC42C0
:1049200005DD20222946304600F071FF2C4600208C
:1049300000902046D5E70FB42DE9FF5F04468B4673
:1049400004EB0B080120029000264FF00009002024
:1049500001908246009011A80390EAE00298012895
:1049600006D0022813D0032817D004280ED12BE03C
:1049700010980078252802D10220029006E014F851
:10498000011B10980078814200D0D9E0CDE00026CC
:10499000DDF840900320029000BF00F019FF00688E
:1049A00010990978405C202800D1BEE004200290D4
:1049B0001098484507D91098A0EB09010A224846EB
:1049C000FFF752FF064600BF27466EB910980078E1
:1049D000632803D010980078432805D120781099D7
:1049E0004978884200D001262EB1A019404501D84F
:1049F00034440DE0A4E01098407840B1A8EB0402E4
:104A000010984178204600F02DFF040000D1444664
:104A1000444500D994E0012002900098401C009089
:104A20000025E61B10980078632812D008DC432884
:104A300010D0452828D0472824D0532830D112E060
:104A4000652820D066281BD067281AD0732827D164
:104A500008E000BF039820C8039016B10DB1387864
:104A600028701DE000BF039820C803903EB135B107
:104A700032463946284600F0B8FE0020A8550FE01F
:104A800000BF00BF00BF00BF039820C8039036B12D
:104A90002DB131463846FFF700FFC5E9000100BFE0
:104AA00000BF05B141E0039802C80D00039000D19A
:104AB0003BE006B939E0109800786F2829D006DC71
:104AC00058281DD0642807D069282BD105E0752807
:104AD0000CD0782826D112E000BF0A223146384691
:104AE000FFF7C2FE0190019828601CE00A223146BF
:104AF0003846FFF7B9FE8246C5F800A013E000BFB4
:104B0000102231463846FFF7AFFE8246C5F800A0B6
:104B100009E0082231463846FFF7A6FE8246C5F86E
:104B200000A000E00CE000BF00BF00BF1098401CD8
:104B300010901098007810B14445FFF40FAF00BFFB
:104B400000200390009804B0BDE8F01F5DF814FB4E
:104B50002A253032780D0A0072210160002141605F
:104B6000012181600021C160016141618161704763
:104B700008B51E208DF8000000208DF801000220ED
:104B80008DF8020001208DF803006846FBF7E1FB79
:104B900008BD08B51D208DF8000000208DF801002B
:104BA00003208DF8020001208DF803006846FBF712
:104BB000D0FB08BD08B501210820FCF707F9042047
:104BC0008DF803008001ADF8000069467948FBF7D5
:104BD00041FE4FF40070ADF8000069467548FBF7E0
:104BE00039FE08BD08B501210820FCF7EFF80420C4
:104BF0008DF803001020ADF8000069466D48FBF702
:104C000029FE2020ADF8000069466A48FBF722FE25
:104C10000120ADF8000069466648FBF71BFE022044
:104C2000ADF8000069466348FBF714FE08BD00B507
:104C300087B001210420FCF7D6F84FF6FF70ADF8DD
:104C400014004720ADF810000020ADF81600ADF8B4
:104C500012008DF8180004A95748FCF7EFF900205E
:104C6000ADF806000120ADF808000020ADF80A00FC
:104C7000ADF80C000820ADF8040001A94E48FCF77F
:104C800070FC0C20ADF8040001A94B48FCF769FC4E
:104C900009214948FCF7F4FF11214748FCF7F0FFD0
:104CA000012209214448FCF740FD0122112142481C
:104CB000FCF73BFD01214048FCF71CFD07B000BD9F
:104CC00000B587B001210220FCF78DF801213B4897
:104CD000FBF791FE4FF6FF70ADF814004720ADF8DA
:104CE00010000020ADF81600ADF812008DF8180085
:104CF00004A93348FCF7A2F90020ADF80600012012
:104D0000ADF808000020ADF80A00ADF80C00ADF8D1
:104D1000040001A92A48FCF724FC0420ADF8040093
:104D200001A92748FCF71DFC0820ADF8040001A9E3
:104D30002348FCF716FC0C20ADF8040001A920481C
:104D4000FCF70FFC03211E48FCF79AFF05211C48C5
:104D5000FCF796FF09211A48FCF792FF1121184829
:104D6000FCF78EFF012205211548FCF7DEFC01222D
:104D700009211348FCF7D9FC012203211048FCF754
:104D8000D4FC012211210E48FCF7CFFC01210C4874
:104D9000FCF7B0FC07B000BD10B5FFF70BFFFFF745
:104DA000E7FEFFF744FFFFF71DFFFFF7F2FEFFF7F7
:104DB00087FF10BD000C01400008004000081A00E9
:104DC0000004004008B501211020FBF7FFFF102070
:104DD0008DF8030003208DF802000120ADF80000DB
:104DE00069469848FBF736FD0220ADF80000694699
:104DF0009448FBF72FFD0420ADF800006946914868
:104E0000FBF728FD0820ADF8000069468D48FBF748
:104E100021FD1020ADF8000069468A48FBF71AFD15
:104E20002020ADF8000069468648FBF713FD08BD59
:104E30002DE9F74F82B09246BDF80A0000F1010B50
:104E4000584600F009FF044600227F4B00F07BFE2D
:104E5000CDE9000100227D4BDDE9000100F001FEFB
:104E6000804600224FF0804300F06DFE064600228F
:104E7000774B00F0F6FD044600F042FF754941F81B
:104E80002A0051F82A0000F013FF044622460B4680
:104E9000514671A001F024FB05B0BDE8F08F70B55C
:104EA00005460C46A1B22846FBF781FD0B2000F019
:104EB000FBF8A1B22846FBF77CFD70BD2DE9F0415F
:104EC00005460E4600246A48B0F9000000F0AAFE2C
:104ED0000746604850F82510384600F037FF00D2EA
:104EE000641C6348B0F9000000F09CFE0746594876
:104EF00050F82610384600F029FF00D2A41C2046A6
:104F0000BDE8F08170B5054600240AE0611C20462A
:104F1000FFF7D4FF264604EBD671491045F821006F
:104F2000A41C072CF2DB70BD0146514800880844E0
:104F300000B24F4A10801046B0F90000FA2801DD97
:104F4000FA2010804A48B0F90000704701464848EE
:104F50000088401A00B2464A10801046B0F900009E
:104F60001E2801DA1E2010804148B0F90000704769
:104F70003F48B0F9000070477CB504460025204644
:104F8000FFF7C0FF3B480078012810D100203949C5
:104F900008700846016800918088ADF80400364822
:104FA00090F90020DDE90001FFF742FF13E03348EC
:104FB000007801280FD100203049087008460168A8
:104FC00000918088ADF804002B4890F90020DDE9BD
:104FD0000001FFF72DFF284890F90000062822D293
:104FE000DFE800F003080D12171C01211548FFF738
:104FF00056FF18E002211348FFF751FF13E0042188
:105000001048FFF74CFF0EE008210E48FFF747FF5E
:1050100009E010210B48FFF742FF04E02021094876
:10502000FFF73DFF00BF00BF134890F90000401C90
:10503000062190FBF1F201FB1200401C40B20E4928
:1050400008707CBD0010014080842E4100407540F6
:10505000000059402C0500200D0A2564203A2064E8
:10506000697374616E63652025660D0A0000000097
:105070006600002058000020690000205E0000202B
:105080002D4800682D49B0FBF1F02D490870084605
:10509000007800EB4001C1EBC0104FF6FF7101EA50
:1050A000C0002849088070470146254A12784A43C3
:1050B0004FF0E0235A6100229A611A46126942F0C9
:1050C00001021A6100BF4FF0E022106900F00102F6
:1050D0001AB100F48032002AF5D04FF0E0221269B4
:1050E00022F001024FF0E0231A6100229A6170471A
:1050F0000146144A12884A434FF0E0235A610022C5
:105100009A611A46126942F001021A6100BF4FF01B
:10511000E022106900F001021AB100F48032002A86
:10512000F5D04FF0E022126922F001024FF0E023A7
:105130001A6100229A6170470000002000127A0074
:105140006A0000206C000020002904DA4A4211B2F3
:105150002D22027001E0202202704FF47A7291FB3E
:10516000F2F23032D3B2421C104613704FF47A720E
:1051700091FBF2F302FB1311642291FBF2F2303245
:10518000D3B2421C10461370642291FBF2F302FB6F
:1051900013110A2291FBF2F23032D3B2421C1046B4
:1051A00013700A2291FBF2F302FB131101F130029A
:1051B000D3B2421C10461370704708B50121082075
:1051C000FBF704FE4020ADF8000003208DF802003C
:1051D00014208DF803006946FE48FBF73BFB802056
:1051E000ADF8000003208DF8020014208DF80300B4
:1051F0006946F848FBF72EFB08BD1E2001E0411E62
:10520000C8B20028FBD1704741F2883000E0401E50
:105210000028FCD1704700B58020EE4910310860AD
:1052200040200860FFF7E9FFEA480830006808B945
:10523000012000E0002000F0800008B1002000BD47
:105240008020E44914310860FFF7D7FFE1480830B7
:10525000006800F0800008B10020F0E78020DD4900
:1052600014310860FFF7C9FF0120E8E700B54020CE
:10527000D84914310860FFF7C0FF8020D5491431A8
:105280000860FFF7BAFF4020D24910310860FFF7ED
:10529000B4FF8020CF4910310860FFF7AEFF00BD9A
:1052A00000B54020CB4914310860FFF7A6FF8020ED
:1052B000C84914310860FFF7A0FF4020C5491031EC
:1052C0000860FFF79AFF4020C24914310860FFF7D9
:1052D00094FF00BD00B54020BE4914310860FFF7BF
:1052E0008CFF8020BB4910310860FFF786FF40200B
:1052F000B84910310860FFF780FF4020B5491431EC
:105300000860FFF77AFF00BD00B54020B1491431B5
:105310000860FFF772FF8020AE4910310860FFF788
:105320006CFF4020AB4910310860FFF766FFA948C9
:105330000830006800F0800038B14020A5491431E1
:105340000860FFF75AFF002000BD4020A14914313A
:105350000860FFF752FF0120F6E700B50246082378
:105360001BE040209B4914310860FFF746FF02F024
:10537000800020B1802097491031086003E0802030
:105380009449143108605006020EFFF736FF4020A2
:10539000904910310860FFF730FF1800A3F10101B8
:1053A000CBB2DED140208B491431086000BD00B57E
:1053B00008230022802087491031086015E050063C
:1053C000020E4020834914310860FFF716FF402089
:1053D000804910310860FFF710FF7E4808300068F0
:1053E00000F0800008B142F001021800A3F10101B1
:1053F000CBB2E4D14020774914310860104600BD9B
:1054000070B506460C461546FFF705FF08B90020A3
:1054100070BD3046FFF7A1FFFFF776FF18B9FFF721
:1054200025FF0020F4E72046FFF797FFFFF76CFF0A
:105430002846FFF792FFFFF767FFFFF717FF0120EE
:10544000E6E770B504460D46FFF7E5FE08B9002013
:1054500070BD2046FFF781FFFFF756FF30B9FFF719
:1054600005FF01205C4908700020F1E72846FFF79E
:1054700074FFFFF749FFFFF7CEFE611CC8B2FFF7CC
:105480006CFFFFF741FFFFF792FF0646FFF722FF91
:10549000FFF7ECFE3046DBE770B505460E46FFF73A
:1054A000BAFE08B9002070BD2846FFF756FFFFF787
:1054B0002BFF30B9FFF7DAFE0120474908700020C2
:1054C000F1E73046FFF749FFFFF71EFFFFF7A3FEA6
:1054D000691CC8B2FFF741FFFFF716FF00240CE07C
:1054E000FFF765FF3D490855052C02D1FFF7F2FE95
:1054F00001E0FFF7D5FE601CC4B2062CF0DBFFF71D
:10550000B5FE0120CFE700B5142200213C20FFF7B3
:1055100077FF002202213C20FFF772FF2722202183
:105520003020FFF76DFF00BD01B502E00098401E7E
:10553000009000980028F9D108BD01B509E00020CD
:1055400000E0401C4CF250318842FAD30099491EC9
:10555000009100990029F2D108BD06E042F6E06111
:1055600000BF0A00A1F10101FBD10200A0F101007E
:10557000F4D170472DE9FF4703213C20FFF78CFF52
:10558000164840781549097840EA012000B21449CC
:1055900008801248C0781149897840EA012000B299
:1055A000104908800D4840790C49097940EA0120EA
:1055B00000B20D4908800A48B0F9000000F03BFB3A
:1055C00006460F460748B0F9000000F034FB3246AB
:1055D0003B460BE0000C01408A00002075000020D3
:1055E0007E0000208000002082000020CDE9000124
:1055F00001F0BAFD04464A4A4A4B00F032FA8046AE
:105600000022494B00F086F9CDE9020100F078FB59
:10561000464908600846006800F04AFB04462246F6
:105620000B4643A000F05CFF44494048006800F08E
:1056300083FB05D342493D48006800F087FB01D257
:105640004FF0000A3D493948006800F07FFB07D859
:105650003C493648006800F06FFB01D84FF0010A62
:1056600038493248006800F071FB07D236492F48AC
:10567000006800F061FB01D24FF0020A32492B486A
:10568000006800F063FB07D830492848006800F044
:1056900053FB01D24FF0030A2C492448006800F064
:1056A00055FB07D22A492148006800F045FB01D28A
:1056B0004FF0040A26491D48006800F047FB07D256
:1056C00024491A48006800F037FB01D24FF0050A60
:1056D00020491648006800F039FB01D2012400E09F
:1056E00000241D491148006800F026FB01D201206A
:1056F00000E0002004400CB14FF0060A16490B48A8
:10570000006800F023FB07D20D490848006800F04C
:1057100013FB01D24FF0070A504604B0BDE8F087F2
:10572000775AF01ADCA54C40008066408C000020BF
:10573000616E676C653D25660D0A00000000F04152
:105740000000AF43000078420000D2420000204336
:1057500000004843000096430000A54308B54FF4FD
:10576000C060FAF7F1FD06208DF8000000208DF8EA
:1057700001008DF8020001208DF803006846FAF759
:10578000E8FD08BD0EB501210520FBF71FFBFFF763
:10579000E5FF0120ADF8080028208DF80B0002A9D4
:1057A0000A48FBF757F800210846FBF769F9012082
:1057B000009000208DF8040008208DF805000120DD
:1057C0008DF806006846FAF765FF0EBD0008014037
:1057D00000487047DC74000810B50446FFF7F8FF76
:1057E0000068005D00F0010010BD40EA01039B0766
:1057F00003D009E008C9121F08C0042AFAD203E046
:1058000011F8013B00F8013B521EF9D27047D2B2A9
:1058100001E000F8012B491EFBD270470022F6E799
:1058200010B513460A4604461946FFF7F0FF204616
:1058300010BD30B505462A460B4612F8010B13F889
:10584000014B08B1A042F8D01CB1002802D06D1C59
:10585000F1E7284630BD421C10F8011B0029FBD19E
:10586000801A7047CBB203E00178994203D0401C04
:10587000521EF9D20020704730B50446002003467E
:1058800000E05B1C934203D2E05CCD5C401BF8D08F
:1058900030BD034611F8012B00F8012B002AF9D185
:1058A000184670472DE9F04791460F46804604465A
:1058B000002614F8015B2DB1FFF78AFF0068405DF8
:1058C000C007F6D12B2D02D02D2D18D0641E4A46CC
:1058D0003946204600F0BCFA27B13968A14201D10F
:1058E000C7F8008071054FF002040BD54042002834
:1058F00003DD00F053FE0460A007BDE8F08746F426
:105900008066E4E70028F8DA00F048FE04606FF0F3
:105910000040F2E72DE9FE4F804681EA0300C00F08
:105920000C46009021F0004123F00045B8EB020046
:10593000A94105D24046214690461C460B460246E8
:1059400023F00040104347D0270DC7F30A00C3F3EC
:105950000A510290401A019040286BDAC3F31300F9
:1059600040F4801B0098924620B10023D2EB030A3A
:1059700063EB0B0B01985946C0F14002504600F012
:1059800036FA06460D4650465946019A00F04EFA40
:1059900010EB08006141002487EA115284EAE773A2
:1059A0001A4340D0009A62B3019A012A4FEA075283
:1059B00015DC001B61EB02014FF0004202EA0752C6
:1059C000CDE90042001C41F5801132462B4600F023
:1059D00021FB03B0BDE8F08F40462146F9E7001BEC
:1059E00061EB0201001C41F5801300185B41201897
:1059F000A2F5001747EB030140EAD570B6196D41D7
:105A000011E06D084FEA360645EAC0754FEA0752C5
:105A1000001B61EB0201001C41F5801149084FEAAF
:105A200030000019514132462B4603B0BDE8F04F1B
:105A300000F0E3BA0098012240000023D0EB0202FC
:105A400063EBE073009821464FEAE074B8EB000086
:105A500061EB0401E9E783F000435BE781F000417B
:105A600058E72DE9FE4F81EA030404F0004421F0D9
:105A7000004100944FF0000B23F0004350EA010472
:105A80005ED052EA03045BD0C3F30A54C1F30A5553
:105A90002C44A4F2F3340194A0FB0254C1F313018B
:105AA00041F48011C3F3130343F4801301FB024458
:105AB00000FB034E840A970A44EA815447EA83575D
:105AC000A4FB076802958D0A05FB07854FEA932C16
:105AD00004FB0C542705029D4FEA065847EA163787
