:020000040800F2
:100000009806002045010008511F0008531F0008F2
:100010005D1F0008611F0008651F00080000000048
:10002000000000000000000000000000691F000840
:100030006B1F0008000000006D1F00086F1F000804
:100040005F0100085F0100085F0100085F01000810
:100050005F0100085F010008452200085F010008F9
:100060005F0100085F0100085F0100085F010008F0
:100070005F0100085F0100085F0100085F010008E0
:100080005F0100085F0100085F0100085F010008D0
:100090005F0100085F0100085F0100085F010008C0
:1000A0005F0100085F0100085F0100085F010008B0
:1000B000D1370008B51F0008912100085F01000832
:1000C0005F0100085F0100085F0100085F01000890
:1000D0005F010008771F00085B2200085F0100082D
:1000E0005F0100085F0100085F0100085F01000870
:1000F0005F0100085F0100085F0100085F01000860
:100100005F0100085F010008232200085F0100086A
:10011000A53700085F0100085F0100085F010008C3
:100120005F0100085F0100085F0100085F0100082F
:10013000DFF80CD004F0CAFA00480047851E00081A
:10014000980600200648804706480047FEE7FEE77D
:10015000FEE7FEE7FEE7FEE7FEE7FEE7FEE7FEE777
:1001600047020008310100080CB500200190009002
:100170006C48006840F480306A49086000BF6948F4
:10018000006800F4003000900198401C0190009835
:1001900018B90198B0F5A06FF1D16248006800F479
:1001A000003010B10120009001E000200090009884
:1001B000012843D15C48006840F010005A490860AB
:1001C0000846006820F0030008600846006840F018
:1001D0000200086053484068524948600846406839
:1001E00048600846406840F48060486008464068BF
:1001F00020F47C1048600846406840F4E8104860ED
:100200000846006840F08070086000BF45480068FC
:1002100000F000700028F9D04248406820F0030048
:10022000404948600846406840F00200486000BF0E
:100230003C48406800F00C000828F9D10CBD10B50E
:10024000FFF792FF10BD10B53648006840F001007E
:1002500034490860084640683449084031494860DC
:1002600008460068324908402E4908600846006880
:1002700020F4802008600846406820F4FE004860B2
:100280004FF41F008860FFF7DAFF4FF00060294944
:10029000086010BD10B5002100200022214B5B68D2
:1002A00003F00C0121B1042906D0082928D107E068
:1002B000214B224C236027E01F4B204C236023E07E
:1002C000184B5B6803F47010164B5B6803F48032C4
:1002D000022303EB904022B9194B4343174C236090
:1002E0000DE0104B5B6803F4003323B1144B434320
:1002F000124C236003E0104B4343104C236003E097
:100300000D4B0E4C236000BF00BF064B5B68C3F370
:1003100003130C4CE15C094B1B68CB40074C23607A
:1003200010BD000000100240002002400000FFF855
:10033000FFFFF6FE08ED00E000127A00000000204A
:1003400000093D000400002031490143314A116099
:10035000704770B5002100230F22C47804B32D4CE0
:10036000246804F4E064C4F5E064210AC1F10403E4
:10037000CA40447804FA03F1847814402143090107
:10038000254C0678A155047804F01F050124AC40E3
:1003900005786D11AD0005F1E025C5F8004109E0D3
:1003A000047804F01F050124AC401C4D067876113A
:1003B00045F8264070BD1A4A0A400243154B1B1FE0
:1003C0001A60704739B1134A121D12680243114B6B
:1003D0001B1D1A6006E00F4A121D126882430D4B66
:1003E0001B1D1A607047042808D14FF0E0210969ED
:1003F00041F004014FF0E022116107E04FF0E021ED
:10040000096921F004014FF0E022116170470000FA
:100410000000FA050CED00E000E400E080E100E0FF
:1004200080FFFF1F002044490860091D0860091D66
:100430000860091D086041483F4914310860704751
:1004400000213D498279002A3AD00A4612680368A1
:100450009A430B461A600A1D126803689A430B1DE3
:100460001A60027911440A6803681A430A60324A22
:100470000832126803689A432F4B08331A601A1D1A
:10048000126803689A432C4B0C331A604279102A85
:100490000ED11A1F126803681A43274B08331A60DB
:1004A0001A1D126803681A43234B0C331A600DE0BF
:1004B0002149427911440A6803681A430A6005E039
:1004C000027911440A6803689A430A607047002160
:1004D000016001710C214171002181717047164941
:1004E000103109680143144A103211607047014607
:1004F0000020114A143212680A400AB1012000E0BB
:10050000002070470C4914310860704701460020F4
:100510000022094B1B6803EA0102074B14331B68D6
:100520000B4013B10AB1012000E0002070470249DE
:10053000143108607047000000040140FFFF0F0005
:1005400010B50446CC48844208D10121042000F0B3
:100550002DFB0021042000F029FB46E0C74884421F
:1005600008D10121082000F021FB0021082000F023
:100570001DFB3AE0C248844208D10121102000F05E
:1005800015FB0021102000F011FB2EE0BD48844235
:1005900008D10121202000F009FB0021202000F0DB
:1005A00005FB22E0B848844208D10121402000F038
:1005B000FDFA0021402000F0F9FA16E0B348844229
:1005C00008D10121802000F0F1FA0021802000F004
:1005D000EDFA0AE0AE48844207D10121801500F00F
:1005E000E5FA0021A01500F0E1FA10BD10B50121D7
:1005F000084600F0DBFA0021012000F0D7FA10BD18
:100600002DE9F041024600250026002000230024A9
:10061000002791F803C00CF00F0591F803C00CF00F
:10062000100CBCF1000F03D091F802C04CEA050594
:1006300091F800C0BCF1000F31D0146800202BE00D
:100640004FF0010C0CFA00F3B1F800C00CEA0306FD
:100650009E4220D183004FF00F0C0CFA03F7BC43ED
:1006600005FA03FC4CEA040491F803C0BCF1280F1E
:1006700006D14FF0010C0CFA00FCC2F814C00AE0DD
:1006800091F803C0BCF1480F05D14FF0010C0CFAF2
:1006900000FCC2F810C0401C0828D1D31460B1F887
:1006A00000C0BCF1FF0F34DD546800202EE000F1E3
:1006B000080C4FF0010808FA0CF3B1F800C00CEA7E
:1006C00003069E4221D183004FF00F0C0CFA03F772
:1006D000BC4305FA03FC4CEA040491F803C0BCF1E6
:1006E000280F05D100F1080C08FA0CF8C2F81480A4
:1006F00091F803C0BCF1480F07D100F1080C4FF08E
:10070000010808FA0CF8C2F81080401C0828CED363
:100710005460BDE8F0814FF6FF71018002218170C5
:100720000421C17070470246002093680B400BB152
:10073000012000E0002070470146886880B27047C1
:1007400002460020D3680B400BB1012000E00020DE
:1007500070470146C86880B27047016170474161C7
:1007600070470AB1016100E041617047C1607047A4
:100770004FF480320A4382618161826182698269B9
:10078000704702460020434B18684FF680731840AC
:1007900040EA021008433F4B186070473E49C86169
:1007A0007047F0B50A46002300240021002500F020
:1007B0000046B6F1004F02D1364EF16901E0354EE8
:1007C0007168C0F3034583B200F44016B6F5401FCC
:1007D00008D121F070612F4E766826F070662D4F9B
:1007E0007E6012E000F48016B6F5801F06D1032665
:1007F00006FA05F4A14341F0706106E0460D3601AA
:1008000003FA06F6B14341F0706122B1460D36019C
:1008100003FA06F6314300F00046B6F1004F02D16C
:100820001C4EF16101E01B4E7160F0BD30B500223D
:100830008B071C0F0F2303FA04F2164B08338C109E
:1008400053F824309343134C08348D1044F825306A
:1008500023468C1053F824308C07240F00FA04F43C
:1008600023430C4C08348D1044F8253030BD0A4920
:10087000DC3108607047000000080140000C0140B6
:10088000001001400014014000180140001C01400C
:10089000002001400000014000002042DF480068C5
:1008A00040F00100DD49086008464068DC49084026
:1008B000DA49486008460068DA490840D7490860C4
:1008C0000846006820F4802008600846406820F44C
:1008D000FE0048604FF41F0088607047CF490968E8
:1008E00021F48031CD4A11601146096821F480213C
:1008F0001160B0F5803F03D0B0F5802F0ED106E037
:10090000C649096841F48031C44A116007E0C3490F
:10091000096841F4A021C14A116000E000BF00BF96
:10092000704710B501460022002300204A11012A19
:1009300002D1BA4C236806E0022A02D1B74C236ADE
:1009400001E0B64C636A01F01F02012494401C4090
:100950000CB1012000E0002010BD38B5002000904F
:100960000024002500BF3120FFF7DBFF054600987B
:10097000401C00900098B0F5A06F01D0002DF2D07F
:100980003120FFF7CEFF08B1012400E0002420460B
:1009900038BD01460020A14A106820F0F80040EA66
:1009A000C10010607047A0490860704702460020EF
:1009B0009A4B586820F47C1042EA01031843974B85
:1009C0005860704798490866704701460020934A6E
:1009D000506820F003000843506070478F4840681B
:1009E00000F00C007047014600208C4A506820F04F
:1009F000F00008435060704701460020874A506865
:100A000020F4E06008435060704701460020834AAC
:100A1000506820F4605040EAC1005060704729B12E
:100A20007E4A527A02437D4B5A7204E07B4A527AE4
:100A300082437A4B5A7270477B49D83108607047BD
:100A400001460020754A506820F440400843506039
:100A500070470021714A20321170704A82F82010CC
:100A6000012802D004280AD104E001216B4A203277
:100A7000117005E00521694A2032117000E000BFC5
:100A800000BF70476949086070476449096A0143BB
:100A9000624A11627047654944390860704730B551
:100AA00000210022002400235C4D6D6805F00C013C
:100AB00021B1042905D0082923D105E05C4D05604A
:100AC00022E05B4D05601FE0544D6D6805F4701227
:100AD000524D6D6805F48034022505EB92421CB935
:100AE000544D554305600BE04C4D6D6805F40035E1
:100AF0001DB1504D5543056002E04D4D5543056015
:100B000002E04B4D056000BF00BF444D6D6805F02D
:100B1000F0010909484D6B5C0568DD4045603F4DBB
:100B20006D6805F4E061090A434D6B5C4568DD4082
:100B300085603A4D6D6805F46051C90A3E4D6B5CA5
:100B40004568DD40C560354D6D6805F44041890B51
:100B50003A4D6B5CC568B5FBF3F5056130BD29B155
:100B60002E4A526902432D4B5A6104E02B4A5269C6
:100B700082432A4B5A61704729B1284A926902433D
:100B8000264B9A6104E0254A92698243234B9A617D
:100B9000704729B1214AD2690243204BDA6104E04F
:100BA0001E4AD26982431D4BDA61704729B11B4A44
:100BB000D2680243194BDA6004E0184AD2688243D3
:100BC000164BDA60704729B1144A12690243134B7D
:100BD0001A6104E0114A12698243104B1A6170478E
:100BE00012494039086070470F49C86470470B4983
:100BF000C87170470948406A40F0807007494862F0
:100C0000704701460020054A92680A400AB1012057
:100C100000E00020704701498872704700100240D0
:100C20000000FFF8FFFFF6FE00004242800442424F
:100C300000127A0000093D0014000020240000206A
:100C400010B50446FE48844208D10121C014FFF7C4
:100C5000ADFF0021E014FFF7A9FFC4E0B4F1804F1D
:100C600008D101210846FFF7AEFF00210120FFF760
:100C7000AAFFB8E0F348844208D101210220FFF71F
:100C8000A2FF00210220FFF79EFFACE0EE48844265
:100C900008D101210420FFF796FF00210420FFF76F
:100CA00092FFA0E0E948844208D101210820FFF723
:100CB0008AFF00210820FFF786FF94E0E448844281
:100CC00008D101211020FFF77EFF00211020FFF73F
:100CD0007AFF88E0DF48844208D101212020FFF715
:100CE00072FF00212020FFF76EFF7CE0DA4884428B
:100CF00008D101214014FFF759FF00216014FFF7CC
:100D000055FF70E0D548844209D10121C804FFF79E
:100D10004DFF00214FF40020FFF748FF63E0D0486B
:100D2000844209D101210805FFF740FF00214FF45B
:100D30008010FFF73BFF56E0CA48844209D10121E9
:100D40004805FFF733FF00214FF40010FFF72EFF97
:100D500049E0C548844208D101214020FFF733FF14
:100D600000214020FFF72FFF3DE0C048844208D11A
:100D700001218020FFF727FF00218020FFF723FFBC
:100D800031E0BB48844208D101218015FFF71BFFE9
:100D90000021A015FFF717FF25E0B648844209D1CE
:100DA00001210804FFF702FF00214FF48030FFF714
:100DB000FDFE18E0B048844209D101214804FFF744
:100DC000F5FE00214FF40030FFF7F0FE0BE0AB48DA
:100DD000844208D101218804FFF7E8FE00214FF486
:100DE0008020FFF7E3FE10BD00220288944B98425A
:100DF0000ED0994B98420BD0B0F1804F08D0914B58
:100E0000984205D0904B984202D0904B984204D122
:100E10004FF68F731A404B881A438D4B984207D078
:100E20008C4B984204D04FF6FF431A40CB881A43AC
:100E300002808B8883850B880385814B98420BD079
:100E4000854B984208D08B4B984205D08A4B9842EC
:100E500002D08A4B984201D10B7A03860123838208
:100E6000704770B5002400220023058C4FF6FE76F3
:100E700035400584028C8388048B4FF68F752C4097
:100E8000B51E2C400D882C43751E2A400D892A431F
:100E90004D882A436A4DA8420BD06F4DA84208D016
:100EA000744DA84205D0744DA84202D0734DA8429B
:100EB00013D14FF6F7752A404D892A434FF6FB753B
:100EC0002A408D882A434FF6FF652B404FF6FF5589
:100ED0002B408D892B43CD892B4383800483CD8880
:100EE0008586028470BD70B5002400220023058C25
:100EF0004FF6EF7635400584028C8388048B48F6E4
:100F0000FF752C404FF6FF452C400D884FF6FF76BD
:100F100006EA05252C434FF6DF752A400D8906EABF
:100F200005152A434D8806EA05152A43444DA84273
:100F300002D0494DA8421DD14FF67F752A404D89F8
:100F40004FF6FF7606EA05152A434FF6BF752A408D
:100F50008D8806EA05152A434FF6FF352B404FF2E0
:100F6000FF752B408D8906EA85052B43CD8906EA5E
:100F700085052B4383800483CD880587028470BD5B
:100F800070B5002400220023058C4FF6FF66354023
:100F90000584028C8388848B4FF68F752C404FF626
:100FA000FC752C400D882C434FF6FF552A400D89C7
:100FB0004FF6FF7606EA05252A434D8806EA052501
:100FC0002A431F4DA84202D0234DA8421DD14FF203
:100FD000FF752A404D894FF6FF7606EA05252A431C
:100FE0004FF6FF352A408D8806EA05252A434EF63E
:100FF000FF752B404DF6FF752B408D8906EA0515D0
:101000002B43CD8906EA05152B4383808483CD8845
:101010008587028470BD70B5002200230024058CF2
:101020004EF6FF7635400584038C8488828B48F623
:10103000FF752A404FF6FF452A400D8820E000004A
:10104000002C01400004004000080040000C00405B
:10105000001000400014004000340140004C0140EA
:10106000005001400054014000180040001C0040A6
:101070000020004000400140004401400048014081
:101080004FF6FF7606EA05252A434DF6FF752B40FD
:101090000D8906EA05352B434D8806EA05352B43B5
:1010A000FA4DA84202D0FA4DA84208D14BF6FF757E
:1010B0002C408D894FF6FF7606EA85152C438480F7
:1010C0008283CD88A0F84050038470BD828B4FF29C
:1010D000FF331A408283828B4FF6FF7303EA0123AA
:1010E0001A4382837047F0B50C4615460022002152
:1010F0000026078C4EF6FF7C07EA0C070784828BDC
:10110000018C4FF6FF7707EA043640F6FF473A4076
:101110004FF6FF7707EA05273A434FF6FF7707EACE
:1011200003373A43D94FB8420ED0D94FB8420BD00B
:10113000B0F1804F08D0D74FB84205D0D64FB84253
:1011400002D0D64FB84206D14DF6FF77394046F46B
:101150008057394305E047F6FF57394044F480573C
:10116000394382830184F0BD828B4FF6F3731A40BA
:101170008283828B0A4382837047F0B50C46154602
:10118000002200210026078C4FF6FF6C07EA0C07AF
:101190000784828B018C4FF6FF7707EA04264FF60F
:1011A0000C773A404FF6FF7707EA03172F433A438D
:1011B000B64FB8420ED0B64FB8420BD0B0F1804F08
:1011C00008D0B44FB84205D0B34FB84202D0B34FA5
:1011D000B84206D14FF6FF57394046F4807739437D
:1011E00005E04FF2FF57394044F48077394382835A
:1011F0000184F0BD028B4FF2FF331A400283028B51
:101200004FF6FF7303EA01231A4302837047F0B5D8
:101210000C461546002200210026078C4FF6EF7C75
:1012200007EA0C070784028B018C4FF6FF7707EA69
:10123000041640F6FF473A404FF6FF7707EA0337B8
:101240003A434FF6FF7707EA05273A438F4FB842F4
:101250000ED08F4FB8420BD0B0F1804F08D08D4FD9
:10126000B84205D08C4FB84202D08C4FB84206D15C
:101270004FF6DF77394046F01007394305E04FF667
:101280005F77394044F01007394302830184F0BD91
:10129000028B4FF6F3731A400283028B0A430283D8
:1012A0007047F0B50C46154600220021068C4FF61B
:1012B000FE773E400684028B018C4FF60C7632405E
:1012C0007E1C06EA03162E433243704EB0420ED007
:1012D0006F4EB0420BD0B0F1804F08D06D4EB0428F
:1012E00005D06D4EB04202D06C4EB04206D14FF6E2
:1012F000FD76314044F00106314305E04FF6F576C6
:10130000314044F00106314302830184F0BD70B5E1
:1013100005460C465D4885420ED05D4885420BD09F
:10132000B5F1804F08D05B48854205D05A488542C8
:1013300002D05A48854200D100E000BF208850B951
:101340002389A28861882846FFF7ABFFE1882846F9
:10135000FFF79EFF25E0208804280AD12389A28870
:1013600061882846FFF753FFE1882846FFF742FFD0
:1013700017E0208808280AD12389A2886188284696
:10138000FFF7FBFEE1882846FFF7EEFE09E0238920
:10139000A28861882846FFF7A6FEE1882846FFF765
:1013A00095FE70BD2DE9F04105460C46002601274B
:1013B000608808B9022600E00026A088012801D133
:1013C000022700E001272088A0B92389A28861882C
:1013D0002846FFF766FFE1882846FFF759FF238973
:1013E0003A4631462846FFF712FFE1882846FFF7C4
:1013F00001FF13E02389A28861882846FFF707FFD1
:10140000E1882846FFF7F6FE23893A46314628460A
:10141000FFF747FFE1882846FFF73AFFBDE8F08174
:101420000A884B881A438B881A43CB881A430B8946
:101430001A434B891A438B891A43A0F844207047FA
:101440004FF6FF71818000210180C18041800172CF
:1014500070470021018041808180C18001814181EC
:101460008181C181704700210180418001218180FB
:101470000021C1800181704700210180418081806D
:10148000C18001814181818170470000002C0140B1
:10149000003401400004004000080040000C0040FF
:1014A00021B1028842F00102028004E002884FF676
:1014B000FE731A400280704731B1B0F8442042F404
:1014C0000042A0F8442005E0B0F84420C2F30E0228
:1014D000A0F8442070471AB183890B43838102E04E
:1014E00083898B43838170478182704741EA02037D
:1014F000A0F8483070471AB183890B43838102E01A
:1015000083898B438381704701894FF6F8721140BC
:10151000018170470A46002101894FF68F731940F7
:1015200011430181704730B504460D4629462046D7
:10153000FFF7F0FF208940F00700208130BD2DE942
:10154000F04104460D4616461F46602D06D13B4627
:10155000012231462046FFF75AFE05E03B460122B4
:1015600031462046FFF79DFE29462046FFF7D2FF71
:10157000208940F007002081BDE8F08130B50C469D
:1015800000210189C9B24FF6FF7505EA032515430D
:1015900025432943018130BD2DE9F04105460E4622
:1015A00017469846002443463A4631462846FFF7F8
:1015B000E5FF2C894FF6F870044044F007044FF61D
:1015C0008F70044044F070042C81BDE8F081F0B5C8
:1015D00004460D4616461F463B46324629462046DF
:1015E000FFF7CCFF208940F480402081F0BD0185C9
:1015F000828270470A46002101884FF68F73194096
:10160000114301807047F0B50C4615461E46002177
:10161000002200230189028B038C4FF6F8773940B2
:1016200021434FF6FC473A4040F201173A434FF648
:10163000DD773B404FF6FF7707EA06172F433B4322
:10164000018102830384F0BD0A460021018B4FF61D
:101650008F7319401143018370470A460021018BA3
:1016600048F6FF7319404FF6FF7303EA022319434C
:10167000018370470A460021818B4FF68F73194012
:101680001143818370470A460021818B48F6FF731E
:1016900019404FF6FF7303EA022319438183704711
:1016A00021B1028842F08002028004E002884FF6F5
:1016B0007F731A400280704721B1828842F0040291
:1016C000828004E082884FF6FB731A408280704764
:1016D00021B1828842F00802828004E082884FF6BD
:1016E000F7731A408280704721B1828842F001026C
:1016F000828004E082884FF6FE731A408280704731
:101700000A460021018B4FF6F773194011430183FC
:1017100070470A460021018B4FF2FF7319404FF6C4
:10172000FF7303EA02231943018370470A4600212D
:10173000818B4FF6F77319401143818370470A4636
:101740000021818B4FF2FF7319404FF6FF7303EABC
:1017500002231943818370470A460021018B4FF60B
:10176000FB7319401143018370470A460021018B26
:101770004FF6FF3319404FF6FF7303EA0223194374
:10178000018370470A460021818B4FF6FB73194095
:101790001143818370470A460021818B4FF6FF3346
:1017A00019404FF6FF7303EA022319438183704700
:1017B0000A460021018B4FF67F73194011430183C4
:1017C00070470A460021018BC1F30E014FF6FF73EB
:1017D00003EA02231943018370470A460021818BE3
:1017E0004FF67F7319401143818370470A460021E9
:1017F000818BC1F30E014FF6FF7303EA02231943F5
:10180000818370470A460021018C4FF6FD73194011
:101810001143018470470A460021018C4FF6F7738B
:1018200019401143018470470A460021018C4FF68C
:10183000DF7319404FF6FF7303EA02131943018463
:1018400070470A460021018C4FF67F7319404FF60E
:10185000FF7303EA02131943018470470A4600210B
:10186000018C4FF6FF5319404FF6FF7303EA022332
:101870001943018470470A460021018C4FF2FF731F
:1018800019404FF6FF7303EA02231943018470479E
:101890000A460021018C4DF6FF7319404FF6FF7385
:1018A00003EA023319430184704730B50023012451
:1018B0008C40A3B2048C9C430484048C02FA01F58E
:1018C000ADB22C43048430BD30B5002304248C40D9
:1018D000A3B2048C9C430484048C02FA01F5ADB2DB
:1018E0002C43048430BD70B5034600200024184604
:1018F000183001258D40ACB21D8CA5431D8409B163
:10190000082909D100EB6100056825F07005056024
:101910000568154305600EE00D1FC5F34E0528440C
:10192000056825F4E045056005684FF6FF7606EA90
:1019300002263543056070BD21B1028842F00202E3
:10194000028004E002884FF6FD731A40028070475F
:1019500021B1028842F00402028004E002884FF6BE
:10196000FB731A400280704721B1828842F08002E6
:10197000828004E082884FF67F731A40828070472D
:1019800002884FF6F7731A40028002880A430280E9
:10199000704782884FF68F731A40828082880A438C
:1019A0008280704702894FF6F8731A4002810289DB
:1019B0000A430281704702894FF67F731A40028101
:1019C00002890A430281704781847047818570478C
:1019D000818670470187704781877047A0F8401063
:1019E000704702884FF6FF431A40028002880A437C
:1019F000028070470146888E70470146088F704705
:101A00000146888F70470146B1F840007047014693
:101A1000888C70470146088D704702460020138A63
:101A20000B400BB1012000E000207047CA43028246
:101A3000704730B50246002000230024158A05EACD
:101A40000103958905EA010413B10CB1012000E0FE
:101A5000002030BDCA4302827047000010B5044622
:101A6000FB48844209D101218803FFF79FF8002138
:101A70004FF48040FFF79AF832E0F648844209D1EB
:101A800001214804FFF79FF800214FF40030FFF7D1
:101A90009AF825E0F048844209D101218804FFF733
:101AA00092F800214FF48020FFF78DF818E0EB4802
:101AB000844209D10121C804FFF785F800214FF4C1
:101AC0000020FFF780F80BE0E548844208D10121AF
:101AD0000805FFF778F800214FF48010FFF773F83E
:101AE00010BD2DE9F04786B005460E460024A246FB
:101AF00000BFA1460027B08900B100BF2F462C8A45
:101B00004CF6FF700440F08804432C82AC894EF6FA
:101B1000F3100440B08831890843718908430443B5
:101B2000AC81AC8A4FF6FF400440B0890443AC82DC
:101B300001A8FEF7B4FFC648874202D1DDF810A025
:101B400001E0DDF80CA0A88900F4004040B10AEBE8
:101B5000CA0000EB0A1031684900B0FBF1F807E059
:101B60000AEBCA0000EB0A1031688900B0FBF1F8FB
:101B70006420B8FBF0F004012009642101FB108906
:101B8000A88900F4004040B1322000EBC900B0FB4E
:101B9000F1F000F00700044308E0322000EB0910E8
:101BA0006421B0FBF1F000F00F0004432C8106B07B
:101BB000BDE8F0874FF41651016000218180C1809B
:101BC00001810C21418100218181704710B50246BD
:101BD0000020108A4FF2FF0318400B884C882343E3
:101BE0008C882343CC8823431843108210BD0021E6
:101BF000018041808180C180704721B1828942F497
:101C00000052828104E082894DF6FF731A4082817E
:101C10007047F0B50346002400260025002040F65A
:101C20006A17B94200D100BF1846C1F3421401F04F
:101C30001F06012707FA06F5012C01D10C3004E03C
:101C4000022C01D1103000E014301AB107682F4384
:101C5000076002E00768AF430760F0BD1AB1838AEE
:101C60000B43838202E0838A8B4383827047028A1C
:101C70004FF6F0731A400282028A0A4302827047CA
:101C800082894FF2FF731A40828182890A438281DE
:101C9000704721B1828942F00202828104E0828988
:101CA0004FF6FD731A4082817047028A4FF6DF7348
:101CB0001A400282028A0A430282704721B1028AD4
:101CC00042F48042028204E0028A4BF6FF731A401B
:101CD00002827047C1F308028280704701468888FB
:101CE000C0F308007047818941F00101818170478C
:101CF000028BD2B20283028B42EA01220283704736
:101D0000028B02F47F420283028B0A4302837047F4
:101D100021B1828A42F02002828204E0828A4FF658
:101D2000DF731A408282704721B1828A42F010022A
:101D3000828204E0828A4FF6EF731A4082827047F3
:101D400021B1828A42F00802828204E0828A4FF640
:101D5000F7731A408282704721B1828942F40042AF
:101D6000828103E08289C2F30E028281704721B131
:101D7000828A42F40062828204E0828A4FF2FF7318
:101D80001A4082827047828A4FF6FB731A40828221
:101D9000828A0A438282704721B1828A42F002021B
:101DA000828204E0828A4FF6FD731A408282704775
:101DB00002460020B1F5007F00D100BF13880B4020
:101DC0000BB1012000E00020704701F40072B2F571
:101DD000007F00D100BFCA430280704770B5024641
:101DE000002400230025002040F66A16B14200D1ED
:101DF00000BFC1F3421501F01F03012606FA03F3E9
:101E0000012D02D19689334006E0022D02D1168AB7
:101E1000334001E0968A33400C12012606FA04F49E
:101E20001688344013B10CB1012000E0002070BDD1
:101E300010B50022002340F66A14A14200D100BF71
:101E40000A1201249440A3B2DC43048010BD0000B8
:101E5000003801400044004000480040004C004071
:101E60000050004010B54FF4E13001F0ECFE00F0FE
:101E700073FA01F0A7FE10BD00BF0100A0F1010040
:101E8000FBD170474FF4A060FEF75EFA00202049B6
:101E9000087000F07CFB4FF4164000F0CBFA00F025
:101EA00022FF01F0C6F800F0D0FE01F040FA01F088
:101EB000EBF9FFF7D7FF17A000F058FC27E019480F
:101EC000007878B101F0ECF804460020154908705C
:101ED00015A000F04BFC214617A000F047FC20465F
:101EE00000F04BFB1548006820B101F0E6FC002033
:101EF0001249086000F0E3FC30B10521104800F001
:101F000017FB0020024908700EA000F02FFCD6E756
:101F10004D000020CFB5CDB3C6F4B6AF2E2E2E2E79
:101F20002E2E000028000020B5B1C7B0B7BDCEBB33
:101F3000CEAAA3BA00000000256300002C000020F8
:101F40003800002072756E6E696E670D0A00000021
:101F50007047E3A002F094FD00BFFEE700BFFEE77C
:101F600000BFFEE700BFFEE770477047704710B53F
:101F700000F04EFA10BD70B5DE4DDF4E40F2255137
:101F8000DE48FFF72BFFA0B1DDA000F0EFFBDB4840
:101F9000FFF7A4FEC4B2322C06D10120DF4908604D
:101FA000DFA000F0E3FB04E0332C02D10120E04984
:101FB000087070BD10B50121DE48FFF73AFD00B38F
:101FC000DD4880884FF6FF710844DB498880084669
:101FD00040894FF6FF71084481B2D7484181008A99
:101FE0004FF6FF71084481B2D3480182C08A4FF690
:101FF000FF71084481B2D048C1820121CD48FFF76A
:1020000029FD0221CB48FFF714FD50B3CA484078A0
:1020100078B90020C8498880C648FFF7EBFCC6495C
:1020200048800221C348FFF7EDFB0120C2494870F8
:1020300013E0C048FFF7DEFCBF494988401ABE499B
:1020400089880844BC4988800021BA48FFF7DAFB38
:102050000020B9494870012008700221B548FFF7F7
:10206000F9FC0421B348FFF7E4FC60B3B248C0793F
:1020700078B90021B0484181AE48FFF7BEFCAE49B7
:1020800008810221AB48FFF7CFFB0121AA48C171AB
:1020900015E0A848FFF7B1FCA7490989411AA648ED
:1020A0004089084481B2A44841810021A148FFF73A
:1020B000BBFB0021A048C17101209F498871042108
:1020C0009C48FFF7C7FC08219A48FFF7B2FC60B3B1
:1020D0009948407B78B90021974801829548FFF7DD
:1020E0008FFC9549C88102219248FFF7B7FB012177
:1020F0009148417315E08F48FFF782FC8E49C989EA
:10210000411A8D48008A084481B28B48018200211F
:102110008848FFF7A3FB00218748417301208649C7
:10212000087308218348FFF795FC10218148FFF7C9
:1021300080FC60B38048C07C78B900217E48C182B1
:102140007C48FFF760FC7C49888202217948FFF7D0
:102150009FFB01217848C17415E07648FFF753FCD6
:102160007549898A411A7448C08A084481B2724804
:10217000C18200216F48FFF78BFB00216E48C174BC
:1021800001206D49887410216A48FFF763FC10BD77
:1021900010B501216948FFF74CFC78B16648808B87
:1021A0004FF6FF71084481B263488183407E08B1D5
:1021B00000BF00BF01216148FFF74CFC08215F48C8
:1021C000FFF737FC60B35C48407E78B900215A487D
:1021D00081835A48FFF714FC574948830221574826
:1021E000FFF73CFB01215448417615E05348FFF7C7
:1021F00007FC5149498B411A4F48808B084481B2F2
:102200004D48818300214D48FFF728FB00214A48B3
:10221000417601204849087608214848FFF71AFC12
:1022200010BD10B501214648FFF703FC48B14048F6
:10223000007810B1002000F02BFB01214048FFF78F
:1022400009FC10BD10B50120FEF760F920B1012096
:102250003C490870FEF76BF910BD10B540F22551EE
:102260003948FFF7BBFD002839D03748FFF736FD66
:10227000C4B2242C02D1002034490880334801889C
:102280000088401C314A108031484454007824288A
:102290001ED12F4800794D281AD12D484079432866
:1022A00016D10A2C14D150212A4801F099FD274853
:1022B00002882749274801F07AFD0120254981F845
:1022C0005000002021490880C821214801F088FDE4
:1022D0001E480088C82802DBC8201C49088010BDA1
:1022E0000D0A20686172646661756C742065727293
:1022F0000D0A00009A99B14133330542003801407C
:10230000CAD5B5BDD0C5CFA22A2A2A2A2A2A2A2A66
:102310002A2A2A2A2A2A2A0D0A0000002C00002034
:10232000CAD5B5BDB1A8BEAFD0C5CFA20D0A0000B9
:102330004D000020000400409000002000080040F4
:10234000000C0040280000200044004070000020E5
:1023500027010020AE00002030B500BF31480068E2
:102360004FF47A72B0FBF2F1B1F1807F01D301201A
:102370001DE021F07F40401E4FF0E02250615017D9
:102380000F22002807DA13071D0E274B00F00F0459
:10239000241F1D5503E013071C0E244B1C5400BFC3
:1023A00000204FF0E02290610720106100200028FB
:1023B000D4D14FF0E020006920F001004FF0E0217F
:1023C000086130BD00EB80018800194908604FF0BA
:1023D000E021096941F001014FF0E022116100BFE5
:1023E000134909680029FBD170474FF47A714143C2
:1023F0000F4A11604FF0E021096941F001014FF0EF
:10240000E022116100BF0A4909680029FBD1704729
:102410000748006820B106480068401E044908606B
:10242000704700000000002018ED00E000E400E02C
:102430003000002010B586B00446012144F20400AB
:10244000FEF79AFB4FF40070ADF8140018208DF8D9
:10245000170003208DF8160005A98348FEF7D0F871
:102460004FF48060ADF8140004208DF8170005A922
:102470007D48FEF7C5F801940020ADF80800ADF8DE
:102480000A00ADF80C00ADF810000C20ADF80E00FD
:1024900025208DF8000003208DF801008DF8020042
:1024A00001208DF803006846FDF753FF01A96F482E
:1024B000FFF717FB012240F225516C48FFF7A9FBFB
:1024C00001216A48FFF799FB06B010BD00BF7047B5
:1024D00070B504460D46E1B26448FFF7FBFB00BF50
:1024E00080216248FFF764FC0028F9D0204670BDC7
:1024F00010B5044600BF20215C48FFF759FC0028B6
:10250000F9D05A48FFF7EAFB10BD10B504460BE0BE
:1025100000BF40215548FFF74BFC0028F9D014F8C4
:10252000011B5248FFF7D6FB20780028F0D110BDE0
:102530002DE9F04705468A464DA002F0A1FA002693
:1025400017E010CD0A2094FBF0F100FB1147642046
:1025500094FBF0F100FB11400A2190FBF1F864209C
:1025600094FBF0F93B464246494642A002F088FA05
:10257000761C052EE5DBBDE8F08710B504463FA0CC
:1025800002F07EFA21463EA002F07AFA10BD00B5B4
:1025900087B001210820FEF7EFFA01218804FEF739
:1025A000F8FA4FF48060ADF8180018208DF81B0081
:1025B00003208DF81A0006A93248FEF721F84FF4DF
:1025C0000060ADF8180004208DF81B0006A92D4806
:1025D000FEF716F84FF4164002900020ADF80C00FC
:1025E000ADF80E00ADF81000ADF814000C20ADF8F9
:1025F000120027208DF8040002208DF805008DF8C8
:10260000060001208DF8070001A8FDF7A2FE02A92F
:102610001D48FFF766FA01211B48FFF7EEFA07B0E5
:1026200000BD10B5044621461748FFF753FB00BF15
:1026300080211548FFF7BCFB0028F9D0204610BDCB
:1026400010B504460BE000BF80210F48FFF7B0FB38
:102650000028F9D014F8011B0B48FFF73BFB20784A
:102660000028F0D110BD00000008014000380140F2
:10267000210000002564256425640000230000007B
:1026800025630000000C01400048004010B50446DE
:102690002046FFF7C6FF10BD70B5044604B970BDF3
:1026A0000A2094FBF0F52846FFF7F6FF0A2094FB7A
:1026B000F0F100FB11403030C5B22846FFF7B1FF02
:1026C00000BFECE770B504461CB93020FFF7A9FF46
:1026D00070BD0A2094FBF0F52846FFF7DDFF0A20C5
:1026E00094FBF0F100FB11403030C5B22846FFF7F3
:1026F00098FF00BFECE710B5044603E02078FFF731
:1027000090FF641C20780028F8D110BD2DE9F04717
:102710000546284601F0C2FD8046404601F0A4FD72
:102720008146294601F0E3FB0746434901F0E2FBFD
:10273000064601F0B3FD04460A2094FBF0F100FBCD
:102740001140052804DB0A2094FBF0F0441C02E051
:102750000A2094FBF0F44046FFF7B4FF2E20FFF769
:1027600060FF2046FFF7AEFFBDE8F0870FB438B535
:1027700005A8009057E004980078252807D0049910
:102780000878FFF74EFF0498401C04904BE0049833
:10279000401C049004980078632806D0642810D068
:1027A000662822D0732835D115E0009810F8041B54
:1027B000CCB200902046FFF769FF0498401C0490BB
:1027C00030E0009810C800902046FFF77BFF049887
:1027D000401C049026E0009810C800902046FFF7A7
:1027E0008AFF0498401C04901CE00098C01D20F053
:1027F00007000090D0E90021009D083510460095A3
:1028000001F0ACFD04462046FFF780FF0498401C11
:10281000049007E004990878FFF738FF0498401CFB
:10282000049000BF00BF049800780028A3D1009056
:1028300038BC5DF814FB00000050C34737B51446A0
:10284000BDF80400451C4FF4AA7068434008642199
:1028500048433449B0FBF1F0334941F8240000BF4C
:10286000084650F82420214630A0FFF77FFF00BF24
:102870003EBD70B505460C46A1B22846FDF76DFF7A
:102880000A2000F069F8A1B22846FDF768FF70BD84
:1028900010B5044601212D48FFF7EBFF02212B481C
:1028A000FFF7E7FF04212948FFF7E3FF0821274846
:1028B000FFF7DFFF10212548FFF7DBFF10BD1CB538
:1028C000002400BF20E004EB4400214911F810006F
:1028D000012818D104EB440001EB4000016800918D
:1028E0008088ADF804002246DDE90001FFF7A6FF6D
:1028F000002004EB4401164A02F811001548007844
:10290000401C14490870641C052CDCDB114800785D
:10291000052804D100200F49087001201CBD0020AB
:10292000FCE7000040420F00380000200D0A6465FB
:102930006275673A202564203A20206469737461C7
:102940006E636520202025640D0A00000010014000
:10295000900000204C000020002101E000BF491C35
:1029600000EB8002B1EB420FF8D37047002101E089
:1029700000BF491C40F277124243B1EB021FF7DB64
:102980007047000008B51D208DF8000000208DF86C
:10299000010001208DF802008DF803006846FDF764
:1029A000D8FC08BD08B51E208DF8000000208DF869
:1029B000010001208DF802008DF803006846FDF744
:1029C000C8FC08BD08B501210420FEF7D5F8402059
:1029D000ADF8000004208DF8030069469F48FDF71C
:1029E0000FFE01210420FEF7C7F88020ADF800009B
:1029F00004208DF8030069469848FDF701FE012187
:102A00000820FEF7B9F80120ADF8000004208DF889
:102A1000030069469248FDF7F3FD01210820FEF707
:102A2000ABF80220ADF8000004208DF803006946E1
:102A30008B48FDF7E5FD08BD08B501210820FEF72C
:102A40009BF84FF48070ADF8000004208DF803006F
:102A500069468348FDF7D4FD08BD00B587B0012164
:102A60000220FEF796F84FF6FF70ADF808004720F9
:102A7000ADF804000020ADF80A00ADF806008DF8AE
:102A80000C0001A97748FEF7AFF90020ADF812005D
:102A90000120ADF814000020ADF81600ADF81800C4
:102AA000ADF8100004A96F48FEF731FC0420ADF822
:102AB000100004A96B48FEF72AFC0820ADF81000AE
:102AC00004A96848FEF723FC0C20ADF8100004A907
:102AD0006448FEF71CFC1F216248FEF7A7FF012295
:102AE0001F216048FEF7F7FC01215E48FEF7D8FC85
:102AF00007B000BD00B587B001210420FEF749F8FA
:102B00004FF6FF70ADF814004720ADF8100000201C
:102B1000ADF81600ADF812008DF8180004A952485F
:102B2000FEF762F90020ADF806000120ADF80800BC
:102B30000020ADF80A00ADF80C000820ADF8040044
:102B400001A94948FEF7E3FB09214748FEF76EFF5C
:102B5000012209214448FEF7BEFC01214248FEF74C
:102B60009FFC07B000BD10B5FFF72CFFFFF70AFF71
:102B7000FFF773FFFFF760FFFFF714FFFFF7BAFFE0
:102B800010BD1FB501210820FEF703F841F2873080
:102B9000ADF8080041F61F40ADF804000020ADF884
:102BA0000A00ADF8060001A93048FEF71DF9012220
:102BB00011462E48FEF78FFC32208DF800000220CF
:102BC0008DF801008DF8020001208DF803006846A1
:102BD000FDF7BFFB01212548FEF762FC1FBD08B5CC
:102BE00001211020FDF7C8FF10208DF803000320FD
:102BF0008DF802000120ADF8000069461C48FDF781
:102C0000FFFC0220ADF8000069461948FDF7F8FC0A
:102C10000420ADF8000069461548FDF7F1FC0820D6
:102C2000ADF8000069461248FDF7EAFC1020ADF847
:102C3000000069460E48FDF7E3FC2020ADF80000D7
:102C400069460B48FDF7DCFC08BD10B5FFF7C7FF70
:102C5000FFF789FFFFF795FF10BD00000008014056
:102C6000000C01400004004000080040000C00403F
:102C700000100140002904DA4A4211B22D220270EC
:102C800001E0202202704FF47A7291FBF2F23032AE
:102C9000D3B2421C104613704FF47A7291FBF2F3D8
:102CA00002FB1311642291FBF2F23032D3B2421CC8
:102CB00010461370642291FBF2F302FB13110A22F7
:102CC00091FBF2F23032D3B2421C104613700A224A
:102CD00091FBF2F302FB131101F13002D3B2421C5B
:102CE00010461370704708B501210820FDF744FF16
:102CF0004020ADF8000003208DF8020014208DF86C
:102D000003006946FE48FDF77BFC8020ADF800001B
:102D100003208DF8020014208DF803006946F8485E
:102D2000FDF76EFC08BD1E2001E0411EC8B2002860
:102D3000FBD1704741F2883000E0401E0028FCD1F2
:102D4000704700B58020EE491031086040200860CF
:102D5000FFF7E9FFEA480830006808B9012000E001
:102D6000002000F0800008B1002000BD8020E44970
:102D700014310860FFF7D7FFE1480830006800F021
:102D8000800008B10020F0E78020DD4914310860A0
:102D9000FFF7C9FF0120E8E700B54020D84914310A
:102DA0000860FFF7C0FF8020D54914310860FFF7A5
:102DB000BAFF4020D24910310860FFF7B4FF8020ED
:102DC000CF4910310860FFF7AEFF00BD00B54020CD
:102DD000CB4914310860FFF7A6FF8020C8491431A1
:102DE0000860FFF7A0FF4020C54910310860FFF7D9
:102DF0009AFF4020C24914310860FFF794FF00BDDC
:102E000000B54020BE4914310860FFF78CFF8020D8
:102E1000BB4910310860FFF786FF4020B8491031E8
:102E20000860FFF780FF4020B54914310860FFF7C4
:102E30007AFF00BD00B54020B14914310860FFF7AA
:102E400072FF8020AE4910310860FFF76CFF402010
:102E5000AB4910310860FFF766FFA94808300068E9
:102E600000F0800038B14020A54914310860FFF718
:102E70005AFF002000BD4020A14914310860FFF72F
:102E800052FF0120F6E700B5024608231BE0402070
:102E90009B4914310860FFF746FF02F0800020B123
:102EA000802097491031086003E080209449143154
:102EB00008605006020EFFF736FF4020904910319F
:102EC0000860FFF730FF1800A3F10101CBB2DED19B
:102ED00040208B491431086000BD00B50823002252
:102EE000802087491031086015E05006020E40200E
:102EF000834914310860FFF716FF402080491031E4
:102F00000860FFF710FF7E480830006800F080007E
:102F100008B142F001021800A3F10101CBB2E4D1E3
:102F20004020774914310860104600BD70B5064650
:102F30000C461546FFF705FF08B9002070BD304666
:102F4000FFF7A1FFFFF776FF18B9FFF725FF002075
:102F5000F4E72046FFF797FFFFF76CFF2846FFF7DF
:102F600092FFFFF767FFFFF717FF0120E6E770B555
:102F700004460D46FFF7E5FE08B9002070BD204667
:102F8000FFF781FFFFF756FF30B9FFF705FF01207C
:102F90005C4908700020F1E72846FFF774FFFFF74F
:102FA00049FFFFF7CEFE611CC8B2FFF76CFFFFF7C9
:102FB00041FFFFF792FF0646FFF722FFFFF7ECFE07
:102FC0003046DBE770B505460E46FFF7BAFE08B996
:102FD000002070BD2846FFF756FFFFF72BFF30B9E2
:102FE000FFF7DAFE0120474908700020F1E730467C
:102FF000FFF749FFFFF71EFFFFF7A3FE691CC8B2EA
:10300000FFF741FFFFF716FF00240CE0FFF765FF15
:103010003D490855052C02D1FFF7F2FE01E0FFF70C
:10302000D5FE601CC4B2062CF0DBFFF7B5FE012014
:10303000CFE700B5142200213C20FFF777FF0022E4
:1030400002213C20FFF772FF272220213020FFF7CA
:103050006DFF00BD01B502E00098401E0090009891
:103060000028F9D108BD01B509E0002000E0401CAE
:103070004CF250318842FAD30099491E00910099D0
:103080000029F2D108BD06E042F6E06100BF0A0067
:10309000A1F10101FBD10200A0F10100F4D17047C0
:1030A0002DE9FF4703213C20FFF78CFF16484078AD
:1030B0001549097840EA012000B2144908801248F5
:1030C000C0781149897840EA012000B2104908808F
:1030D0000D4840790C49097940EA012000B20D49B8
:1030E00008800A48B0F9000001F0C7F806460F460C
:1030F0000748B0F9000001F0C0F832463B460BE04B
:10310000000C01406A000020550000205E000020F5
:103110006000002062000020CDE9000102F0CAFA40
:103120000446454A454B00F0BEFF80460022444B12
:1031300000F012FFCDE9020101F010F941490860E9
:1031400041494048006801F025F905D33F493D4811
:10315000006801F029F901D24FF0300A3A493948A4
:10316000006801F021F907D839493648006801F0B4
:1031700011F901D84FF0310A35493248006801F0A1
:1031800013F907D233492F48006801F003F901D23F
:103190004FF0320A2F492B48006801F005F907D893
:1031A0002D492848006801F0F5F801D24FF0330AA4
:1031B00029492448006801F0F7F807D22749214837
:1031C000006801F0E7F801D24FF0340A23491D48A6
:1031D000006801F0E9F807D221491A48006801F0B7
:1031E000D9F801D24FF0350A1D491648006801F0A0
:1031F000DBF801D2012400E000241A4911480068DC
:1032000001F0C8F801D2012000E0002004400CB118
:103210004FF0360A13490B48006801F0C5F807D291
:103220000A490848006801F0B5F801D24FF0370AA2
:10323000504604B0BDE8F087775AF01ADCA54C4040
:10324000008066406C0000200000F0410000AF43A9
:10325000000078420000BE4200000C4300004843DA
:10326000000096430000A54308B506208DF8000035
:1032700000208DF8010001208DF802008DF8030078
:103280006846FDF766F808BD0EB501210520FDF77B
:1032900073FCFFF7E9FF0120ADF8080028208DF846
:1032A0000B0002A90A48FDF7ABF900210846FDF71B
:1032B000BDFA0120009000208DF8040008208DF850
:1032C000050001208DF806006846FDF7B9F80EBD2F
:1032D0000008014010B5C821C74800F081FD00205A
:1032E000C649088010BD10B50020C54981F85000BE
:1032F00081F8510081F878005021C14800F070FD3C
:10330000BF485230002101604160018181720B3061
:1033100001604160018181725D38A0F868106A30F7
:103320000160416081606A38A0F8761010BD00B578
:1033300087B001210420FDF71FFC01214804FDF79F
:1033400028FC0420ADF8180018208DF81B0003207D
:103350008DF81A0006A9AB48FDF752F90820ADF820
:10336000180004208DF81B0006A9A648FDF748F9AF
:103370004FF4165002900020ADF80C00ADF80E008E
:10338000ADF81000ADF814000C20ADF812002620A6
:103390008DF8040003208DF805008DF8060001204B
:1033A0008DF8070001A8FCF7D4FF02A99648FEF7A4
:1033B00098FB012240F225519348FEF72AFC012197
:1033C0009148FEF71AFCFFF785FF07B000BD0446E1
:1033D00003E021468DA0FFF7C9F9FAE72DE9F04790
:1033E0008AB00026864890F8500000287DD0002042
:1033F000834981F8500088A0FFF7B8F98048FFF7AB
:10340000B5F900BF5EE046B988A17D4800F0FFFC39
:10341000040055D10120FFF7DAFF641C83A1204688
:1034200000F0F5FC050048D0072E2ED2DFE806F0AC
:103430002D040B11181F26002A1B214670485230FC
:1034400000F0B5FC22E02A1B214609A800F0AFFCE1
:103450001CE02A1B21466A485D3000F0A8FC15E0FC
:103460002A1B21466648683000F0A1FC0EE02A1BAA
:10347000214663486A3000F09AFC07E02A1B214687
:103480005F48763000F093FC00E000BF00BF2C46A0
:1034900001205B4981F851009DF82400412803D1A7
:1034A000012081F8780007E09DF82400562803D118
:1034B0000020534981F8780002E00220FFF787FFDF
:1034C000701CC6B2062E9EDD4D486A3002F0B2F97D
:1034D00007460022564B00F058FECDE9080100F0E7
:1034E000F6FE814646485D3000E074E002F0A2F945
:1034F00000224F4BCDE9080100F047FE074600F0DF
:10350000E6FE8246484600F0B8FECDE90601642199
:1035100009FB01F000F0B1FE0746884638486A30E2
:1035200002F088F93A464346CDE9000100F0B5FDC6
:103530000022404BCDE9020100F027FECDE9040155
:10354000DDE9062300F008FDCDE9080100F006FFE3
:1035500039490860504600F090FECDE9060164212B
:103560000AFB01F000F089FE0746884624485D30DA
:1035700002F060F93A464346CDE9000100F08DFDC6
:1035800000222C4BCDE9020100F0FFFDCDE9040142
:10359000DDE9062300F0E0FCCDE9080100F0DEFEE5
:1035A000254948600A465168106800F0B8F9224978
:1035B000486800F0ABFECDE908011F49086800F03B
:1035C000A5FE07460B46DDE908013A46CDE90001B4
:1035D0001AA0FFF7CBF80AB0BDE8F08710B508488D
:1035E00090F8510020B10020054981F8510002E017
:1035F00016A0FFF7BBF810BD2701002070000020C7
:10360000AE00002000080140004400404552524FE7
:103610005225640D0A0000002A2A2A2A2A2A2A2A68
:103620002A2A2A2A2A2A0D0A000000002C0000005B
:103630000000594000004E40740000206C6F2025AF
:1036400066202C6C612025660D0A0000475053202F
:1036500044415441206973206E6F74207573656610
:10366000756C6C210D0A000038B51B208DF8000028
:1036700000208DF8010032230522EDA1EDA000F01D
:1036800045FB04462CB9684600F022FB4FF0FF30A2
:1036900038BD32230222E6A1E7A000F037FB044642
:1036A00014B96FF03200F3E70120F1E7F8B50546F1
:1036B0000E461A208DF8000000208DF801006423CA
:1036C0000322DFA1E1A000F021FB0446012C1AD166
:1036D00032230322E1A1E2A000F018FB044614B952
:1036E0006FF00D00F8BD304600F0F2FAFA23012227
:1036F000DEA1684600F02DFB044614B96FF0080007
:10370000F0E70120EEE74FF4AF730322C8A1D9A080
:1037100000F0FCFA044614B96FF00A00E2E76423F3
:103720000322C3A1D6A000F0F1FA044614B96FF049
:103730003100D7E72D21D64800F052FBD5A1D4485F
:1037400000F077FB2946D24800F055FB64230322A2
:10375000BBA1CF4800F0DAFA044614B96FF00C00B0
:10376000C0E73220FEF72EFECF48FEF7CEFE322312
:103770000322BAA1BAA000F0C9FA044614B96FF046
:103780000D00AFE7304600F0A3FAFA230122B7A1FB
:10379000684600F0DEFA044614B96FF00800A1E7AD
:1037A00001209FE710B50024C048FEF797FAC4B285
:1037B000BD48BF4909784454BD480078401CBC4905
:1037C000087008460078642801DD0020087010BDEC
:1037D00010B501218807FEF72CF968B1012188078F
:1037E000FEF738F9B348007818B10020B1490870E5
:1037F00002E00120AF49087010BD002004E0002164
:10380000A94A1154411C88B26428F8DB0021A84A57
:10381000117070472DE9F04105460027FFF7EDFFD5
:103820003CE0A5A000F067FA6420FEF7CBFD002481
:103830002CE09D48005D2B2826D19B49601C085C2C
:10384000432821D1A01C085C52281DD1E01C085C33
:10385000452819D1201D085C472815D1601D085C3A
:103860003A2811D1E01D085C31280DD104F109007E
:10387000085C312804D004F10900085C352803D124
:1038800001270120BDE8F081601CC4B2642CD0DBAC
:10389000701CC6B2AE4201DD0020F3E7002FC0D09D
:1038A0000020EFE710B5044621467F4800F0AFFA4C
:1038B00008B1012010BD0020FCE710B581A0FEF783
:1038C00055FF14218B4800F08BFA8BA18CA0FFF7D9
:1038D000EDFE0446012C12D18FA1864801F0E0F8DC
:1038E000844992A0FEF742FF91A0FEF73FFF6E4988
:1038F0008EA0FEF73BFF8CA0FEF738FF0EE02246BD
:103900008FA17C4801F0CCF87A4988A0FEF72EFF01
:103910009623032246A18EA000F0F8F910BD2DE9F0
:10392000F0478AB082460C468CA0FEF71FFF142198
:10393000704800F055FA202102A800F051FA204604
:1039400000F0E4FC05460E46504600F0DFFC07465A
:103950003A460B468DA102A8CDE9005601F0A0F829
:1039600002A967A0FFF7A2FE8146B9F1010F12D1AB
:1039700069A1604801F094F85E496CA0FEF7F6FE7C
:103980006BA0FEF7F3FE484968A0FEF7EFFE66A0C5
:10399000FEF7ECFE0EE04A4669A1564801F080F8B9
:1039A000544962A0FEF7E2FE9623032220A168A0FC
:1039B00000F0ACF90AB0BDE8F08738B505461A202A
:1039C0008DF8000000208DF801006423032218A167
:1039D00072A000F09BF9044614B96FF0040038BDE2
:1039E0003223032212A173A000F090F9044614B907
:1039F0006FF00500F3E73223032218A17048006836
:103A000000F084F9044614B96FF00700E7E7284690
:103A100000F05EF9FA23032205A1684600F099F947
:103A2000044614B96FF00800D9E70120D7E7000079
:103A30004F4B00004154000041544530000000004D
:103A4000434F4E4E454354204F4B000041542B43AF
:103A50004950535441545553000000003E000000AB
:103A600041542B43495053454E44000053454E4466
:103A7000204F4B0041542B43474154543D310000EB
:103A800041542B43474143543D312C310000000049
:103A90006702002041542B43495053544152543D36
:103AA00022544350222C0000EF010020004C004023
:103AB000880000208900002041542B435245473F95
:103AC0000000000047505253B4ABCAE468656C7004
:103AD000B9A6C4DCC6F4B6AF2E2E2E2E2E2E2E2E58
:103AE0002E2E2E2E2E2E2E2E2E2E2E2E2E2E2E0D17
:103AF0000A0000005302002068656C70000000009E
:103B00002233392E3130382E3131302E31323122BC
:103B10002C31303030310000B3C9B9A6B7A2CBCDBB
:103B2000B5BD7365727665720D0A000025730000DD
:103B3000CAD5B5BDBBD8B8B4A3BA0D0A0000000001
:103B4000B4EDCEF3B4FAC2EB203A2025640D0A009E
:103B500041542B434950434C4F5345004750525317
:103B6000B4ABCAE4D7F8B1EAB9A6C4DCC6F4B6AFC0
:103B70002E2E2E2E2E2E2E2E2E2E2E2E2E2E2E2E65
:103B80002E2E2E2E2E2E2E0D0A0000006C6F3A25A2
:103B9000662C6C613A25660D0A00000041542B43E7
:103BA000504D533D22534D222C224D45222C225361
:103BB0004D22000041542B434D47463D300000004C
:103BC000800000201FB501210846FCF7E2FF42F209
:103BD0000F70ADF8080041F61F40ADF8040000205A
:103BE000ADF80A00ADF8060001A94FF08040FDF7DE
:103BF000FBF81C208DF8000001208DF801008DF8E5
:103C000002008DF803006846FCF7A3FB0122114671
:103C10009007FDF760FC01218807FDF741FC1FBDFF
:103C200008B54FF4A060FCF78FFB34208DF800003E
:103C300001208DF801008DF802008DF80300684620
:103C4000FCF787FB08BD10B586B0044601211020A3
:103C5000FCF792FF0121C804FCF79BFF4FF4806042
:103C6000ADF8140018208DF8170003208DF8160009
:103C700005A94548FCF7C4FC4FF40060ADF81400FA
:103C800004208DF8170005A93F48FCF7B9FC4FF454
:103C9000E13001900020ADF80800ADF80A00ADF861
:103CA0000C00ADF810000C20ADF80E0001A937484B
:103CB000FDF717FFFFF7B4FF012240F2255133480B
:103CC000FDF7A7FF01213148FDF797FF06B010BDB2
:103CD00010B504460BE000BF40212C48FEF768F801
:103CE0000028F9D014F8011B2848FDF7F3FF2078CD
:103CF0000028F0D110BD10B50446FFF77EFD204628
:103D0000FFF7E6FF22A0FFF7E3FF10BD2DE9F0412A
:103D100080460C4615461E4600270EE04046FFF73B
:103D2000EAFF3046FEF74EFB2046FFF7BBFD10B121
:103D30000120BDE8F081781CC7B2AF42EEDB002065
:103D4000F7E710B50446FFF758FD2046FFF7C0FF20
:103D500010BD2DE9F04180460C4615461E46002751
:103D60000EE04046FFF7EDFF3046FEF72BFB204606
:103D7000FFF798FD10B10120BDE8F081781CC7B2B3
:103D8000AF42EEDB0020F7E700100140004C00409E
:103D90000D0A0000004870477C59000810B5044621
:103DA000FFF7F8FF0068005D00F0010010BD40EA79
:103DB00001039B0703D009E008C9121F08C0042AA9
:103DC000FAD203E011F8013B00F8013B521EF9D290
:103DD0007047D2B201E000F8012B491EFBD27047B8
:103DE0000022F6E710B513460A4604461946FFF7C7
:103DF000F0FF204610BD421E12F8013F002BFBD100
:103E000011F8013B02F8013B002BF9D1704730B5A6
:103E100005462A460B4612F8010B13F8014B08B170
:103E2000A042F8D01CB1002802D06D1CF1E7284652
:103E300030BD034611F8012B00F8012B002AF9D1FF
:103E400018467047F0B480EA0102D40F4200B2EB8A
:103E5000410F02D20246084611464A0042D0C30D25
:103E6000DDB2C1F3C752AD1A202D35DAC1F3160108
:103E700041F4000204B15242C5F1200602FA06F1F3
:103E80002A411044B3EBD05F23D0C4B1012DA0EB85
:103E9000C35009DCF0BC4FF0004202EAC352DBB26F
:103EA00000F5000000F059BB400000F1807000EB0D
:103EB000C350A0F1807040EAD170490009E0490880
:103EC00041EAC071A0EBC35000F50000400800EBD0
:103ED000C350F0BC00F038BB6142012202EB41014B
:103EE000001BF6E7F0BC704781F00041AAE780F0C4
:103EF0000040A7E780EA010210B502F0004340004D
:103F000022D04A001FD0010E01EB1261C0F356000F
:103F1000C2F3560240F4000042F40002A0FB02206B
:103F200000047F39140400D0401C50EA124001D430
:103F30004000491EC2B20C0604EBD010401C4008E1
:103F4000802A02D003E0002010BD20F001000029EB
:103F500000DA0020184310BD2DE9FE4F804681EAAB
:103F60000300C00F0C46009021F0004123F00045F3
:103F7000B8EB0200A94105D24046214690461C46B6
:103F80000B46024623F00040104347D0270DC7F3ED
:103F90000A00C3F30A510290401A019040286BDADC
:103FA000C3F3130040F4801B0098924620B1002315
:103FB000D2EB030A63EB0B0B01985946C0F14002A8
:103FC000504600F042FA06460D4650465946019AC0
:103FD00000F05AFA10EB08006141002487EA115200
:103FE00084EAE7731A4340D0009A62B3019A012A27
:103FF0004FEA075215DC001B61EB02014FF0004253
:1040000002EA0752CDE90042001C41F58011324618
:104010002B4600F0DDFA03B0BDE8F08F40462146A4
:10402000F9E7001B61EB0201001C41F58013001849
:104030005B412018A2F5001747EB030140EAD57059
:10404000B6196D4111E06D084FEA360645EAC075B4
:104050004FEA0752001B61EB0201001C41F5801181
:1040600049084FEA30000019514132462B4603B04F
:10407000BDE8F04F00F09FBA0098012240000023F5
:10408000D0EB020263EBE073009821464FEAE07444
:10409000B8EB000061EB0401E9E783F000435BE764
:1040A00081F0004158E72DE9FE4F81EA030404F056
:1040B000004421F0004100944FF0000B23F0004336
:1040C00050EA01045ED052EA03045BD0C3F30A5401
:1040D000C1F30A552C44A4F2F3340194A0FB02541A
:1040E000C1F3130141F48011C3F3130343F48013AC
:1040F00001FB024400FB034E840A970A44EA815400
:1041000047EA8357A4FB076802958D0A05FB0785DC
:104110004FEA932C04FB0C542705029D4FEA0658E6
:1041200047EA1637B5EB08056EEB070C870E920EC3
:1041300047EA811742EA8312A7FB0201B6EB0B01A3
:1041400064EB00042B0D43EA0C335E1844EB1C5067
:10415000DA465146E7FB0201C5F313044FEA0B337D
:1041600043EA14534FEA0432019C43EA0603A4F1E4
:104170000C040294009CCDE900B400F029FA03B0CD
:10418000BDE8F08F00200146F9E72DE9F04D81EA06
:10419000030404F0004B21F0004514464FF0000AE0
:1041A00023F0004150EA050220D054EA01021DD05C
:1041B000C5F30A570246C5F31303C1F31300C1F355
:1041C0000A5640F4801543F48013A7EB0608101B31
:1041D000D64608F2FD3873EB050002D308F101085A
:1041E00001E092185B41B8F1000F03DA00200146AC
:1041F000BDE8F08D00204FF48011064684460EE0A5
:10420000171B73EB050705D3121B63EB050306436E
:104210004CEA010C49084FEA300092185B4150EA21
:104220000107EDD152EA030012D082EA040083EACA
:104230000501084305D0101BAB4106D20122002323
:1042400006E000224FF0004302E06FF0010253103D
:104250001AEB06004CEB085110EB0A0041EB0B0186
:10426000BDE8F04D00F0A7B9C10F80EAE070084446
:10427000CA079623002100F070B90EB5C10F80EA7D
:10428000E0700844CA07002140F233438DE80E0075
:104290000A460B4600F09CF903B000BD00F0004256
:1042A00020F00040C10DC0F3160040F400007F294B
:1042B00001DA00207047962903DCC1F19601C8405D
:1042C00001E096398840002AF4D04042704770B52A
:1042D000C1F30A5201F000450024C1F3130140F27A
:1042E000FF3341F480119A4201DA002070BD40F2A0
:1042F00033439A42A2F2334203DC524200F0B4F854
:1043000000E090402C43F1D0404270BD00F00042EC
:1043100030F000400AD0C10D01F56071C0F3160005
:1043200042EA0151C208400711437047002001468C
:104330007047000030B5002904DB4FF000444042D4
:1043400064EB0101002B04DB4FF00044524264EBAC
:104350000303994208BF904230BD000001F00043C2
:1043600030B421F0004150EA010206D00A0DA2F556
:104370006072C1F31301002A02DC30BC00207047D8
:10438000440F44EAC104C100E01830BC00EBC25045
:1043900000F0DAB8002801DBC0F10040002901DBA1
:1043A000C1F1004181427047002801DBC0F10040AB
:1043B000002901DBC1F100418842704730B50B464E
:1043C000014600202022012409E021FA02F59D4245
:1043D00005D303FA02F5491B04FA02F52844151E19
:1043E000A2F10102F1DC30BD2DE9F05F05460020AD
:1043F00092469B4688460646814640241BE0284656
:1044000041464746224600F02FF853465A46C01A06
:10441000914110D311461846224600F016F82D1A85
:1044200067EB01084F4622460120002100F00DF8FD
:1044300017EB00094E41201EA4F10104DFDC4846C1
:1044400031462A464346BDE8F09F202A04DB203A45
:1044500000FA02F1002070479140C2F1200320FAD7
:1044600003F3194390407047202A04DB203A21FAD5
:1044700002F00021704721FA02F3D040C2F120027D
:104480009140084319467047202A06DBCB17203A93
:1044900041FA02F043EAE07306E041FA02F3D04049
:1044A000C2F1200291400843194670470FB400231F
:1044B00000B589B00CA900910B996FF00042CB6058
:1044C0001E4B06931E4B07930423CDE901321D4A70
:1044D000089202466B46002000F08AF909B05DF8A8
:1044E00014FB70B586B006464FF0FF300091CDE961
:1044F0000101002015460C4604903246694604A886
:10450000FFF7D4FF03460498211825B108B10A46E5
:1045100000E022462A6000280DD0002B02DD009822
:10452000884208D0081B0094CDE901043246694650
:1045300004A8FFF7BBFF06B070BD0000294A0008C1
:10454000474A00089D3D00080029A8BF7047401C4D
:10455000490008BF20F00100704710B4B0FA80FC99
:1045600000FA0CF050EA010404BF10BC704749B1D6
:10457000CCF1200421FA04F411FA0CF118BF012146
:1045800021430843A3EB0C01CB1D4FEA00614FEA26
:10459000102042BF002010BC704700EBC3501044F5
:1045A0000029A4BF10BC7047401C490008BF20F080
:1045B000010010BC704710B5002B08DA401C41F117
:1045C000000192185B411A4301D120F0010010BD97
:1045D0002DE9F04D92469B4611B1B1FA81F202E00D
:1045E000B0FA80F220329046FFF72FFF04460F46C4
:1045F00040EA0A0041EA0B0153465A46084313D0E9
:10460000114653EA010019D0C8F140025046FFF7A5
:104610002BFF05460E46504659464246FFF715FF0A
:10462000084305D0012004E020463946BDE8F08D5E
:104630000020054346EAE0762C4337430A98630599
:10464000E40AA0EB08000022FD0A44EA47540A30BD
:1046500002D500200146E9E7010510196941DDE9AD
:10466000084500196941BDE8F04DA4E770B521F097
:10467000004303430CD0C1F30A550024D5EB0405D5
:1046800064EB0403D617AD1AB34102DB00200146E8
:1046900070BD201841EB025170BDC1F30A52C1F345
:1046A000130140F2FF3341F480119A4202DA0020F4
:1046B0000146704740F233439A42A2F2334202DC91
:1046C0005242FFF7D1BEFFF7C0BE0000064C074DB7
:1046D00006E0E06840F0010394E8070098471034D2
:1046E000AC42F6D3FBF728FD285A0008485A0008C8
:1046F0002DE9FF4F087881B09946FF2805D0491C65
:104700002D2804D00024002308E000230BE001241E
:10471000F9E703EB830300EB4303491C0878FF2808
:10472000F7D104B15B4200200090147801462D2C93
:1047300001D02B2C04D1521C2D2C12D0002400941B
:1047400000251678FF2E0ED00A24A0FB04C801FB1A
:104750000481002700FB0711521C16EB0C00694175
:10476000EFE70124EBE7994450EA01020ED0002460
:10477000AA4D2646DFF8A88200F076F982468B46DD
:10478000B9F1000009DAC9F100071BE00198002126
:10479000C0E9001105B0BDE8F08F074612E0F80748
:1047A00007D022462B4630464146FFF77CFC0646A2
:1047B000884622462B4610461946FFF774FC0446ED
:1047C0000D467F10002FEAD1B9F1000F3246434663
:1047D0005046594602DAFFF7D8FC01E0FFF763FCC8
:1047E000009A0AB181F00041019AC2E90001D1E7C3
:1047F0002DE9FF4F1F468DB0D7E901464FF0FF3836
:104800002E2045464FF000090B90B9696D1C0E989B
:104810008847396A824688470028F6D1BAF1FF3FB7
:104820000AD024F4D064002E11DDBAF12B0F08D089
:10483000BAF12D0F0BD102E0404611B0ABE744F4C2
:104840008064B9696D1C0E9888478246761E694659
:10485000600501D52D2000E02B208DF8000001F12E
:10486000010B0DF1200809E0B9696D1C0E9888470D
:1048700082460F9844F40074761E0560002E02DD17
:10488000BAF1300FF0D00B998A453ED144F0800444
:1048900006E00F99681CA9F1010944F4007408604E
:1048A000B9696D1C761E0E98884782463028F0D074
:1048B0002BE00B998A4505D1200603D444F08004EF
:1048C000761E18E0504600F03FFA08B30DF11301D0
:1048D000761E44F400748B4508D2AAF130000BF820
:1048E000010B200607D5A9F1010003E0200602D440
:1048F00009F101008146A00502D50F99681C0860E6
:10490000B9696D1C0E9888478246002ED1DC53E0B1
:10491000002E51DDBAF1650F02D0BAF1450F4BD12F
:10492000A00549D5B9696D1C24F44074761E0E9813
:1049300088478246002E0CDD2B2804D0BAF12D0FBB
:1049400007D144F48074B9696D1C0E98884782467B
:10495000761EE00501D52D2100E02B2108F8011B72
:10496000CDF82C8021E00DF12901761E44F400746D
:1049700088450CD2AAF1300010F0FF0088F8000042
:1049800002D10B99884509D908F1010806E0E00534
:1049900001D5244801E042F20F708146B9696D1CCF
:1049A0000E98884782460F980560002E04DD504619
:1049B00000F0CAF90028D6D1F9690E988847FF207F
:1049C0008BF8000088F800000020069007904B4606
:1049D0006A4608A906A8FFF78BFEA00502D46FF06F
:1049E00001002AE714F0240F0AD0E00714D1DDE912
:1049F00006123868031D3B600068C0E900120BE036
:104A0000DDE90601FFF7AAFC0146E00704D138689A
:104A1000021D3A600068016028460EE7000024404D
:104A20000000F03FF1D8FFFF426842B1016811F881
:104A3000013B23B1521EC0E9001218467047012104
:104A4000C160881E704742685AB1C368016843B9A3
:104A500083688B4205D0491E521CC0E90012002019
:104A600070474FF0FF3070470EB540F2334202926C
:104A70000022CDE900221346FFF7AAFD03B000BDD6
:104A80000FB4054B10B503A9044A029800F064F96D
:104A900010BC5DF814FB0000D12400083400002095
:104AA0000FB4084B10B504A902AA039800F054F9FA
:104AB000044602A9002000F0E6FC204610BC5DF888
:104AC00014FB000087540008490050EAC12018BFB9
:104AD00004204A0D18BF40F0010040F2FF72B2EB13
:104AE000515F08BF40F00200012808BF0520704751
:104AF0002DE9F0414F1E00EBC7010446D1E900014A
:104B000015461E4637F006020DD02A463346FFF7FB
:104B1000CAFA7F1E04EBC703D3E90023FFF71CFA90
:104B200037F00602F1D1022F25D0042F13D0062F23
:104B300018BFBDE8F0812A463346FFF7B4FAD4E93E
:104B40000A23FFF709FA2A463346FFF7ACFAD4E9FD
:104B50000823FFF701FA2A463346FFF7A4FAD4E9FF
:104B60000623FFF7F9F92A463346FFF79CFAD4E902
:104B70000423FFF7F1F92A463346FFF794FAD4E904
:104B80000223FFF7E9F92A463346FFF78CFAD4E906
:104B90000023BDE8F041FFF7DFB90000024A002022
:104BA0001107FFF763BD000001FDFFFF014800682A
:104BB000704700008C00002002E008C8121F08C1E6
:104BC000002AFAD170477047002001E001C1121F8E
:104BD000002AFBD1704700000149086070470000BF
:104BE0008C0000202DE9FF5FDDE90220010DDDF8DA
:104BF00038B0024318D044F61050A1F2FF314143BF
:104C00000D140F98012820D0A5EB0B00401C5FEA83
:104C1000000A4FF00004474EDFF81C91A0465046B2
:104C200016D5CAF1000728E00F98012443A20128F5
:104C300008D0002100980F9BC0E90021C0E9024381
:104C4000BDE8FF9F6FEA0B01F4E7CBF10000DEE760
:104C5000074612E0F80707D0224633464046494649
:104C6000FFF721FA80468946224633461046194608
:104C7000FFF719FA04460E467F10002FEAD1DDE94E
:104C80000201BAF1000F42464B4602DAFFF70BFA77
:104C900001E0FFF77AFA04460E460022284BFFF7A0
:104CA00049FB03D84FF0FF30014607E00022254BB7
:104CB00020463146FFF750F9FFF7EFFC102409E0DA
:104CC000002C0ADB0A220023FFF78EFB019B303207
:104CD0001A55641E50EA0102F2D1641C019AC4F113
:104CE000110314440F9A012A03D0012208430DD165
:104CF0000AE0084304D000204FF0110B0F9080E72A
:104D0000A3EB0B056D1E0DE05B4504DD4FF00002CB
:104D100005F1010504E003DA4FF00002A5F10105F9
:104D2000002AECD000980F99C0E90231C0E9004593
:104D300086E70000000024400000F03F3000000043
:104D40000000F0430000E03F30380A2801D2012083
:104D500070470020704700002DE9FF4F95B09B463B
:104D60008946064600250FE2252877D100242746EC
:104D7000F84A0121059400E0044316F8013F203B66
:104D800001FA03F01042F7D130782A2811D06FF0E1
:104D90002F033078A0F13002092A16D8059A44F082
:104DA000020402EB820203EB42021044761C0590DF
:104DB000EFE759F8042B0592002A03DA504244F435
:104DC0000054059044F00204761C30782E2816D149
:104DD00016F8010F44F004042A280DD06FF02F02BA
:104DE0003078A0F13003092B09D807EB870302EBD9
:104DF0004303C718761CF3E759F8047B761C307818
:104E00006C280FD006DC4C2817D068280DD06A28F3
:104E100014D104E0742810D07A280FD10DE044F4A6
:104E200000140AE044F4801401E044F44014727861
:104E3000824202D104F58014761C761C30786628F4
:104E40000BD013DC582877D009DC002875D0452812
:104E5000F6D04628F4D047281AD19DE118E06328FF
:104E600035D0642879D0652812D195E1702873D0A7
:104E700008DC6728F1D069286FD06E280DD06F2824
:104E800006D1B5E073282CD0752875D0782874D059
:104E90005A46179990476D1C75E1C4F302500228D9
:104EA00009D003280DD0D9F8001004280DD00D60CA
:104EB00009F1040967E1D9F80010EA17C1E90052C5
:104EC000F6E7D9F800100D80F2E70D70F0E719F859
:104ED000041B8DF8001000208DF80100EA46012027
:104EE00003E059F804AB4FF0FF3061074FF00001C9
:104EF00002D40DE008F101018846B9420FDA80457D
:104F0000F8DB1AF808100029F4D108E008F10101D3
:104F100088468142FADB1AF808100029F6D1059874
:104F20005B46A0EB080721463846179A00F094FA32
:104F3000284400EB080507E04DE029E10DE01AF8F0
:104F4000010B5A4617999047B8F10108F7D25B4612
:104F500021463846179A13E142E00A220092C4F330
:104F600002524FF0000A022A08D059F804CB032A53
:104F70004FEAEC710AD00DE029E02AE009F10701BF
:104F800021F00702F2E802C1914609E00FFA8CFC19
:104F90004FEAEC71042A03D14FFA8CFC4FEAEC7112
:104FA000002907DA0A460021DCF1000C61EB02015E
:104FB0002D2202E0220504D52B228DF804200122A7
:104FC00003E0E20701D02022F7E7904659E00A21EA
:104FD00002E010220DE010214FF0000A00910BE0DA
:104FE00010224FF0000A44F004040827009203E066
:104FF00008224FF0000A0092C4F30252022A05D0A0
:1050000059F804CB0021032A08D009E009F107016F
:1050100021F00702F2E802C1914605E01FFA8CFC7C
:10502000042A01D10CF0FF0C4FF00008220728D50C
:10503000702806D0009B83F0100353EA0A0305D0C2
:105040000EE040228DF80420012208E05CEA010213
:1050500006D030228DF804208DF8050002229046FB
:10506000009B83F0080353EA0A030AD15CEA0102B9
:1050700001D1620705D530228DF804204FF00108D8
:105080007F1E582804D034A003900EA802900DE093
:1050900036A0F9E753466046009AFFF7A5F9844623
:1050A0000398825C0298401E029002705CEA010044
:1050B000F0D1029806A9081A00F1200A600702D56B
:1050C00024F4803400E00127574502DDA7EB0A00F5
:1050D00000E0002000EB0A01009005984144401ACE
:1050E0000590E00306D45B462146179A059800F028
:1050F000B3F90544002706E001A85A46C05D179998
:1051000090476D1C7F1C4745F6DBE0030CD55B46E2
:105110002146179A059800F09FF9054404E03020D5
:105120005A46179990476D1C0099481E0090002917
:10513000F5DC08E0029802995A460078491C029171
:10514000179990476D1CBAF10001AAF1010AF1DC30
:1051500065E100000928010030313233343536373B
:1051600038396162636465660000000030313233B3
:105170003435363738394142434445460000000053
:1051800000F058F90544761C307800287FF4ECAD27
:1051900019B02846BDE8F08F620700D4062709F150
:1051A000070222F0070CFCE80223E14603F0004866
:1051B0005FEA080C02D00FF2702C0DE05FEA045C8D
:1051C00002D50FF2682C07E05FEAC47C02D00FF230
:1051D000602C01E0AFF2700C4FF0FF3823F0004379
:1051E000CDF850C065280CD006DC452809D04628EB
:1051F0001DD047283DD13DE0662818D067287ED1D4
:1052000038E00021112F01DB112000E0781CCDE9EE
:10521000000106A90EA8FFF7E5FCDDE90F010E9AD3
:1052200003910021009207F1010A04914DE04FF033
:1052300000400097CDE9011006A90EA8FFF7D2FCA7
:10524000DDE90F0203920E9B11990022DDF80CA0FC
:105250000093049211B9791C00EB010AB7EB0A0024
:1052600004D4C0F1FF3007F1010A0490AAEB070053
:10527000019044E0012F00DA01270021112F01DD08
:10528000112000E03846CDE9000106A90EA8FFF77D
:10529000A9FCDDE90F010E9A03910021049100920F
:1052A000BA4621070CD40399514500DA8A46BAF16F
:1052B000010F05DD009AAAF10101515C302908D0E7
:1052C000B84202DA10F1040F06DA0121CDE901102B
:1052D00015E0AAF10101E9E7002805DC0499014481
:1052E0000491AAEB000102E0411C514500DD8A4611
:1052F0000499401A401C01904FF000400290200792
:1053000004D40198504501DBCDF8048000208DF8CD
:105310004F0002980DF14F07B0F1004F25D02B2020
:105320000E9002984FF0020800280CDA40420290DA
:105330002D200E9007E00A210298FFF73FF8303148
:10534000029007F8011DB8F10001A8F10108F2DC94
:1053500002980028EFD1791E0E980870307800F07E
:10536000200040F0450007F8020D12A8C01B00F114
:1053700007081498007800B1012000EB0A01019899
:1053800001EBE07105984144401A401E0590E0038E
:1053900006D45B462146179A059800F05DF805444F
:1053A0001498007818B15A46179990476D1CE0037D
:1053B00024D55B462146179A059800F04DF8054420
:1053C0001CE00498002807DBDDE90301884203DDC7
:1053D0000098405C179901E0179930205A46904791
:1053E000049805F10105401C04900198401E0190AD
:1053F00004D12E205A46179990476D1CBAF100012E
:10540000AAF1010ADDDC05E017F8010B5A461799ED
:1054100090476D1CB8F10001A8F10108F4DC5B466F
:105420002146179A0598ABE62D0000002B000000DE
:10543000200000002DE9F041044600251E461746D5
:10544000880404D405E039462020B0476D1C641E52
:10545000F9D52846BDE8F0812DE9F0410446002544
:105460001E469046C80301D5302700E02027880457
:1054700004D505E041463846B0476D1C641EF9D599
:105480002846BDE8F0810A68531C0B601070704715
:105490002DE9F84F04460D4621F000400091744973
:1054A000814213DC7349884201DC08D13CB12046BB
:1054B0002946BDE8F84F4FF00102FFF7D7B86E4814
:1054C000002DCCBF6D496E49BDE8F88F6D49814212
:1054D00011DD6D498142D8BF4FF0FF366DDD2046AA
:1054E0002946FFF7F1FA042808BFFFF757FB2046CB
:1054F0002946BDE8F88F6549654F25F00045814292
:1055000033DD6449814219DD002632464FF0804385
:1055100020462946FEF720FD80468A460122204685
:105520002946FFF7A3F800223B46FEF7B6FD4246A8
:105530005346FEF72AFE04460D463EE001260022B1
:10554000BA463B4620462946FEF706FD80460F46F2
:105550000022534620462946FEF79FFD42463B4621
:10556000FEF713FE04460D4627E04B4981421BDD42
:10557000DFF8288102260022434620462946FEF70E
:1055800092FD00223B46FEF7E7FC07468A460022D2
:10559000434620462946FEF780FD3A465346FEF72D
:1055A000F4FD04460D4608E0032622462B46002063
:1055B0003B49FEF7EAFD04460D4622462B461046BF
:1055C0001946FEF770FD8B46824602460B46FEF7F3
:1055D0006AFD07460246334888460B460621784452
:1055E000FFF786FA52465B46FEF75DFD82462E487F
:1055F0008B463A46434605217844FFF779FA3A4606
:105600004346FEF750FD02460B46002E50465946D3
:105610000CDAFEF7A1FC22462B46FEF744FD01B052
:1056200022462B46BDE8F04FFEF73ABDFEF794FC4C
:1056300022462B46FEF737FD1C4A7A4402EBC6038E
:10564000D3E90023FEF729FD22462B46FEF725FD70
:10565000174A7A4402EBC603D3E90023FEF720FD84
:10566000009A002AB8BF81F00041BDE8F88F000021
:10567000000010440000F07F182D4454FB21F93F36
:10568000FB21F9BF0000DC3F0000203E0000F33F9B
:105690000000F03F0000E63F008003400000F83FBC
:1056A0000000F0BFE6020000A40200004202000079
:1056B0000A0200002DE9F04D9446CCF1000423F0DD
:1056C00000464CEA0404524F46EAD4749A4688468F
:1056D00021F00042BC4206D8454240EA050442EAB5
:1056E000D474BC4204D9BDE8F04D6246FEF734BC28
:1056F000AAF14055A5F17F6555EA0C040BD00224B0
:1057000004EAAA74434DDFF810E144EAD87452EA7F
:10571000000B04D00CE0BDE8F04DFFF7B9BE002C43
:1057200014BF012CBDE8F08D022C30D0032C32D0F8
:1057300056EA0C0B0AD0BE4220D1BA4209D126F05B
:10574000804622F080423346114617E000291ADBDA
:1057500025E0DFF8C8B0FB44002C04BFDBE9000102
:10576000BDE8F08D012C02BFDBE9000181F00041B2
:10577000BDE8F08D022C0AD0032C0CD0BA4212D115
:10578000B8F1000F0BDA23482549BDE8F08D284613
:105790002449BDE8F08D28467146BDE8F08D1D48CE
:1057A0002149BDE8F08D921B12153C2AC4BF19484F
:1057B0001D490EDCBAF1000FBEBF12F13C0F0020F4
:1057C000014606DB6246FEF7E0FC21F00041FFF7F0
:1057D0005FFE002C08BFBDE8F08D012C04BF81F0F6
:1057E0000041BDE8F08D114A114B022C07D0FEF7A5
:1057F00054FC2A46BDE8F04D0A4BFEF74EBCFEF7BE
:105800004CFC2A46BDE8F04D064BFEF749BC0000B3
:105810000000F07F182D4454FB2109C0260200002F
:10582000FB21F9BFFB210940FB21F93F075C143341
:1058300026A6A13C30B583B004460020CDE9000087
:10584000FFF7B4F90546002221466846FEF749FEF7
:105850002846FFF7C1F9DDE9000103B030BD0000C3
:105860004FBB610567ACDD3F182D4454FB21E93F78
:105870009BF681D20B73EF3F182D4454FB21F93F67
:10588000E2652F227F2B7A3C075C143326A6813CED
:10589000BDCBF07A8807703C075C143326A6913C98
:1058A000C4EB98999999C9BF711623FEC671BCBF04
:1058B0006D9A74AFF2B0B3BF9AFDDE522DDEADBF6C
:1058C0002F6C6A2C44B4A2BF0D5555555555D53F84
:1058D000FF8300922449C23F6E204CC5CD45B73F9F
:1058E000513DD0A0660DB13FEB0D76244B7BA93F17
:1058F00011DA22E33AAD903F004040404040404042
:105900004040414141414140404040404040404092
:105910004040404040404040400502020202020236
:105920000202020202020202022020202020202085
:105930002020200202020202020290909090909099
:105940001010101010101010101010101010101057
:1059500010101010020202020202888888888888CB
:1059600008080808080808080808080808080808B7
:10597000080808080202020240000000F958000866
:105980000000000000000000303031313030304481
:1059900039313638353131323538343336384639A5
:1059A000303030384141333835313733364345387C
:1059B0003542463938433631353146413733423046
:1059C000374432373630323536304335353142356B
:1059D00046463043384246373930314138464337FE
:1059E000363234423637334130303631303037306A
:1059F0003030373037383645384241343736463222
:105A000034454241344634443746364546463031C3
:105A100046463031464630310000000041542B43A9
:105A20004D47533D37310000485A00080000002020
:105A300090000000B84B0008D85A000890000020E1
:105A400008060000C84B000800A24A04000000003D
:105A5000000000000102030406070809000000001E
:105A600001020304010203040607080902040608F0
:105A70000000000000000000000000000000000026
:105A80000100000002000000030000000000000010
:105A90000000000000000000000000000000000006
:105AA00000000000000000000000000000000000F6
:105AB00000000000000000000000000000000000E6
:105AC00000000000000000001C5A0008885900086F
:085AD0000001000000000000CD
:0400000508000131BD
