:020000040800F2
:10000000C805002045010008B11E0008B31E000805
:10001000BD1E0008C11E0008C51E0008000000002B
:10002000000000000000000000000000C91E0008E1
:10003000CB1E000800000000CD1E0008CF1E0008E7
:100040005F0100085F0100085F0100085F01000810
:100050005F0100085F0100082D2100085F01000812
:100060005F0100085F0100085F0100085F010008F0
:100070005F0100085F0100085F0100085F010008E0
:100080005F0100085F0100085F0100085F010008D0
:100090005F0100085F0100085F0100085F010008C0
:1000A0005F0100085F0100085F0100085F010008B0
:1000B0005F010008A91F0008D91E00085F010008A1
:1000C0005F0100085F0100085F0100085F01000890
:1000D0005F010008D71E0008432100085F010008E7
:1000E0005F0100085F0100085F0100085F01000870
:1000F0005F0100085F0100085F0100085F01000860
:100100005F0100085F0100085F0100085F0100084F
:100110005F0100085F0100085F0100085F0100083F
:100120005F0100085F0100085F0100085F0100082F
:10013000DFF80CD003F012FC00480047651E0008F1
:10014000C80500200648804706480047FEE7FEE74E
:10015000FEE7FEE7FEE7FEE7FEE7FEE7FEE7FEE777
:1001600047020008310100080CB500200190009002
:100170006C48006840F480306A49086000BF6948F4
:10018000006800F4003000900198401C0190009835
:1001900018B90198B0F5A06FF1D16248006800F479
:1001A000003010B10120009001E000200090009884
:1001B000012843D15C48006840F010005A490860AB
:1001C0000846006820F0030008600846006840F018
:1001D0000200086053484068524948600846406839
:1001E00048600846406840F48060486008464068BF
:1001F00020F47C1048600846406840F4E8104860ED
:100200000846006840F08070086000BF45480068FC
:1002100000F000700028F9D04248406820F0030048
:10022000404948600846406840F00200486000BF0E
:100230003C48406800F00C000828F9D10CBD10B50E
:10024000FFF792FF10BD10B53648006840F001007E
:1002500034490860084640683449084031494860DC
:1002600008460068324908402E4908600846006880
:1002700020F4802008600846406820F4FE004860B2
:100280004FF41F008860FFF7DAFF4FF00060294944
:10029000086010BD10B5002100200022214B5B68D2
:1002A00003F00C0121B1042906D0082928D107E068
:1002B000214B224C236027E01F4B204C236023E07E
:1002C000184B5B6803F47010164B5B6803F48032C4
:1002D000022303EB904022B9194B4343174C236090
:1002E0000DE0104B5B6803F4003323B1144B434320
:1002F000124C236003E0104B4343104C236003E097
:100300000D4B0E4C236000BF00BF064B5B68C3F370
:1003100003130C4CE15C094B1B68CB40074C23607A
:1003200010BD000000100240002002400000FFF855
:10033000FFFFF6FE08ED00E000127A00000000204A
:1003400000093D000400002031490143314A116099
:10035000704770B5002100230F22C47804B32D4CE0
:10036000246804F4E064C4F5E064210AC1F10403E4
:10037000CA40447804FA03F1847814402143090107
:10038000254C0678A155047804F01F050124AC40E3
:1003900005786D11AD0005F1E025C5F8004109E0D3
:1003A000047804F01F050124AC401C4D067876113A
:1003B00045F8264070BD1A4A0A400243154B1B1FE0
:1003C0001A60704739B1134A121D12680243114B6B
:1003D0001B1D1A6006E00F4A121D126882430D4B66
:1003E0001B1D1A607047042808D14FF0E0210969ED
:1003F00041F004014FF0E022116107E04FF0E021ED
:10040000096921F004014FF0E022116170470000FA
:100410000000FA050CED00E000E400E080E100E0FF
:1004200080FFFF1F002044490860091D0860091D66
:100430000860091D086041483F4914310860704751
:1004400000213D498279002A3AD00A4612680368A1
:100450009A430B461A600A1D126803689A430B1DE3
:100460001A60027911440A6803681A430A60324A22
:100470000832126803689A432F4B08331A601A1D1A
:10048000126803689A432C4B0C331A604279102A85
:100490000ED11A1F126803681A43274B08331A60DB
:1004A0001A1D126803681A43234B0C331A600DE0BF
:1004B0002149427911440A6803681A430A6005E039
:1004C000027911440A6803689A430A607047002160
:1004D000016001710C214171002181717047164941
:1004E000103109680143144A103211607047014607
:1004F0000020114A143212680A400AB1012000E0BB
:10050000002070470C4914310860704701460020F4
:100510000022094B1B6803EA0102074B14331B68D6
:100520000B4013B10AB1012000E0002070470249DE
:10053000143108607047000000040140FFFF0F0005
:1005400010B50446CC48844208D10121042000F0B3
:100550002DFB0021042000F029FB46E0C74884421F
:1005600008D10121082000F021FB0021082000F023
:100570001DFB3AE0C248844208D10121102000F05E
:1005800015FB0021102000F011FB2EE0BD48844235
:1005900008D10121202000F009FB0021202000F0DB
:1005A00005FB22E0B848844208D10121402000F038
:1005B000FDFA0021402000F0F9FA16E0B348844229
:1005C00008D10121802000F0F1FA0021802000F004
:1005D000EDFA0AE0AE48844207D10121801500F00F
:1005E000E5FA0021A01500F0E1FA10BD10B50121D7
:1005F000084600F0DBFA0021012000F0D7FA10BD18
:100600002DE9F041024600250026002000230024A9
:10061000002791F803C00CF00F0591F803C00CF00F
:10062000100CBCF1000F03D091F802C04CEA050594
:1006300091F800C0BCF1000F31D0146800202BE00D
:100640004FF0010C0CFA00F3B1F800C00CEA0306FD
:100650009E4220D183004FF00F0C0CFA03F7BC43ED
:1006600005FA03FC4CEA040491F803C0BCF1280F1E
:1006700006D14FF0010C0CFA00FCC2F814C00AE0DD
:1006800091F803C0BCF1480F05D14FF0010C0CFAF2
:1006900000FCC2F810C0401C0828D1D31460B1F887
:1006A00000C0BCF1FF0F34DD546800202EE000F1E3
:1006B000080C4FF0010808FA0CF3B1F800C00CEA7E
:1006C00003069E4221D183004FF00F0C0CFA03F772
:1006D000BC4305FA03FC4CEA040491F803C0BCF1E6
:1006E000280F05D100F1080C08FA0CF8C2F81480A4
:1006F00091F803C0BCF1480F07D100F1080C4FF08E
:10070000010808FA0CF8C2F81080401C0828CED363
:100710005460BDE8F0814FF6FF71018002218170C5
:100720000421C17070470246002093680B400BB152
:10073000012000E0002070470146886880B27047C1
:1007400002460020D3680B400BB1012000E00020DE
:1007500070470146C86880B27047016170474161C7
:1007600070470AB1016100E041617047C1607047A4
:100770004FF480320A4382618161826182698269B9
:10078000704702460020434B18684FF680731840AC
:1007900040EA021008433F4B186070473E49C86169
:1007A0007047F0B50A46002300240021002500F020
:1007B0000046B6F1004F02D1364EF16901E0354EE8
:1007C0007168C0F3034583B200F44016B6F5401FCC
:1007D00008D121F070612F4E766826F070662D4F9B
:1007E0007E6012E000F48016B6F5801F06D1032665
:1007F00006FA05F4A14341F0706106E0460D3601AA
:1008000003FA06F6B14341F0706122B1460D36019C
:1008100003FA06F6314300F00046B6F1004F02D16C
:100820001C4EF16101E01B4E7160F0BD30B500223D
:100830008B071C0F0F2303FA04F2164B08338C109E
:1008400053F824309343134C08348D1044F825306A
:1008500023468C1053F824308C07240F00FA04F43C
:1008600023430C4C08348D1044F8253030BD0A4920
:10087000DC3108607047000000080140000C0140B6
:10088000001001400014014000180140001C01400C
:10089000002001400000014000002042DF480068C5
:1008A00040F00100DD49086008464068DC49084026
:1008B000DA49486008460068DA490840D7490860C4
:1008C0000846006820F4802008600846406820F44C
:1008D000FE0048604FF41F0088607047CF490968E8
:1008E00021F48031CD4A11601146096821F480213C
:1008F0001160B0F5803F03D0B0F5802F0ED106E037
:10090000C649096841F48031C44A116007E0C3490F
:10091000096841F4A021C14A116000E000BF00BF96
:10092000704710B501460022002300204A11012A19
:1009300002D1BA4C236806E0022A02D1B74C236ADE
:1009400001E0B64C636A01F01F02012494401C4090
:100950000CB1012000E0002010BD38B5002000904F
:100960000024002500BF3120FFF7DBFF054600987B
:10097000401C00900098B0F5A06F01D0002DF2D07F
:100980003120FFF7CEFF08B1012400E0002420460B
:1009900038BD01460020A14A106820F0F80040EA66
:1009A000C10010607047A0490860704702460020EF
:1009B0009A4B586820F47C1042EA01031843974B85
:1009C0005860704798490866704701460020934A6E
:1009D000506820F003000843506070478F4840681B
:1009E00000F00C007047014600208C4A506820F04F
:1009F000F00008435060704701460020874A506865
:100A000020F4E06008435060704701460020834AAC
:100A1000506820F4605040EAC1005060704729B12E
:100A20007E4A527A02437D4B5A7204E07B4A527AE4
:100A300082437A4B5A7270477B49D83108607047BD
:100A400001460020754A506820F440400843506039
:100A500070470021714A20321170704A82F82010CC
:100A6000012802D004280AD104E001216B4A203277
:100A7000117005E00521694A2032117000E000BFC5
:100A800000BF70476949086070476449096A0143BB
:100A9000624A11627047654944390860704730B551
:100AA00000210022002400235C4D6D6805F00C013C
:100AB00021B1042905D0082923D105E05C4D05604A
:100AC00022E05B4D05601FE0544D6D6805F4701227
:100AD000524D6D6805F48034022505EB92421CB935
:100AE000544D554305600BE04C4D6D6805F40035E1
:100AF0001DB1504D5543056002E04D4D5543056015
:100B000002E04B4D056000BF00BF444D6D6805F02D
:100B1000F0010909484D6B5C0568DD4045603F4DBB
:100B20006D6805F4E061090A434D6B5C4568DD4082
:100B300085603A4D6D6805F46051C90A3E4D6B5CA5
:100B40004568DD40C560354D6D6805F44041890B51
:100B50003A4D6B5CC568B5FBF3F5056130BD29B155
:100B60002E4A526902432D4B5A6104E02B4A5269C6
:100B700082432A4B5A61704729B1284A926902433D
:100B8000264B9A6104E0254A92698243234B9A617D
:100B9000704729B1214AD2690243204BDA6104E04F
:100BA0001E4AD26982431D4BDA61704729B11B4A44
:100BB000D2680243194BDA6004E0184AD2688243D3
:100BC000164BDA60704729B1144A12690243134B7D
:100BD0001A6104E0114A12698243104B1A6170478E
:100BE00012494039086070470F49C86470470B4983
:100BF000C87170470948406A40F0807007494862F0
:100C0000704701460020054A92680A400AB1012057
:100C100000E00020704701498872704700100240D0
:100C20000000FFF8FFFFF6FE00004242800442424F
:100C300000127A0000093D0014000020240000206A
:100C400010B50446FE48844208D10121C014FFF7C4
:100C5000ADFF0021E014FFF7A9FFC4E0B4F1804F1D
:100C600008D101210846FFF7AEFF00210120FFF760
:100C7000AAFFB8E0F348844208D101210220FFF71F
:100C8000A2FF00210220FFF79EFFACE0EE48844265
:100C900008D101210420FFF796FF00210420FFF76F
:100CA00092FFA0E0E948844208D101210820FFF723
:100CB0008AFF00210820FFF786FF94E0E448844281
:100CC00008D101211020FFF77EFF00211020FFF73F
:100CD0007AFF88E0DF48844208D101212020FFF715
:100CE00072FF00212020FFF76EFF7CE0DA4884428B
:100CF00008D101214014FFF759FF00216014FFF7CC
:100D000055FF70E0D548844209D10121C804FFF79E
:100D10004DFF00214FF40020FFF748FF63E0D0486B
:100D2000844209D101210805FFF740FF00214FF45B
:100D30008010FFF73BFF56E0CA48844209D10121E9
:100D40004805FFF733FF00214FF40010FFF72EFF97
:100D500049E0C548844208D101214020FFF733FF14
:100D600000214020FFF72FFF3DE0C048844208D11A
:100D700001218020FFF727FF00218020FFF723FFBC
:100D800031E0BB48844208D101218015FFF71BFFE9
:100D90000021A015FFF717FF25E0B648844209D1CE
:100DA00001210804FFF702FF00214FF48030FFF714
:100DB000FDFE18E0B048844209D101214804FFF744
:100DC000F5FE00214FF40030FFF7F0FE0BE0AB48DA
:100DD000844208D101218804FFF7E8FE00214FF486
:100DE0008020FFF7E3FE10BD00220288944B98425A
:100DF0000ED0994B98420BD0B0F1804F08D0914B58
:100E0000984205D0904B984202D0904B984204D122
:100E10004FF68F731A404B881A438D4B984207D078
:100E20008C4B984204D04FF6FF431A40CB881A43AC
:100E300002808B8883850B880385814B98420BD079
:100E4000854B984208D08B4B984205D08A4B9842EC
:100E500002D08A4B984201D10B7A03860123838208
:100E6000704770B5002400220023058C4FF6FE76F3
:100E700035400584028C8388048B4FF68F752C4097
:100E8000B51E2C400D882C43751E2A400D892A431F
:100E90004D882A436A4DA8420BD06F4DA84208D016
:100EA000744DA84205D0744DA84202D0734DA8429B
:100EB00013D14FF6F7752A404D892A434FF6FB753B
:100EC0002A408D882A434FF6FF652B404FF6FF5589
:100ED0002B408D892B43CD892B4383800483CD8880
:100EE0008586028470BD70B5002400220023058C25
:100EF0004FF6EF7635400584028C8388048B48F6E4
:100F0000FF752C404FF6FF452C400D884FF6FF76BD
:100F100006EA05252C434FF6DF752A400D8906EABF
:100F200005152A434D8806EA05152A43444DA84273
:100F300002D0494DA8421DD14FF67F752A404D89F8
:100F40004FF6FF7606EA05152A434FF6BF752A408D
:100F50008D8806EA05152A434FF6FF352B404FF2E0
:100F6000FF752B408D8906EA85052B43CD8906EA5E
:100F700085052B4383800483CD880587028470BD5B
:100F800070B5002400220023058C4FF6FF66354023
:100F90000584028C8388848B4FF68F752C404FF626
:100FA000FC752C400D882C434FF6FF552A400D89C7
:100FB0004FF6FF7606EA05252A434D8806EA052501
:100FC0002A431F4DA84202D0234DA8421DD14FF203
:100FD000FF752A404D894FF6FF7606EA05252A431C
:100FE0004FF6FF352A408D8806EA05252A434EF63E
:100FF000FF752B404DF6FF752B408D8906EA0515D0
:101000002B43CD8906EA05152B4383808483CD8845
:101010008587028470BD70B5002200230024058CF2
:101020004EF6FF7635400584038C8488828B48F623
:10103000FF752A404FF6FF452A400D8820E000004A
:10104000002C01400004004000080040000C00405B
:10105000001000400014004000340140004C0140EA
:10106000005001400054014000180040001C0040A6
:101070000020004000400140004401400048014081
:101080004FF6FF7606EA05252A434DF6FF752B40FD
:101090000D8906EA05352B434D8806EA05352B43B5
:1010A000FA4DA84202D0FA4DA84208D14BF6FF757E
:1010B0002C408D894FF6FF7606EA85152C438480F7
:1010C0008283CD88A0F84050038470BD828B4FF29C
:1010D000FF331A408283828B4FF6FF7303EA0123AA
:1010E0001A4382837047F0B50C4615460022002152
:1010F0000026078C4EF6FF7C07EA0C070784828BDC
:10110000018C4FF6FF7707EA043640F6FF473A4076
:101110004FF6FF7707EA05273A434FF6FF7707EACE
:1011200003373A43D94FB8420ED0D94FB8420BD00B
:10113000B0F1804F08D0D74FB84205D0D64FB84253
:1011400002D0D64FB84206D14DF6FF77394046F46B
:101150008057394305E047F6FF57394044F480573C
:10116000394382830184F0BD828B4FF6F3731A40BA
:101170008283828B0A4382837047F0B50C46154602
:10118000002200210026078C4FF6FF6C07EA0C07AF
:101190000784828B018C4FF6FF7707EA04264FF60F
:1011A0000C773A404FF6FF7707EA03172F433A438D
:1011B000B64FB8420ED0B64FB8420BD0B0F1804F08
:1011C00008D0B44FB84205D0B34FB84202D0B34FA5
:1011D000B84206D14FF6FF57394046F4807739437D
:1011E00005E04FF2FF57394044F48077394382835A
:1011F0000184F0BD028B4FF2FF331A400283028B51
:101200004FF6FF7303EA01231A4302837047F0B5D8
:101210000C461546002200210026078C4FF6EF7C75
:1012200007EA0C070784028B018C4FF6FF7707EA69
:10123000041640F6FF473A404FF6FF7707EA0337B8
:101240003A434FF6FF7707EA05273A438F4FB842F4
:101250000ED08F4FB8420BD0B0F1804F08D08D4FD9
:10126000B84205D08C4FB84202D08C4FB84206D15C
:101270004FF6DF77394046F01007394305E04FF667
:101280005F77394044F01007394302830184F0BD91
:10129000028B4FF6F3731A400283028B0A430283D8
:1012A0007047F0B50C46154600220021068C4FF61B
:1012B000FE773E400684028B018C4FF60C7632405E
:1012C0007E1C06EA03162E433243704EB0420ED007
:1012D0006F4EB0420BD0B0F1804F08D06D4EB0428F
:1012E00005D06D4EB04202D06C4EB04206D14FF6E2
:1012F000FD76314044F00106314305E04FF6F576C6
:10130000314044F00106314302830184F0BD70B5E1
:1013100005460C465D4885420ED05D4885420BD09F
:10132000B5F1804F08D05B48854205D05A488542C8
:1013300002D05A48854200D100E000BF208850B951
:101340002389A28861882846FFF7ABFFE1882846F9
:10135000FFF79EFF25E0208804280AD12389A28870
:1013600061882846FFF753FFE1882846FFF742FFD0
:1013700017E0208808280AD12389A2886188284696
:10138000FFF7FBFEE1882846FFF7EEFE09E0238920
:10139000A28861882846FFF7A6FEE1882846FFF765
:1013A00095FE70BD2DE9F04105460C46002601274B
:1013B000608808B9022600E00026A088012801D133
:1013C000022700E001272088A0B92389A28861882C
:1013D0002846FFF766FFE1882846FFF759FF238973
:1013E0003A4631462846FFF712FFE1882846FFF7C4
:1013F00001FF13E02389A28861882846FFF707FFD1
:10140000E1882846FFF7F6FE23893A46314628460A
:10141000FFF747FFE1882846FFF73AFFBDE8F08174
:101420000A884B881A438B881A43CB881A430B8946
:101430001A434B891A438B891A43A0F844207047FA
:101440004FF6FF71818000210180C18041800172CF
:1014500070470021018041808180C18001814181EC
:101460008181C181704700210180418001218180FB
:101470000021C1800181704700210180418081806D
:10148000C18001814181818170470000002C0140B1
:10149000003401400004004000080040000C0040FF
:1014A00021B1028842F00102028004E002884FF676
:1014B000FE731A400280704731B1B0F8442042F404
:1014C0000042A0F8442005E0B0F84420C2F30E0228
:1014D000A0F8442070471AB183890B43838102E04E
:1014E00083898B43838170478182704741EA02037D
:1014F000A0F8483070471AB183890B43838102E01A
:1015000083898B438381704701894FF6F8721140BC
:10151000018170470A46002101894FF68F731940F7
:1015200011430181704730B504460D4629462046D7
:10153000FFF7F0FF208940F00700208130BD2DE942
:10154000F04104460D4616461F46602D06D13B4627
:10155000012231462046FFF75AFE05E03B460122B4
:1015600031462046FFF79DFE29462046FFF7D2FF71
:10157000208940F007002081BDE8F08130B50C469D
:1015800000210189C9B24FF6FF7505EA032515430D
:1015900025432943018130BD2DE9F04105460E4622
:1015A00017469846002443463A4631462846FFF7F8
:1015B000E5FF2C894FF6F870044044F007044FF61D
:1015C0008F70044044F070042C81BDE8F081F0B5C8
:1015D00004460D4616461F463B46324629462046DF
:1015E000FFF7CCFF208940F480402081F0BD0185C9
:1015F000828270470A46002101884FF68F73194096
:10160000114301807047F0B50C4615461E46002177
:10161000002200230189028B038C4FF6F8773940B2
:1016200021434FF6FC473A4040F201173A434FF648
:10163000DD773B404FF6FF7707EA06172F433B4322
:10164000018102830384F0BD0A460021018B4FF61D
:101650008F7319401143018370470A460021018BA3
:1016600048F6FF7319404FF6FF7303EA022319434C
:10167000018370470A460021818B4FF68F73194012
:101680001143818370470A460021818B48F6FF731E
:1016900019404FF6FF7303EA022319438183704711
:1016A00021B1028842F08002028004E002884FF6F5
:1016B0007F731A400280704721B1828842F0040291
:1016C000828004E082884FF6FB731A408280704764
:1016D00021B1828842F00802828004E082884FF6BD
:1016E000F7731A408280704721B1828842F001026C
:1016F000828004E082884FF6FE731A408280704731
:101700000A460021018B4FF6F773194011430183FC
:1017100070470A460021018B4FF2FF7319404FF6C4
:10172000FF7303EA02231943018370470A4600212D
:10173000818B4FF6F77319401143818370470A4636
:101740000021818B4FF2FF7319404FF6FF7303EABC
:1017500002231943818370470A460021018B4FF60B
:10176000FB7319401143018370470A460021018B26
:101770004FF6FF3319404FF6FF7303EA0223194374
:10178000018370470A460021818B4FF6FB73194095
:101790001143818370470A460021818B4FF6FF3346
:1017A00019404FF6FF7303EA022319438183704700
:1017B0000A460021018B4FF67F73194011430183C4
:1017C00070470A460021018BC1F30E014FF6FF73EB
:1017D00003EA02231943018370470A460021818BE3
:1017E0004FF67F7319401143818370470A460021E9
:1017F000818BC1F30E014FF6FF7303EA02231943F5
:10180000818370470A460021018C4FF6FD73194011
:101810001143018470470A460021018C4FF6F7738B
:1018200019401143018470470A460021018C4FF68C
:10183000DF7319404FF6FF7303EA02131943018463
:1018400070470A460021018C4FF67F7319404FF60E
:10185000FF7303EA02131943018470470A4600210B
:10186000018C4FF6FF5319404FF6FF7303EA022332
:101870001943018470470A460021018C4FF2FF731F
:1018800019404FF6FF7303EA02231943018470479E
:101890000A460021018C4DF6FF7319404FF6FF7385
:1018A00003EA023319430184704730B50023012451
:1018B0008C40A3B2048C9C430484048C02FA01F58E
:1018C000ADB22C43048430BD30B5002304248C40D9
:1018D000A3B2048C9C430484048C02FA01F5ADB2DB
:1018E0002C43048430BD70B5034600200024184604
:1018F000183001258D40ACB21D8CA5431D8409B163
:10190000082909D100EB6100056825F07005056024
:101910000568154305600EE00D1FC5F34E0528440C
:10192000056825F4E045056005684FF6FF7606EA90
:1019300002263543056070BD21B1028842F00202E3
:10194000028004E002884FF6FD731A40028070475F
:1019500021B1028842F00402028004E002884FF6BE
:10196000FB731A400280704721B1828842F08002E6
:10197000828004E082884FF67F731A40828070472D
:1019800002884FF6F7731A40028002880A430280E9
:10199000704782884FF68F731A40828082880A438C
:1019A0008280704702894FF6F8731A4002810289DB
:1019B0000A430281704702894FF67F731A40028101
:1019C00002890A430281704781847047818570478C
:1019D000818670470187704781877047A0F8401063
:1019E000704702884FF6FF431A40028002880A437C
:1019F000028070470146888E70470146088F704705
:101A00000146888F70470146B1F840007047014693
:101A1000888C70470146088D704702460020138A63
:101A20000B400BB1012000E000207047CA43028246
:101A3000704730B50246002000230024158A05EACD
:101A40000103958905EA010413B10CB1012000E0FE
:101A5000002030BDCA4302827047000010B5044622
:101A6000FB48844209D101218803FFF79FF8002138
:101A70004FF48040FFF79AF832E0F648844209D1EB
:101A800001214804FFF79FF800214FF40030FFF7D1
:101A90009AF825E0F048844209D101218804FFF733
:101AA00092F800214FF48020FFF78DF818E0EB4802
:101AB000844209D10121C804FFF785F800214FF4C1
:101AC0000020FFF780F80BE0E548844208D10121AF
:101AD0000805FFF778F800214FF48010FFF773F83E
:101AE00010BD2DE9F04786B005460E460024A246FB
:101AF00000BFA1460027B08900B100BF2F462C8A45
:101B00004CF6FF700440F08804432C82AC894EF6FA
:101B1000F3100440B08831890843718908430443B5
:101B2000AC81AC8A4FF6FF400440B0890443AC82DC
:101B300001A8FEF7B4FFC648874202D1DDF810A025
:101B400001E0DDF80CA0A88900F4004040B10AEBE8
:101B5000CA0000EB0A1031684900B0FBF1F807E059
:101B60000AEBCA0000EB0A1031688900B0FBF1F8FB
:101B70006420B8FBF0F004012009642101FB108906
:101B8000A88900F4004040B1322000EBC900B0FB4E
:101B9000F1F000F00700044308E0322000EB0910E8
:101BA0006421B0FBF1F000F00F0004432C8106B07B
:101BB000BDE8F0874FF41651016000218180C1809B
:101BC00001810C21418100218181704710B50246BD
:101BD0000020108A4FF2FF0318400B884C882343E3
:101BE0008C882343CC8823431843108210BD0021E6
:101BF000018041808180C180704721B1828942F497
:101C00000052828104E082894DF6FF731A4082817E
:101C10007047F0B50346002400260025002040F65A
:101C20006A17B94200D100BF1846C1F3421401F04F
:101C30001F06012707FA06F5012C01D10C3004E03C
:101C4000022C01D1103000E014301AB107682F4384
:101C5000076002E00768AF430760F0BD1AB1838AEE
:101C60000B43838202E0838A8B4383827047028A1C
:101C70004FF6F0731A400282028A0A4302827047CA
:101C800082894FF2FF731A40828182890A438281DE
:101C9000704721B1828942F00202828104E0828988
:101CA0004FF6FD731A4082817047028A4FF6DF7348
:101CB0001A400282028A0A430282704721B1028AD4
:101CC00042F48042028204E0028A4BF6FF731A401B
:101CD00002827047C1F308028280704701468888FB
:101CE000C0F308007047818941F00101818170478C
:101CF000028BD2B20283028B42EA01220283704736
:101D0000028B02F47F420283028B0A4302837047F4
:101D100021B1828A42F02002828204E0828A4FF658
:101D2000DF731A408282704721B1828A42F010022A
:101D3000828204E0828A4FF6EF731A4082827047F3
:101D400021B1828A42F00802828204E0828A4FF640
:101D5000F7731A408282704721B1828942F40042AF
:101D6000828103E08289C2F30E028281704721B131
:101D7000828A42F40062828204E0828A4FF2FF7318
:101D80001A4082827047828A4FF6FB731A40828221
:101D9000828A0A438282704721B1828A42F002021B
:101DA000828204E0828A4FF6FD731A408282704775
:101DB00002460020B1F5007F00D100BF13880B4020
:101DC0000BB1012000E00020704701F40072B2F571
:101DD000007F00D100BFCA430280704770B5024641
:101DE000002400230025002040F66A16B14200D1ED
:101DF00000BFC1F3421501F01F03012606FA03F3E9
:101E0000012D02D19689334006E0022D02D1168AB7
:101E1000334001E0968A33400C12012606FA04F49E
:101E20001688344013B10CB1012000E0002070BDD1
:101E300010B50022002340F66A14A14200D100BF71
:101E40000A1201249440A3B2DC43048010BD0000B8
:101E5000003801400044004000480040004C004071
:101E60000050004086B000BF00BF00F0F3FC01F05E
:101E700041F800F069FA00F0C9FB4FF4164000F099
:101E800025FA00F052FD00F0F6FE00F0B9F900F07E
:101E9000A7FB01F082F80AE001F0D6F801F049F959
:101EA000684600F04EFC4FF4FA7000F0F1FCF3E7E6
:101EB0007047C5A001F064FD00BFFEE700BFFEE76C
:101EC00000BFFEE700BFFEE770477047704710B5E0
:101ED00000F0E9F910BD704710B50121BF48FFF7C8
:101EE000A8FD38B1BE484088BD4948800121BB48A3
:101EF000FFF7B0FD0821B948FFF79BFD38B3B9489B
:101F0000407878B90021B548FFF75EFD0020B5495B
:101F1000888048800221B148FFF7A0FC0120B14928
:101F200048700FE0AD48FFF76BFDAE4948800021D7
:101F3000AA48FFF793FC0020AA49487001200870C6
:101F400000BF00BF0821A548FFF784FD2BE010214A
:101F5000A248FFF76EFD30B3A248407878B900215F
:101F60009E48FFF731FD00209E498880488002216D
:101F70009A48FFF78DFC01209A4948700FE0974876
:101F8000FFF741FD9749488000219448FFF780FC06
:101F90000020944948700120087000BF00BF102144
:101FA0008E48FFF757FD10BD10B501218E48FFF791
:101FB00040FD38B18A4840888949488001218A48D3
:101FC000FFF748FD02218848FFF733FD38B3844806
:101FD000407878B900218448FFF7F6FC002080495A
:101FE0008880488002218048FFF70CFC01207C4952
:101FF00048700FE07C48FFF7FDFC794948800021DC
:102000007948FFF7FFFB00207549487001200870F0
:1020100000BF00BF02217448FFF71CFD85E00421CA
:102020007148FFF706FD38B36D48407878B9002154
:102030006D48FFF7C9FC002069498880488002216B
:102040006948FFF7F1FB0120654948700FE06648D9
:10205000FFF7D3FC6249488000216348FFF7E4FBA7
:1020600000205F4948700120087000BF00BF0421B4
:102070005D48FFF7EFFC58E008215B48FFF7D9FC0B
:1020800038B35748407878B900215748FFF79CFC8F
:10209000002053498880488002215348FFF7DEFB27
:1020A00001204F4948700FE04F48FFF7A9FC4C4909
:1020B000488000214C48FFF7D1FB00204849487078
:1020C0000120087000BF00BF08214748FFF7C2FC8D
:1020D0002BE010214448FFF7ACFC30B34048407877
:1020E00078B900214048FFF76FFC00203C49888008
:1020F000488002213C48FFF7CBFB0120384948705B
:102100000FE03948FFF77FFC354948800021364809
:10211000FFF7BEFB0020324948700120087000BF65
:1021200000BF10213048FFF795FC10BD10B501200D
:10213000FEF7ECF920B101202C490870FEF7F7F901
:1021400010BD10B540F225512948FFF747FE002881
:1021500039D02748FFF7C2FDC4B2242C02D1002099
:1021600024490880234801880088401C214A1080A7
:1021700021484454007824281ED11F4800794D2856
:102180001AD11D484079432816D10A2C14D1502168
:102190001A4801F096F8174802881749174801F0C5
:1021A00077F80120154981F8500000201149088076
:1021B000C821114801F085F80E480088C82802DBC4
:1021C000C8200C49088010BD0D0A20686172646641
:1021D00061756C74206572720D0A00000008004081
:1021E0003A000020340000200004004028000020B5
:1021F000004400406C000020FD000020840000200E
:1022000030B52D4800682D4AB0FBF2F1B1F1807F66
:1022100001D301201DE021F07F40401E4FF0E0225D
:10222000506150170F22002807DA13071D0E244BA8
:1022300000F00F04241F1D5503E013071C0E214B53
:102240001C5400BF00204FF0E02290610720106175
:10225000002008B100BFFEE74FF0E020006920F049
:1022600001004FF0E021086130BD01B5164900982A
:1022700008604FF0E020006940F001004FF0E021DD
:10228000086100BF104800680028FBD108BD01B5F7
:1022900003E04FF47A70FFF7E8FF0098411E0091C9
:1022A0000028F6D108BD0848006820B1064800683B
:1022B000401E0549086070470000002040420F00A2
:1022C00018ED00E000E400E02C00002010B586B01E
:1022D0000446012144F20400FEF74EFC4FF4007066
:1022E000ADF8140018208DF8170003208DF81600A3
:1022F00005A92F48FEF784F94FF48060ADF814006B
:1023000004208DF8170005A92948FEF779F90194F2
:102310000020ADF80800ADF80A00ADF80C00ADF8EB
:1023200010000C20ADF80E0001A92248FFF7D9FBE0
:10233000012240F225511F48FFF76BFC01211D4887
:10234000FFF75BFC06B010BD08B54FF4E060FDF789
:10235000FBFF25208DF8000000208DF801000120F2
:102360008DF802008DF803006846FDF7F2FF08BD06
:1023700000BF704770B504460D46E1B20D48FFF747
:10238000A9FC00BF80210B48FFF712FD0028F9D0FF
:10239000204670BD10B5044600BF20210548FFF758
:1023A00007FD0028F9D00348FFF798FC10BD000096
:1023B000000801400038014008B51E208DF80000DB
:1023C00000208DF8010002208DF8020001208DF818
:1023D00003006846FDF7BDFF08BD08B51D208DF858
:1023E000000000208DF8010003208DF8020001207C
:1023F0008DF803006846FDF7ACFF08BD08B5012164
:102400000820FEF7B9FB04208DF803008001ADF829
:10241000000069467948FEF7F3F84FF40070ADF814
:10242000000069467548FEF7EBF808BD08B50121C4
:102430000820FEF7A1FB01210420FEF79DFB0420EC
:102440008DF803004020ADF8000069466C48FEF7A7
:10245000D7F88020ADF8000069466948FEF7D0F84B
:102460000120ADF8000069466448FEF7C9F8022073
:10247000ADF8000069466148FEF7C2F808BD00B536
:1024800087B001210420FEF784FB4FF6FF70ADF802
:1024900014004720ADF810000020ADF81600ADF88C
:1024A00012008DF8180004A95648FEF79DFC002084
:1024B000ADF806000120ADF808000020ADF80A00D4
:1024C000ADF80C000820ADF8040001A94D48FEF756
:1024D0001EFF0C20ADF8040001A94A48FEF717FFC3
:1024E00009214848FFF7A2FA11214648FFF79EFA52
:1024F000012209214348FEF7EEFF01221121414844
:10250000FEF7E9FF01213F48FEF7CAFF07B000BD13
:1025100000B587B001210220FEF73BFB4FF6FF70AC
:10252000ADF814004720ADF810000020ADF81600FB
:10253000ADF812008DF8180004A93348FEF754FCDA
:102540000020ADF806000120ADF808000020ADF82D
:102550000A00ADF80C00ADF8040001A92A48FEF706
:10256000D6FE0420ADF8040001A92748FEF7CFFEEF
:102570000820ADF8040001A92348FEF7C8FE0C208E
:10258000ADF8040001A92048FEF7C1FE03211E4852
:10259000FFF74CFA05211C48FFF748FA09211A48B1
:1025A000FFF744FA11211848FFF740FA01220521EC
:1025B0001548FEF790FF012209211348FEF78BFF13
:1025C000012203211048FEF786FF012211210E4847
:1025D000FEF781FF01210C48FEF762FF07B000BD46
:1025E00010B5FFF70BFFFFF7E7FEFFF748FFFFF718
:1025F0001DFFFFF7F2FEFFF78BFF10BD000C01403F
:1026000000080140000800400004004008B5012116
:102610001020FEF7B1FA10208DF8030003208DF88A
:1026200002000120ADF8000069467848FDF7E8FF98
:102630000220ADF8000069467448FDF7E1FF042070
:10264000ADF8000069467148FDF7DAFF0820ADF8E3
:10265000000069466D48FDF7D3FF1020ADF800007B
:1026600069466A48FDF7CCFF2020ADF800006946B6
:102670006648FDF7C5FF08BD37B51446BDF8020032
:10268000451C4FF4AA7068434008642148436049E0
:10269000B0FBF1F05F4941F8240000BF084650F854
:1026A000242021465CA001F06BF93EBD70B50546C3
:1026B0000C46A1B22846FEF750F80A2000F0DEF8DA
:1026C000A1B22846FEF74BF870BD70B50546002450
:1026D00000BF0BE04F4850F8240045F8240055F89F
:1026E0002420214652A001F04BF9641C052CF1DB9B
:1026F00070BD014653480088084400B2514A10801A
:102700001046B0F90000FA2801DDFA2010804D488B
:10271000B0F90000704701464A480088401A00B2EC
:10272000484A10801046B0F900001E2801DA1E2029
:1027300010804448B0F9000070474248B0F90000EA
:1027400070477CB5054600243F480078012810D129
:1027500000203D4908700846016800918088ADF866
:1027600004003A4890F90020DDE90001FFF784FFFA
:1027700013E03748007801280FD100203449087051
:102780000846016800918088ADF804002F4890F950
:102790000020DDE90001FFF76FFF2C4890F90000F1
:1027A000062822D2DFE800F003080D12171C0121D1
:1027B0001648FFF77BFF18E002211448FFF776FF69
:1027C00013E004211148FFF771FF0EE008210F48C4
:1027D000FFF76CFF09E010210C48FFF767FF04E0EA
:1027E00020210A48FFF762FF00BF00BF174890F999
:1027F0000000401C052190FBF1F201FB120040B2E9
:102800001249087000BF00BF7CBD000000100140ED
:1028100040420F00700000200D0A2564203A206419
:10282000697374616E63652025640D0A0000000001
:102830000D0A2564203A20202020202564636D0D98
:102840000A00000042000020340000204500002063
:102850003A000020144800681449B0FBF1F0144914
:1028600008700846007800EB4001C1EBC0104FF63D
:10287000FF7101EAC0000F4908807047002101E0A4
:1028800000BF491C00EB8002B1EB420FF8D3704748
:10289000002101E000BF491C40F277124243B1EB36
:1028A000021FF7DB704700000000002000127A00D2
:1028B0004600002048000020002904DA4A4211B2F4
:1028C0002D22027001E0202202704FF47A7291FBF7
:1028D000F2F23032D3B2421C104613704FF47A72C7
:1028E00091FBF2F302FB1311642291FBF2F23032FE
:1028F000D3B2421C10461370642291FBF2F302FB28
:1029000013110A2291FBF2F23032D3B2421C10466C
:1029100013700A2291FBF2F302FB131101F1300252
:10292000D3B2421C10461370704708B5012108202D
:10293000FEF722F94020ADF8000003208DF80200D8
:1029400014208DF803006946FE48FDF759FE8020EB
:10295000ADF8000003208DF8020014208DF803006C
:102960006946F848FDF74CFE08BD1E2001E0411EF7
:10297000C8B20028FBD1704741F2883000E0401E09
:102980000028FCD1704700B58020EE491031086066
:1029900040200860FFF7E9FFEA480830006808B9FE
:1029A000012000E0002000F0800008B1002000BD00
:1029B0008020E44914310860FFF7D7FFE148083070
:1029C000006800F0800008B10020F0E78020DD49B9
:1029D00014310860FFF7C9FF0120E8E700B5402087
:1029E000D84914310860FFF7C0FF8020D549143161
:1029F0000860FFF7BAFF4020D24910310860FFF7A6
:102A0000B4FF8020CF4910310860FFF7AEFF00BD52
:102A100000B54020CB4914310860FFF7A6FF8020A5
:102A2000C84914310860FFF7A0FF4020C5491031A4
:102A30000860FFF79AFF4020C24914310860FFF791
:102A400094FF00BD00B54020BE4914310860FFF777
:102A50008CFF8020BB4910310860FFF786FF4020C3
:102A6000B84910310860FFF780FF4020B5491431A4
:102A70000860FFF77AFF00BD00B54020B14914316E
:102A80000860FFF772FF8020AE4910310860FFF741
:102A90006CFF4020AB4910310860FFF766FFA94882
:102AA0000830006800F0800038B14020A54914319A
:102AB0000860FFF75AFF002000BD4020A1491431F3
:102AC0000860FFF752FF0120F6E700B50246082331
:102AD0001BE040209B4914310860FFF746FF02F0DD
:102AE000800020B1802097491031086003E08020E9
:102AF0009449143108605006020EFFF736FF40205B
:102B0000904910310860FFF730FF181EA3F1010152
:102B1000CBB2DED140208B491431086000BD00B536
:102B200008230022802087491031086015E05006F4
:102B3000020E4020834914310860FFF716FF402041
:102B4000804910310860FFF710FF7E4808300068A8
:102B500000F0800008B142F00102181EA3F101014B
:102B6000CBB2E4D14020774914310860104600BD53
:102B700070B506460C461546FFF705FF08B900205C
:102B800070BD3046FFF7A1FFFFF776FF18B9FFF7DA
:102B900025FF0020F4E72046FFF797FFFFF76CFFC3
:102BA0002846FFF792FFFFF767FFFFF717FF0120A7
:102BB000E6E770B504460D46FFF7E5FE08B90020CC
:102BC00070BD2046FFF781FFFFF756FF30B9FFF7D2
:102BD00005FF01205C4908700020F1E72846FFF757
:102BE00074FFFFF749FFFFF7CEFE611CC8B2FFF785
:102BF0006CFFFFF741FFFFF792FF0646FFF722FF4A
:102C0000FFF7ECFE3046DBE770B505460E46FFF7F2
:102C1000BAFE08B9002070BD2846FFF756FFFFF73F
:102C20002BFF30B9FFF7DAFE01204749087000207A
:102C3000F1E73046FFF749FFFFF71EFFFFF7A3FE5E
:102C4000691CC8B2FFF741FFFFF716FF00240CE034
:102C5000FFF765FF3D490855052C02D1FFF7F2FE4D
:102C600001E0FFF7D5FE601CC4B2062CF0DBFFF7D5
:102C7000B5FE0120CFE700B5142200213C20FFF76C
:102C800077FF002202213C20FFF772FF272220213C
:102C90003020FFF76DFF00BD01B502E00098401E37
:102CA000009000980028F9D108BD01B509E0002086
:102CB00000E0401C4CF250318842FAD30099491E82
:102CC000009100990029F2D108BD06E042F6E061CA
:102CD00000BF0A1EA1F10101FBD1021EA0F10100FB
:102CE000F4D170472DE9FF4703213C20FFF78CFF0B
:102CF000164840781549097840EA012000B2144985
:102D000008801248C0781149897840EA012000B251
:102D1000104908800D4840790C49097940EA0120A2
:102D200000B20D4908800A48B0F9000000F06EFCBE
:102D300006460F460748B0F9000000F067FC32462F
:102D40003B460BE0000C01406600002051000020D3
:102D50005A0000205C0000205E000020CDE9000148
:102D600001F00EFC04464A4A4A4B00F06EFB8046D6
:102D70000022494B00F0C2FACDE9020100F082FCCA
:102D8000464908600846006800F051FC04462246A7
:102D90000B4643A000F0F4FD44494048006800F0B1
:102DA0008DFC05D342493D48006800F091FC01D2FA
:102DB0004FF0000A3D493948006800F089FC07D807
:102DC0003C493648006800F079FC01D84FF0010A10
:102DD00038493248006800F07BFC07D236492F485A
:102DE000006800F06BFC01D24FF0020A32492B4818
:102DF000006800F06DFC07D830492848006800F0F2
:102E00005DFC01D24FF0030A2C492448006800F011
:102E10005FFC07D22A492148006800F04FFC01D22C
:102E20004FF0040A26491D48006800F051FC07D203
:102E300024491A48006800F041FC01D24FF0050A0D
:102E400020491648006800F043FC01D2012400E04C
:102E500000241D491148006800F030FC01D2012017
:102E600000E0002004400CB14FF0060A16490B4860
:102E7000006800F02DFC07D20D490848006800F0FA
:102E80001DFC01D24FF0070A504604B0BDE8F087A0
:102E9000775AF01ADCA54C4000806640680000209C
:102EA000616E676C653D25660D0A00000000F0410B
:102EB0000000AF43000078420000D24200002043EF
:102EC00000004843000096430000A54308B54FF4B6
:102ED000C060FDF739FA06208DF8000000208DF85B
:102EE00001008DF8020001208DF803006846FDF70F
:102EF00030FA08BD0EB501210520FDF73DFEFFF7B4
:102F0000E5FF0120ADF8080028208DF80B0002A98C
:102F10000A48FDF775FB00210846FDF787FC0120F4
:102F2000009000208DF8040008208DF80500012095
:102F30008DF806006846FDF783FA0EBD00080140D3
:102F400010B5C821A04800F0BCF900209F490880B6
:102F500010BD10B500209E4981F8500081F8510045
:102F600081F8780050219A4800F0ABF99848523027
:102F7000002101604160018181720B30016041607C
:102F8000018181725D38A0F868106A30016041608B
:102F900081606A38A0F8761010BD00B587B00121B5
:102FA0000420FDF7E9FD01214804FDF7F2FD0420AE
:102FB000ADF8180018208DF81B0003208DF81A00BA
:102FC00006A98448FDF71CFB0820ADF81800042072
:102FD0008DF81B0006A97F48FDF712FB4FF4165031
:102FE00002900020ADF80C00ADF80E00ADF8100016
:102FF000ADF814000C20ADF8120026208DF8040066
:1030000003208DF805008DF8060001208DF80700DB
:1030100001A8FDF79EF902A96F48FEF762FD0122A3
:1030200040F225516C48FEF7F4FD01216A48FEF795
:10303000E4FDFFF785FF07B000BD044603E021462D
:1030400066A000F09DFCFAE7F8B50026604890F80D
:10305000500000286CD000205D4981F8500062A02B
:1030600000F08EFC5A4800F08BFC00BF5EE046B9D1
:1030700062A1574800F030F9041E55D10120FFF736
:10308000DCFF641C5DA1204600F026F9051E48D037
:10309000072E2ED2DFE806F02D040B11181F260094
:1030A0002A1B21464A48523000F0F2F822E02A1B3F
:1030B0002146684600F0ECF81CE02A1B21464448F3
:1030C0005D3000F0E5F815E02A1B214640486830E5
:1030D00000F0DEF80EE02A1B21463D486A3000F081
:1030E000D7F807E02A1B21463948763000F0D0F89F
:1030F00000E000BF00BF2C460120354981F8510097
:103100009DF80000412803D1012081F8780007E0F4
:103110009DF80000562803D100202D4981F8780041
:1031200002E00220FFF789FF701CC6B2062E9EDD6A
:10313000F8BD10B5264890F85100002842D0002074
:10314000234981F851002EA000F01AFC204852308B
:1031500000F016FC30A000F013FC1D4890F8780039
:1031600000282CD000201A4981F878002BA000F00C
:1031700007FC17485D3000F003FC27A000F000FCBE
:103180002CA000F0FDFB1248683000F0F9FB22A0F3
:1031900000F0F6FB2CA000F0F3FB0D486A3000F0C5
:1031A000EFFB1DA000F0ECFB2DA000F0E9FB0848B0
:1031B000763000F0E5FB18A000F0E2FB02E02DA065
:1031C00000F0DEFB10BD0000FD0000206C000020C0
:1031D0008400002000080140004400404552524F46
:1031E0005225640D0A0000002A2A2A2A2A2A2A2A9D
:1031F0002A2A2A2A2A2A0D0A000000002C00000090
:10320000536176655F446174612E55544354696D12
:1032100065203D20000000000D0A00005361766526
:103220005F446174612E6C61746974756465203DDE
:1032300020000000536176655F446174612E4E5F2B
:1032400053203D2000000000536176655F446174A7
:10325000612E6C6F6E676974756465203D20000097
:10326000536176655F446174612E455F57203D2050
:10327000000000004750532044415441206973200E
:103280006E6F742075736566756C6C210D0A000095
:1032900040EA01039B0703D009E008C9121F08C0D8
:1032A000042AFAD203E011F8013B00F8013B521E58
:1032B000F9D27047D2B201E000F8012B491EFBD2CF
:1032C00070470022F6E710B513460A460446194631
:1032D000FFF7F0FF204610BD30B505462A460B46E5
:1032E00012F8010B13F8014B08B1A042F8D01CB141
:1032F000002802D06D1CF1E7284630BD2DE9FE4FB5
:10330000804681EA0300C00F0C46009021F0004186
:1033100023F00045B8EB0200A94105D24046214602
:1033200090461C460B46024623F00040104347D00F
:10333000270DC7F30A00C3F30A510290401A019007
:1033400040286BDAC3F3130040F4801B00989246C8
:1033500020B10023D2EB030A63EB0B0B0198594613
:10336000C0F14002504600F004FA06460D465046B1
:103370005946019A00F01CFA10EB08006141002444
:1033800087EA115284EAE7731A4340D0009A62B385
:10339000019A012A4FEA075215DC001B61EB02017A
:1033A0004FF0004202EA0752CDE90042001C41F50D
:1033B000801132462B4600F053FA03B0BDE8F08F7F
:1033C00040462146F9E7001B61EB0201001C41F574
:1033D000801300185B412018A2F5001747EB03018A
:1033E00040EAD570B6196D4111E06D084FEA360616
:1033F00045EAC0754FEA0752001B61EB0201001C51
:1034000041F5801149084FEA300000195141324618
:103410002B4603B0BDE8F04F00F013BA009801222C
:1034200040000023D0EB020263EBE07300982146DA
:103430004FEAE074B8EB000061EB0401E9E783F0C8
:1034400000435BE781F0004158E72DE9FE4F81EA38
:10345000030404F0004421F0004100944FF0000BFD
:1034600023F0004350EA01045ED052EA03045BD02B
:10347000C3F30A54C1F30A552C44A4F2F334019463
:10348000A0FB0254C1F3130141F48011C3F31303F1
:1034900043F4801301FB024400FB034E840A970AA5
:1034A00044EA815447EA8357A4FB076802958D0AD2
:1034B00005FB07854FEA932C04FB0C542705029D5E
:1034C0004FEA065847EA1637B5EB08056EEB070CCE
:1034D000870E920E47EA811742EA8312A7FB020188
:1034E000B6EB0B0164EB00042B0D43EA0C335E18C2
:1034F00044EB1C50DA465146E7FB0201C5F31304C6
:103500004FEA0B3343EA14534FEA0432019C43EA77
:103510000603A4F10C040294009CCDE900B400F071
:103520009FF903B0BDE8F08F00200146F9E72DE9CF
:10353000F04D81EA030404F0004B21F000451446ED
:103540004FF0000A23F0004150EA050220D054EA6F
:1035500001021DD0C5F30A570246C5F31303C1F398
:103560001300C1F30A5640F4801543F48013A7EB0F
:103570000608101BD64608F2FD3873EB050002D38F
:1035800008F1010801E092185B41B8F1000F03DA7D
:1035900000200146BDE8F08D00204FF48011064662
:1035A00084460EE0171B73EB050705D3121B63EB74
:1035B000050306434CEA010C49084FEA3000921813
:1035C0005B4150EA0107EDD152EA030012D082EAD2
:1035D000040083EA0501084305D0101BAB4106D265
:1035E0000122002306E000224FF0004302E06FF0CA
:1035F000010253101AEB06004CEB085110EB0A00C5
:1036000041EB0B01BDE8F04D00F01BB90EB5C10F49
:1036100080EAE0700844CA07002140F233438DE895
:103620000E000A460B4600F01BF903B000BD00F087
:10363000004230F000400AD0C10D01F56071C0F3C6
:10364000160042EA0151C2084007114370470020AA
:103650000146704730B5041E71F1000404DB4FF0E1
:103660000044404264EB0101141E73F1000405DBC9
:103670001C464FF00043524263EB0403994208BFDB
:10368000904230BD01F0004330B421F0004150EAD7
:10369000010206D00A0DA2F56072C1F31301002ADF
:1036A00002DC30BC00207047440F44EAC104C10072
:1036B000E01830BC00EBC25000F08CB8002801DBF1
:1036C000C0F10040002901DBC1F100418142704797
:1036D000002801DBC0F10040002901DBC1F10041FD
:1036E0008842704730B50B46014600202022012455
:1036F00009E021FA02F59D4205D303FA02F5491BC0
:1037000004FA02F52844151EA2F10102F1DC30BDD5
:103710002DE9F05F0546002092469B468846064606
:10372000814640241BE0284641464746224600F099
:103730002FF853465A46C01A914110D311461846E5
:10374000224600F016F82D1A67EB01084F46224674
:103750000120002100F00DF817EB00094E41201E5A
:10376000A4F10104DFDC484631462A464346BDE861
:10377000F09F202A04DB203A00FA02F10020704773
:103780009140C2F1200320FA03F31943904070479F
:10379000202A04DB203A21FA02F00021704721FAA6
:1037A00002F3D040C2F1200291400843194670470D
:1037B000202A06DBCB17203A41FA02F043EAE073F5
:1037C00006E041FA02F3D040C2F1200291400843E2
:1037D000194670470029A8BF7047401C490008BF20
:1037E00020F00100704710B4B0FA80FC00FA0CF031
:1037F00050EA010404BF10BC704749B1CCF1200469
:1038000021FA04F411FA0CF118BF012121430843F5
:10381000A3EB0C01CB1D4FEA00614FEA102042BF21
:10382000002010BC704700EBC35010440029A4BF17
:1038300010BC7047401C490008BF20F0010010BCBC
:10384000704710B5141E73F1000408DA401C41F1F2
:10385000000192185B411A4301D120F0010010BD14
:103860002DE9F04D92469B4611B1B1FA81F202E08A
:10387000B0FA80F220329046FFF77BFF04460F46F5
:1038800040EA0A0041EA0B0153465A46084313D066
:10389000114653EA010019D0C8F140025046FFF723
:1038A00077FF05460E46504659464246FFF761FFF0
:1038B000084305D0012004E020463946BDE8F08DDC
:1038C0000020054346EAE0762C4337430A98630517
:1038D000E40AA0EB08000022FD0A44EA47540A303B
:1038E00002D500200146E9E7010510196941DDE92B
:1038F000084500196941BDE8F04DA2E770B521F017
:10390000004303430CD0C1F30A550024D5EB040552
:1039100064EB0403D617AD1AB34102DB0020014665
:1039200070BD201841EB025170BDC1F30A52C1F3C2
:10393000130140F2FF3341F480119A4202DA002071
:103940000146704740F233439A42A2F2334202DC0E
:103950005242FFF71DBFFFF70CBF0000064C074D9A
:1039600006E0E06840F0010394E80700984710344F
:10397000AC42F6D3FCF7E0FBA0470008C0470008C4
:103980000FB4054B10B503A9044A029800F050F992
:1039900010BC5DF814FB0000752300083000002007
:1039A000490050EAC12018BF04204A0D18BF40F05A
:1039B000010040F2FF72B2EB515F08BF40F002001D
:1039C000012808BF052070472DE9F0414F1E00EB8C
:1039D000C7010446D1E9000115461E4637F006022C
:1039E0000DD02A463346FFF730FD7F1E04EBC70398
:1039F000D3E90023FFF782FC37F00602F1D1022F52
:103A000025D0042F13D0062F18BFBDE8F0812A4619
:103A10003346FFF71AFDD4E90A23FFF76FFC2A4665
:103A20003346FFF712FDD4E90823FFF767FC2A4667
:103A30003346FFF70AFDD4E90623FFF75FFC2A4669
:103A40003346FFF702FDD4E90423FFF757FC2A466B
:103A50003346FFF7FAFCD4E90223FFF74FFC2A466E
:103A60003346FFF7F2FCD4E90023BDE8F041FFF74D
:103A700045BC0122FFF742BFFFF740BC024A0020CD
:103A80001107FFF73BBF000001FDFFFF02E008C880
:103A9000121F08C1002AFAD170477047002001E0C8
:103AA00001C1121F002AFBD1704700002DE9FF5F02
:103AB00082B00021DDE90430020DDDF840B003439F
:103AC00018D044F61050A2F2FF3242431514119858
:103AD00001281FD0A5EB0B00401C5FEA000A4FF045
:103AE00000064E4FDFF83891B046504615D5CAF162
:103AF000000413E0119801244AA3012801D16FEAC0
:103B00000B010298119AC0E90031C0E9024206B0E7
:103B1000BDE8F09FCBF10000DFE704460021404AFA
:103B2000491842EB0450CDE9001012E0E00707D03D
:103B300032463B4640464946FFF787FC8046894669
:103B400032463B4610461946FFF77FFC06460F46B5
:103B50006410002CEAD1DDE90401DDE90023BAF1AB
:103B6000000F06DAFFF771FC42464B46FFF76DFC8B
:103B700005E0FFF7DCFC42464B46FFF7D8FC044665
:103B80000E460022284BFFF765FD03D84FF0FF30AB
:103B9000014607E00022254B20463146FFF7AEFBE9
:103BA000FFF7C3FE102409E0002C0ADB0A220023E1
:103BB000FFF7AEFD039B30321A55641E50EA010236
:103BC000F2D1641C039AC4F111031444119A012A1E
:103BD00003D0012208430DD10AE0084304D000209D
:103BE0004FF0110B119072E7A3EB0B056D1E0DE06A
:103BF0005B4504DD4FF0000205F1010504E003DA46
:103C00004FF00002A5F10105002AECD002981199AD
:103C1000C0E90231C0E9004579E700000000144026
:103C20000000F03F300000000000F0430000E03FE3
:103C30002DE9FF4F95B09B468946064600250FE2C9
:103C4000252877D100242746F84A0121059400E071
:103C5000044316F8013F203B01FA03F01042F7D16C
:103C600030782A2811D06FF02F033078A0F130027D
:103C7000092A16D8059A44F0020402EB820203EBEB
:103C800042021044761C0590EFE759F8042B059288
:103C9000002A03DA504244F40054059044F0020430
:103CA000761C30782E2816D116F8010F44F0040443
:103CB0002A280DD06FF02F023078A0F13003092BA5
:103CC00009D807EB870302EB4303C718761CF3E719
:103CD00059F8047B761C30786C280FD006DC4C2811
:103CE00017D068280DD06A2814D104E0742810D0A9
:103CF0007A280FD10DE044F400140AE044F4801453
:103D000001E044F440147278824202D104F5801438
:103D1000761C761C307866280BD013DC582877D0B8
:103D200009DC002875D04528F6D04628F4D047286D
:103D30001AD19DE118E0632835D0642879D0652830
:103D400012D195E1702873D008DC6728F1D069287A
:103D50006FD06E280DD06F2806D1B5E073282CD017
:103D6000752875D0782874D05A46179990476D1CDD
:103D700075E1C4F30250022809D003280DD0D9F808
:103D8000001004280DD00D6009F1040967E1D9F88D
:103D90000010EA17C1E90052F6E7D9F800100D80CB
:103DA000F2E70D70F0E719F8041B8DF80010002001
:103DB0008DF80100EA46012003E059F804AB4FF00A
:103DC000FF3061074FF0000102D40DE008F101015E
:103DD0008846B9420FDA8045F8DB1AF80810002946
:103DE000F4D108E008F1010188468142FADB1AF8B3
:103DF00008100029F6D105985B46A0EB080721467C
:103E00003846179A00F094FA284400EB080507E0BA
:103E10004DE029E10DE01AF8010B5A461799904739
:103E2000B8F10108F7D25B4621463846179A13E1EC
:103E300042E00A220092C4F302524FF0000A022A22
:103E400008D059F804CB032A4FEAEC710AD00DE0F0
:103E500029E02AE009F1070121F00702F2E802C196
:103E6000914609E00FFA8CFC4FEAEC71042A03D169
:103E70004FFA8CFC4FEAEC71002907DA0A46002160
:103E8000DCF1000C61EB02012D2202E0220504D5D9
:103E90002B228DF80420012203E0E20701D020222A
:103EA000F7E7904659E00A2102E010220DE01021C8
:103EB0004FF0000A00910BE010224FF0000A44F08E
:103EC00004040827009203E008224FF0000A009241
:103ED000C4F30252022A05D059F804CB0021032A68
:103EE00008D009E009F1070121F00702F2E802C158
:103EF000914605E01FFA8CFC042A01D10CF0FF0C5E
:103F00004FF00008220728D5702806D0009B83F0C8
:103F1000100353EA0A0305D00EE040228DF8042076
:103F2000012208E05CEA010206D030228DF804206C
:103F30008DF8050002229046009B83F0080353EAA7
:103F40000A030AD15CEA010201D1620705D53022D9
:103F50008DF804204FF001087F1E582804D034A0AB
:103F600003900EA802900DE036A0F9E75346604694
:103F7000009AFFF7CDFB84460398825C0298401EAE
:103F8000029002705CEA0100F0D1029806A9081ABA
:103F900000F1200A600702D524F4803400E00127F4
:103FA000574502DDA7EB0A0000E0002000EB0A0104
:103FB000009005984144401A0590E00306D45B4602
:103FC0002146179A059800F0B3F90544002706E04A
:103FD00001A85A46C05D179990476D1C7F1C474544
:103FE000F6DBE0030CD55B462146179A059800F0F6
:103FF0009FF9054404E030205A46179990476D1CFC
:104000000099481E00900029F5DC08E0029802990A
:104010005A460078491C0291179990476D1CBAF1D5
:104020000001AAF1010AF1DC65E1000009280100A4
:10403000303132333435363738396162636465661E
:1040400000000000303132333435363738394142E0
:10405000434445460000000000F058F90544761C32
:10406000307800287FF4ECAD19B02846BDE8F08F19
:10407000620700D4062709F1070222F0070CFCE8CA
:104080000223E14603F000485FEA080C02D00FF279
:10409000702C0DE05FEA045C02D50FF2682C07E09B
:1040A0005FEAC47C02D00FF2602C01E0AFF2700C2A
:1040B0004FF0FF3823F00043CDF850C065280CD0F6
:1040C00006DC452809D046281DD047283DD13DE0D3
:1040D000662818D067287ED138E00021112F01DB37
:1040E000112000E0781CCDE9000106A90EA8FFF719
:1040F000DDFCDDE90F010E9A03910021009207F12A
:10410000010A04914DE04FF000400097CDE9011005
:1041100006A90EA8FFF7CAFCDDE90F0203920E9B69
:1041200011990022DDF80CA00093049211B9791CBA
:1041300000EB010AB7EB0A0004D4C0F1FF3007F12D
:10414000010A0490AAEB0700019044E0012F00DA75
:1041500001270021112F01DD112000E03846CDE9B3
:10416000000106A90EA8FFF7A1FCDDE90F010E9AD8
:104170000391002104910092BA4621070CD40399BF
:10418000514500DA8A46BAF1010F05DD009AAAF11D
:104190000101515C302908D0B84202DA10F1040F55
:1041A00006DA0121CDE9011015E0AAF10101E9E7E4
:1041B000002805DC049901440491AAEB000102E007
:1041C000411C514500DD8A460499401A401C01906B
:1041D0004FF000400290200704D40198504501DBC5
:1041E000CDF8048000208DF84F0002980DF14F07A4
:1041F000B0F1004F25D02B200E9002984FF002080E
:1042000000280CDA404202902D200E9007E00A218F
:104210000298FFF767FA3031029007F8011DB8F1F4
:104220000001A8F10108F2DC02980028EFD1791E04
:104230000E980870307800F0200040F0450007F834
:10424000020D12A8C01B00F107081498007800B1F5
:10425000012000EB0A01019801EBE071059841444F
:10426000401A401E0590E00306D45B462146179A8B
:10427000059800F05DF805441498007818B15A4686
:10428000179990476D1CE00324D55B462146179A89
:10429000059800F04DF805441CE00498002807DB61
:1042A000DDE90301884203DD0098405C179901E0D5
:1042B000179930205A469047049805F10105401C93
:1042C00004900198401E019004D12E205A4617995F
:1042D00090476D1CBAF10001AAF1010ADDDC05E08E
:1042E00017F8010B5A46179990476D1CB8F1000159
:1042F000A8F10108F4DC5B462146179A0598ABE665
:104300002D0000002B000000200000002DE9F041EE
:10431000044600251E461746880404D405E03946A5
:104320002020B0476D1C641EF9D52846BDE8F081F9
:104330002DE9F041044600251E469046C80301D5EC
:10434000302700E02027880404D505E041463846A0
:10435000B0476D1C641EF9D52846BDE8F081000009
:104360002DE9F84F04460D4621F0004000917349B5
:10437000814211DC7249884201DC06D12CB1204611
:104380002946BDE8F84FFFF774BB6E48002DCCBF3F
:104390006D496E49BDE8F88F6D49814211DD6D4967
:1043A0008142D8BF4FF0FF366DDD20462946FFF72A
:1043B000F7FA042808BFFFF761FB20462946BDE84D
:1043C000F88F6549654F25F00045814233DD64492A
:1043D000814219DD002632464FF0804320462946AF
:1043E000FEF78CFF80468A46012220462946FFF7C9
:1043F00085FA00223B46FFF722F842465346FFF774
:1044000096F804460D463EE001260022BA463B4699
:1044100020462946FEF772FF80460F46002253468B
:1044200020462946FFF70BF842463B46FFF77FF848
:1044300004460D4627E04B4981421BDDDFF828A1E9
:1044400002260022534620462946FEF7FEFF0022A0
:104450003B46FEF753FF80460F4600225346204658
:104460002946FEF7ECFF42463B46FFF760F804465C
:104470000D4608E0032622462B4600203B49FFF765
:1044800056F804460D4622462B4610461946FEF7BE
:10449000DCFF8B46824602460B46FEF7D6FF0746F8
:1044A0000246334888460B4606217844FFF78CFACB
:1044B00052465B46FEF7C9FF82462E488B463A4677
:1044C000434605217844FFF77FFA3A464346FEF714
:1044D000BCFF02460B46002E504659460CDAFEF74A
:1044E0000DFF22462B46FEF7B0FF01B022462B46B9
:1044F000BDE8F04FFEF7A6BFFEF700FF22462B46B1
:10450000FEF7A3FF1C4A7A4402EBC603D3E900235B
:10451000FEF795FF22462B46FEF791FF174A7A4495
:1045200002EBC603D3E90023FEF78CFF009A002AB2
:10453000B8BF81F00041BDE8F88F000000001044D2
:104540000000F07F182D4454FB21F93FFB21F9BFF7
:104550000000DC3F0000203E0000F33F0000F03F81
:104560000000E63F008003400000F83F0000F0BF7D
:10457000BA0200007802000016020000DE0100000E
:104580002DE9F04D9446CCF1000423F000464CEAAE
:104590000404524F46EAD4749A46884621F00042F9
:1045A000BC4206D8454240EA050442EAD474BC4203
:1045B00004D9BDE8F04D6246FFF75EBAAAF1405556
:1045C000A5F17F6555EA0C040BD0022404EAAA7415
:1045D000434DDFF810E144EAD87452EA000B04D0EE
:1045E0000CE0BDE8F04DFFF7BBBE002C14BF012C62
:1045F000BDE8F08D022C30D0032C32D056EA0C0BE3
:104600000AD0BE4220D1BA4209D126F0804622F01B
:1046100080423346114617E000291ADB25E0DFF817
:10462000C8B0FB44002C04BFDBE90001BDE8F08DFD
:10463000012C02BFDBE9000181F00041BDE8F08DF3
:10464000022C0AD0032C0CD0BA4212D1B8F1000FC0
:104650000BDA23482549BDE8F08D28462449BDE8FA
:10466000F08D28467146BDE8F08D1D482149BDE812
:10467000F08D921B12153C2AC4BF19481D490EDC4F
:10468000BAF1000FBEBF12F13C0F0020014606DB5D
:104690006246FEF74CFF21F00041FFF761FE002C5F
:1046A00008BFBDE8F08D012C04BF81F00041BDE8DA
:1046B000F08D114A114B022C07D0FEF7C0FE2A469E
:1046C000BDE8F04D0A4BFEF7BABEFEF7B8FE2A462B
:1046D000BDE8F04D064BFEF7B5BE00000000F07FD0
:1046E000182D4454FB2109C072010000FB21F9BFC1
:1046F000FB210940FB21F93F075C143326A6A13CAE
:104700004FBB610567ACDD3F182D4454FB21E93FE9
:104710009BF681D20B73EF3F182D4454FB21F93FD8
:10472000E2652F227F2B7A3C075C143326A6813C5E
:10473000BDCBF07A8807703C075C143326A6913C09
:10474000C4EB98999999C9BF711623FEC671BCBF75
:104750006D9A74AFF2B0B3BF9AFDDE522DDEADBFDD
:104760002F6C6A2C44B4A2BF0D5555555555D53FF5
:10477000FF8300922449C23F6E204CC5CD45B73F10
:10478000513DD0A0660DB13FEB0D76244B7BA93F88
:1047900011DA22E33AAD903F000000000000000073
:1047A000C047000800000020700000008C3A00089C
:1047B0003048000870000020580500009C3A0008AE
:1047C00000A24A04000000000000000001020304EF
:1047D00006070809000000000102030401020304A7
:1047E0000607080902040608000000000000000097
:1047F00000000000000000000000000000000000B9
:104800000000960000000000000000000000000012
:104810000000000000000000000000000000000098
:104820000000000000000000000000000000000088
:0400000508000131BD
:00000001FF
